{
	"contract/twitter-modifier.sol": {
		"Twitter": {
			"abi": [
				{
					"inputs": [],
					"stateMutability": "nonpayable",
					"type": "constructor"
				},
				{
					"inputs": [],
					"name": "MAX_TWEET_LENGTH",
					"outputs": [
						{
							"internalType": "uint256",
							"name": "",
							"type": "uint256"
						}
					],
					"stateMutability": "view",
					"type": "function"
				},
				{
					"inputs": [
						{
							"internalType": "uint256",
							"name": "newTweetLength",
							"type": "uint256"
						}
					],
					"name": "changeTweetLength",
					"outputs": [],
					"stateMutability": "nonpayable",
					"type": "function"
				},
				{
					"inputs": [
						{
							"internalType": "string",
							"name": "_tweet",
							"type": "string"
						}
					],
					"name": "createTweet",
					"outputs": [],
					"stateMutability": "nonpayable",
					"type": "function"
				},
				{
					"inputs": [
						{
							"internalType": "address",
							"name": "_owner",
							"type": "address"
						}
					],
					"name": "getAllTweet",
					"outputs": [
						{
							"components": [
								{
									"internalType": "address",
									"name": "author",
									"type": "address"
								},
								{
									"internalType": "string",
									"name": "content",
									"type": "string"
								},
								{
									"internalType": "uint256",
									"name": "timestamp",
									"type": "uint256"
								},
								{
									"internalType": "uint256",
									"name": "likes",
									"type": "uint256"
								}
							],
							"internalType": "struct Twitter.Tweet[]",
							"name": "",
							"type": "tuple[]"
						}
					],
					"stateMutability": "view",
					"type": "function"
				},
				{
					"inputs": [
						{
							"internalType": "uint256",
							"name": "_i",
							"type": "uint256"
						}
					],
					"name": "getTweets",
					"outputs": [
						{
							"components": [
								{
									"internalType": "address",
									"name": "author",
									"type": "address"
								},
								{
									"internalType": "string",
									"name": "content",
									"type": "string"
								},
								{
									"internalType": "uint256",
									"name": "timestamp",
									"type": "uint256"
								},
								{
									"internalType": "uint256",
									"name": "likes",
									"type": "uint256"
								}
							],
							"internalType": "struct Twitter.Tweet",
							"name": "",
							"type": "tuple"
						}
					],
					"stateMutability": "view",
					"type": "function"
				},
				{
					"inputs": [],
					"name": "owner",
					"outputs": [
						{
							"internalType": "address",
							"name": "",
							"type": "address"
						}
					],
					"stateMutability": "view",
					"type": "function"
				},
				{
					"inputs": [
						{
							"internalType": "address",
							"name": "",
							"type": "address"
						},
						{
							"internalType": "uint256",
							"name": "",
							"type": "uint256"
						}
					],
					"name": "tweets",
					"outputs": [
						{
							"internalType": "address",
							"name": "author",
							"type": "address"
						},
						{
							"internalType": "string",
							"name": "content",
							"type": "string"
						},
						{
							"internalType": "uint256",
							"name": "timestamp",
							"type": "uint256"
						},
						{
							"internalType": "uint256",
							"name": "likes",
							"type": "uint256"
						}
					],
					"stateMutability": "view",
					"type": "function"
				}
			],
			"devdoc": {
				"kind": "dev",
				"methods": {},
				"version": 1
			},
			"evm": {
				"assembly": "    /* \"contract/twitter-modifier.sol\":325:1534  contract Twitter {... */\n  mstore(0x40, 0x80)\n    /* \"contract/twitter-modifier.sol\":408:411  230 */\n  0xe6\n    /* \"contract/twitter-modifier.sol\":376:411  uint public  MAX_TWEET_LENGTH = 230 */\n  0x01\n  sstore\n    /* \"contract/twitter-modifier.sol\":624:675  constructor() {... */\n  callvalue\n  dup1\n  iszero\n  tag_1\n  jumpi\n  0x00\n  dup1\n  revert\ntag_1:\n  pop\n    /* \"contract/twitter-modifier.sol\":657:667  msg.sender */\n  caller\n    /* \"contract/twitter-modifier.sol\":649:654  owner */\n  0x00\n  dup1\n    /* \"contract/twitter-modifier.sol\":649:667  owner = msg.sender */\n  0x0100\n  exp\n  dup2\n  sload\n  dup2\n  0xffffffffffffffffffffffffffffffffffffffff\n  mul\n  not\n  and\n  swap1\n  dup4\n  0xffffffffffffffffffffffffffffffffffffffff\n  and\n  mul\n  or\n  swap1\n  sstore\n  pop\n    /* \"contract/twitter-modifier.sol\":325:1534  contract Twitter {... */\n  dataSize(sub_0)\n  dup1\n  dataOffset(sub_0)\n  0x00\n  codecopy\n  0x00\n  return\nstop\n\nsub_0: assembly {\n        /* \"contract/twitter-modifier.sol\":325:1534  contract Twitter {... */\n      mstore(0x40, 0x80)\n      callvalue\n      dup1\n      iszero\n      tag_1\n      jumpi\n      0x00\n      dup1\n      revert\n    tag_1:\n      pop\n      jumpi(tag_2, lt(calldatasize, 0x04))\n      shr(0xe0, calldataload(0x00))\n      dup1\n      0x888a7880\n      gt\n      tag_10\n      jumpi\n      dup1\n      0x888a7880\n      eq\n      tag_6\n      jumpi\n      dup1\n      0x8da5cb5b\n      eq\n      tag_7\n      jumpi\n      dup1\n      0xb64988b8\n      eq\n      tag_8\n      jumpi\n      dup1\n      0xed9bb8d7\n      eq\n      tag_9\n      jumpi\n      jump(tag_2)\n    tag_10:\n      dup1\n      0x05a1b4a9\n      eq\n      tag_3\n      jumpi\n      dup1\n      0x6eb10797\n      eq\n      tag_4\n      jumpi\n      dup1\n      0x7c9cd2bc\n      eq\n      tag_5\n      jumpi\n    tag_2:\n      0x00\n      dup1\n      revert\n        /* \"contract/twitter-modifier.sol\":573:615  mapping (address => Tweet[]) public tweets */\n    tag_3:\n      tag_11\n      0x04\n      dup1\n      calldatasize\n      sub\n      dup2\n      add\n      swap1\n      tag_12\n      swap2\n      swap1\n      tag_13\n      jump\t// in\n    tag_12:\n      tag_14\n      jump\t// in\n    tag_11:\n      mload(0x40)\n      tag_15\n      swap5\n      swap4\n      swap3\n      swap2\n      swap1\n      tag_16\n      jump\t// in\n    tag_15:\n      mload(0x40)\n      dup1\n      swap2\n      sub\n      swap1\n      return\n        /* \"contract/twitter-modifier.sol\":376:411  uint public  MAX_TWEET_LENGTH = 230 */\n    tag_4:\n      tag_17\n      tag_18\n      jump\t// in\n    tag_17:\n      mload(0x40)\n      tag_19\n      swap2\n      swap1\n      tag_20\n      jump\t// in\n    tag_19:\n      mload(0x40)\n      dup1\n      swap2\n      sub\n      swap1\n      return\n        /* \"contract/twitter-modifier.sol\":788:1165  function createTweet(string memory _tweet) public {... */\n    tag_5:\n      tag_21\n      0x04\n      dup1\n      calldatasize\n      sub\n      dup2\n      add\n      swap1\n      tag_22\n      swap2\n      swap1\n      tag_23\n      jump\t// in\n    tag_22:\n      tag_24\n      jump\t// in\n    tag_21:\n      stop\n        /* \"contract/twitter-modifier.sol\":1414:1531  function changeTweetLength(uint newTweetLength) public onlyOwner {... */\n    tag_6:\n      tag_25\n      0x04\n      dup1\n      calldatasize\n      sub\n      dup2\n      add\n      swap1\n      tag_26\n      swap2\n      swap1\n      tag_27\n      jump\t// in\n    tag_26:\n      tag_28\n      jump\t// in\n    tag_25:\n      stop\n        /* \"contract/twitter-modifier.sol\":349:369  address public owner */\n    tag_7:\n      tag_29\n      tag_30\n      jump\t// in\n    tag_29:\n      mload(0x40)\n      tag_31\n      swap2\n      swap1\n      tag_32\n      jump\t// in\n    tag_31:\n      mload(0x40)\n      dup1\n      swap2\n      sub\n      swap1\n      return\n        /* \"contract/twitter-modifier.sol\":1294:1408  function getAllTweet(address _owner) public view returns (Tweet[] memory) {... */\n    tag_8:\n      tag_33\n      0x04\n      dup1\n      calldatasize\n      sub\n      dup2\n      add\n      swap1\n      tag_34\n      swap2\n      swap1\n      tag_35\n      jump\t// in\n    tag_34:\n      tag_36\n      jump\t// in\n    tag_33:\n      mload(0x40)\n      tag_37\n      swap2\n      swap1\n      tag_38\n      jump\t// in\n    tag_37:\n      mload(0x40)\n      dup1\n      swap2\n      sub\n      swap1\n      return\n        /* \"contract/twitter-modifier.sol\":1174:1286  function getTweets( uint _i) public view returns (Tweet memory) {... */\n    tag_9:\n      tag_39\n      0x04\n      dup1\n      calldatasize\n      sub\n      dup2\n      add\n      swap1\n      tag_40\n      swap2\n      swap1\n      tag_27\n      jump\t// in\n    tag_40:\n      tag_41\n      jump\t// in\n    tag_39:\n      mload(0x40)\n      tag_42\n      swap2\n      swap1\n      tag_43\n      jump\t// in\n    tag_42:\n      mload(0x40)\n      dup1\n      swap2\n      sub\n      swap1\n      return\n        /* \"contract/twitter-modifier.sol\":573:615  mapping (address => Tweet[]) public tweets */\n    tag_14:\n      mstore(0x20, 0x02)\n      dup2\n      0x00\n      mstore\n      keccak256(0x00, 0x40)\n      dup2\n      dup2\n      sload\n      dup2\n      lt\n      tag_44\n      jumpi\n      0x00\n      dup1\n      revert\n    tag_44:\n      swap1\n      0x00\n      mstore\n      keccak256(0x00, 0x20)\n      swap1\n      0x04\n      mul\n      add\n      0x00\n      swap2\n      pop\n      swap2\n      pop\n      pop\n      dup1\n      0x00\n      add\n      0x00\n      swap1\n      sload\n      swap1\n      0x0100\n      exp\n      swap1\n      div\n      0xffffffffffffffffffffffffffffffffffffffff\n      and\n      swap1\n      dup1\n      0x01\n      add\n      dup1\n      sload\n      tag_46\n      swap1\n      tag_47\n      jump\t// in\n    tag_46:\n      dup1\n      0x1f\n      add\n      0x20\n      dup1\n      swap2\n      div\n      mul\n      0x20\n      add\n      mload(0x40)\n      swap1\n      dup2\n      add\n      0x40\n      mstore\n      dup1\n      swap3\n      swap2\n      swap1\n      dup2\n      dup2\n      mstore\n      0x20\n      add\n      dup3\n      dup1\n      sload\n      tag_48\n      swap1\n      tag_47\n      jump\t// in\n    tag_48:\n      dup1\n      iszero\n      tag_49\n      jumpi\n      dup1\n      0x1f\n      lt\n      tag_50\n      jumpi\n      0x0100\n      dup1\n      dup4\n      sload\n      div\n      mul\n      dup4\n      mstore\n      swap2\n      0x20\n      add\n      swap2\n      jump(tag_49)\n    tag_50:\n      dup3\n      add\n      swap2\n      swap1\n      0x00\n      mstore\n      keccak256(0x00, 0x20)\n      swap1\n    tag_51:\n      dup2\n      sload\n      dup2\n      mstore\n      swap1\n      0x01\n      add\n      swap1\n      0x20\n      add\n      dup1\n      dup4\n      gt\n      tag_51\n      jumpi\n      dup3\n      swap1\n      sub\n      0x1f\n      and\n      dup3\n      add\n      swap2\n    tag_49:\n      pop\n      pop\n      pop\n      pop\n      pop\n      swap1\n      dup1\n      0x02\n      add\n      sload\n      swap1\n      dup1\n      0x03\n      add\n      sload\n      swap1\n      pop\n      dup5\n      jump\t// out\n        /* \"contract/twitter-modifier.sol\":376:411  uint public  MAX_TWEET_LENGTH = 230 */\n    tag_18:\n      sload(0x01)\n      dup2\n      jump\t// out\n        /* \"contract/twitter-modifier.sol\":788:1165  function createTweet(string memory _tweet) public {... */\n    tag_24:\n        /* \"contract/twitter-modifier.sol\":891:907  MAX_TWEET_LENGTH */\n      sload(0x01)\n        /* \"contract/twitter-modifier.sol\":873:879  _tweet */\n      dup2\n        /* \"contract/twitter-modifier.sol\":867:887  bytes(_tweet).length */\n      mload\n        /* \"contract/twitter-modifier.sol\":867:907  bytes(_tweet).length <= MAX_TWEET_LENGTH */\n      gt\n      iszero\n        /* \"contract/twitter-modifier.sol\":859:929  require(bytes(_tweet).length <= MAX_TWEET_LENGTH, \"Tweet is to long!\") */\n      tag_53\n      jumpi\n      mload(0x40)\n      0x08c379a000000000000000000000000000000000000000000000000000000000\n      dup2\n      mstore\n      0x04\n      add\n      tag_54\n      swap1\n      tag_55\n      jump\t// in\n    tag_54:\n      mload(0x40)\n      dup1\n      swap2\n      sub\n      swap1\n      revert\n    tag_53:\n        /* \"contract/twitter-modifier.sol\":942:963  Tweet memory newTweet */\n      0x00\n        /* \"contract/twitter-modifier.sol\":966:1111  Tweet({... */\n      mload(0x40)\n      dup1\n      0x80\n      add\n      0x40\n      mstore\n      dup1\n        /* \"contract/twitter-modifier.sol\":995:1005  msg.sender */\n      caller\n        /* \"contract/twitter-modifier.sol\":966:1111  Tweet({... */\n      0xffffffffffffffffffffffffffffffffffffffff\n      and\n      dup2\n      mstore\n      0x20\n      add\n        /* \"contract/twitter-modifier.sol\":1029:1035  _tweet */\n      dup4\n        /* \"contract/twitter-modifier.sol\":966:1111  Tweet({... */\n      dup2\n      mstore\n      0x20\n      add\n        /* \"contract/twitter-modifier.sol\":1061:1076  block.timestamp */\n      timestamp\n        /* \"contract/twitter-modifier.sol\":966:1111  Tweet({... */\n      dup2\n      mstore\n      0x20\n      add\n        /* \"contract/twitter-modifier.sol\":1098:1099  0 */\n      0x00\n        /* \"contract/twitter-modifier.sol\":966:1111  Tweet({... */\n      dup2\n      mstore\n      pop\n        /* \"contract/twitter-modifier.sol\":942:1111  Tweet memory newTweet = Tweet({... */\n      swap1\n      pop\n        /* \"contract/twitter-modifier.sol\":1124:1130  tweets */\n      0x02\n        /* \"contract/twitter-modifier.sol\":1124:1142  tweets[msg.sender] */\n      0x00\n        /* \"contract/twitter-modifier.sol\":1131:1141  msg.sender */\n      caller\n        /* \"contract/twitter-modifier.sol\":1124:1142  tweets[msg.sender] */\n      0xffffffffffffffffffffffffffffffffffffffff\n      and\n      0xffffffffffffffffffffffffffffffffffffffff\n      and\n      dup2\n      mstore\n      0x20\n      add\n      swap1\n      dup2\n      mstore\n      0x20\n      add\n      0x00\n      keccak256\n        /* \"contract/twitter-modifier.sol\":1148:1156  newTweet */\n      dup2\n        /* \"contract/twitter-modifier.sol\":1124:1157  tweets[msg.sender].push(newTweet) */\n      swap1\n      dup1\n      0x01\n      dup2\n      sload\n      add\n      dup1\n      dup3\n      sstore\n      dup1\n      swap2\n      pop\n      pop\n      0x01\n      swap1\n      sub\n      swap1\n      0x00\n      mstore\n      keccak256(0x00, 0x20)\n      swap1\n      0x04\n      mul\n      add\n      0x00\n      swap1\n      swap2\n      swap1\n      swap2\n      swap1\n      swap2\n      pop\n      0x00\n      dup3\n      add\n      mload\n      dup2\n      0x00\n      add\n      exp(0x0100, 0x00)\n      dup2\n      sload\n      dup2\n      0xffffffffffffffffffffffffffffffffffffffff\n      mul\n      not\n      and\n      swap1\n      dup4\n      0xffffffffffffffffffffffffffffffffffffffff\n      and\n      mul\n      or\n      swap1\n      sstore\n      pop\n      0x20\n      dup3\n      add\n      mload\n      dup2\n      0x01\n      add\n      swap1\n      dup2\n      tag_57\n      swap2\n      swap1\n      tag_58\n      jump\t// in\n    tag_57:\n      pop\n      0x40\n      dup3\n      add\n      mload\n      dup2\n      0x02\n      add\n      sstore\n      0x60\n      dup3\n      add\n      mload\n      dup2\n      0x03\n      add\n      sstore\n      pop\n      pop\n        /* \"contract/twitter-modifier.sol\":838:1165  {... */\n      pop\n        /* \"contract/twitter-modifier.sol\":788:1165  function createTweet(string memory _tweet) public {... */\n      pop\n      jump\t// out\n        /* \"contract/twitter-modifier.sol\":1414:1531  function changeTweetLength(uint newTweetLength) public onlyOwner {... */\n    tag_28:\n        /* \"contract/twitter-modifier.sol\":736:741  owner */\n      0x00\n      dup1\n      sload\n      swap1\n      0x0100\n      exp\n      swap1\n      div\n      0xffffffffffffffffffffffffffffffffffffffff\n      and\n        /* \"contract/twitter-modifier.sol\":722:741  msg.sender == owner */\n      0xffffffffffffffffffffffffffffffffffffffff\n      and\n        /* \"contract/twitter-modifier.sol\":722:732  msg.sender */\n      caller\n        /* \"contract/twitter-modifier.sol\":722:741  msg.sender == owner */\n      0xffffffffffffffffffffffffffffffffffffffff\n      and\n      eq\n        /* \"contract/twitter-modifier.sol\":714:759  require(msg.sender == owner, \"not the owner\") */\n      tag_60\n      jumpi\n      mload(0x40)\n      0x08c379a000000000000000000000000000000000000000000000000000000000\n      dup2\n      mstore\n      0x04\n      add\n      tag_61\n      swap1\n      tag_62\n      jump\t// in\n    tag_61:\n      mload(0x40)\n      dup1\n      swap2\n      sub\n      swap1\n      revert\n    tag_60:\n        /* \"contract/twitter-modifier.sol\":1509:1523  newTweetLength */\n      dup1\n        /* \"contract/twitter-modifier.sol\":1490:1506  MAX_TWEET_LENGTH */\n      0x01\n        /* \"contract/twitter-modifier.sol\":1490:1523  MAX_TWEET_LENGTH = newTweetLength */\n      dup2\n      swap1\n      sstore\n      pop\n        /* \"contract/twitter-modifier.sol\":1414:1531  function changeTweetLength(uint newTweetLength) public onlyOwner {... */\n      pop\n      jump\t// out\n        /* \"contract/twitter-modifier.sol\":349:369  address public owner */\n    tag_30:\n      0x00\n      dup1\n      sload\n      swap1\n      0x0100\n      exp\n      swap1\n      div\n      0xffffffffffffffffffffffffffffffffffffffff\n      and\n      dup2\n      jump\t// out\n        /* \"contract/twitter-modifier.sol\":1294:1408  function getAllTweet(address _owner) public view returns (Tweet[] memory) {... */\n    tag_36:\n        /* \"contract/twitter-modifier.sol\":1352:1366  Tweet[] memory */\n      0x60\n        /* \"contract/twitter-modifier.sol\":1386:1392  tweets */\n      0x02\n        /* \"contract/twitter-modifier.sol\":1386:1400  tweets[_owner] */\n      0x00\n        /* \"contract/twitter-modifier.sol\":1393:1399  _owner */\n      dup4\n        /* \"contract/twitter-modifier.sol\":1386:1400  tweets[_owner] */\n      0xffffffffffffffffffffffffffffffffffffffff\n      and\n      0xffffffffffffffffffffffffffffffffffffffff\n      and\n      dup2\n      mstore\n      0x20\n      add\n      swap1\n      dup2\n      mstore\n      0x20\n      add\n      0x00\n      keccak256\n        /* \"contract/twitter-modifier.sol\":1379:1400  return tweets[_owner] */\n      dup1\n      sload\n      dup1\n      0x20\n      mul\n      0x20\n      add\n      mload(0x40)\n      swap1\n      dup2\n      add\n      0x40\n      mstore\n      dup1\n      swap3\n      swap2\n      swap1\n      dup2\n      dup2\n      mstore\n      0x20\n      add\n      0x00\n      swap1\n    tag_65:\n      dup3\n      dup3\n      lt\n      iszero\n      tag_66\n      jumpi\n      dup4\n      dup3\n      swap1\n      0x00\n      mstore\n      keccak256(0x00, 0x20)\n      swap1\n      0x04\n      mul\n      add\n      mload(0x40)\n      dup1\n      0x80\n      add\n      0x40\n      mstore\n      swap1\n      dup2\n      0x00\n      dup3\n      add\n      0x00\n      swap1\n      sload\n      swap1\n      0x0100\n      exp\n      swap1\n      div\n      0xffffffffffffffffffffffffffffffffffffffff\n      and\n      0xffffffffffffffffffffffffffffffffffffffff\n      and\n      0xffffffffffffffffffffffffffffffffffffffff\n      and\n      dup2\n      mstore\n      0x20\n      add\n      0x01\n      dup3\n      add\n      dup1\n      sload\n      tag_68\n      swap1\n      tag_47\n      jump\t// in\n    tag_68:\n      dup1\n      0x1f\n      add\n      0x20\n      dup1\n      swap2\n      div\n      mul\n      0x20\n      add\n      mload(0x40)\n      swap1\n      dup2\n      add\n      0x40\n      mstore\n      dup1\n      swap3\n      swap2\n      swap1\n      dup2\n      dup2\n      mstore\n      0x20\n      add\n      dup3\n      dup1\n      sload\n      tag_69\n      swap1\n      tag_47\n      jump\t// in\n    tag_69:\n      dup1\n      iszero\n      tag_70\n      jumpi\n      dup1\n      0x1f\n      lt\n      tag_71\n      jumpi\n      0x0100\n      dup1\n      dup4\n      sload\n      div\n      mul\n      dup4\n      mstore\n      swap2\n      0x20\n      add\n      swap2\n      jump(tag_70)\n    tag_71:\n      dup3\n      add\n      swap2\n      swap1\n      0x00\n      mstore\n      keccak256(0x00, 0x20)\n      swap1\n    tag_72:\n      dup2\n      sload\n      dup2\n      mstore\n      swap1\n      0x01\n      add\n      swap1\n      0x20\n      add\n      dup1\n      dup4\n      gt\n      tag_72\n      jumpi\n      dup3\n      swap1\n      sub\n      0x1f\n      and\n      dup3\n      add\n      swap2\n    tag_70:\n      pop\n      pop\n      pop\n      pop\n      pop\n      dup2\n      mstore\n      0x20\n      add\n      0x02\n      dup3\n      add\n      sload\n      dup2\n      mstore\n      0x20\n      add\n      0x03\n      dup3\n      add\n      sload\n      dup2\n      mstore\n      pop\n      pop\n      dup2\n      mstore\n      0x20\n      add\n      swap1\n      0x01\n      add\n      swap1\n      jump(tag_65)\n    tag_66:\n      pop\n      pop\n      pop\n      pop\n      swap1\n      pop\n        /* \"contract/twitter-modifier.sol\":1294:1408  function getAllTweet(address _owner) public view returns (Tweet[] memory) {... */\n      swap2\n      swap1\n      pop\n      jump\t// out\n        /* \"contract/twitter-modifier.sol\":1174:1286  function getTweets( uint _i) public view returns (Tweet memory) {... */\n    tag_41:\n        /* \"contract/twitter-modifier.sol\":1224:1236  Tweet memory */\n      tag_73\n      tag_74\n      jump\t// in\n    tag_73:\n        /* \"contract/twitter-modifier.sol\":1256:1262  tweets */\n      0x02\n        /* \"contract/twitter-modifier.sol\":1256:1274  tweets[msg.sender] */\n      0x00\n        /* \"contract/twitter-modifier.sol\":1263:1273  msg.sender */\n      caller\n        /* \"contract/twitter-modifier.sol\":1256:1274  tweets[msg.sender] */\n      0xffffffffffffffffffffffffffffffffffffffff\n      and\n      0xffffffffffffffffffffffffffffffffffffffff\n      and\n      dup2\n      mstore\n      0x20\n      add\n      swap1\n      dup2\n      mstore\n      0x20\n      add\n      0x00\n      keccak256\n        /* \"contract/twitter-modifier.sol\":1275:1277  _i */\n      dup3\n        /* \"contract/twitter-modifier.sol\":1256:1278  tweets[msg.sender][_i] */\n      dup2\n      sload\n      dup2\n      lt\n      tag_76\n      jumpi\n      tag_77\n      tag_78\n      jump\t// in\n    tag_77:\n    tag_76:\n      swap1\n      0x00\n      mstore\n      keccak256(0x00, 0x20)\n      swap1\n      0x04\n      mul\n      add\n        /* \"contract/twitter-modifier.sol\":1249:1278  return tweets[msg.sender][_i] */\n      mload(0x40)\n      dup1\n      0x80\n      add\n      0x40\n      mstore\n      swap1\n      dup2\n      0x00\n      dup3\n      add\n      0x00\n      swap1\n      sload\n      swap1\n      0x0100\n      exp\n      swap1\n      div\n      0xffffffffffffffffffffffffffffffffffffffff\n      and\n      0xffffffffffffffffffffffffffffffffffffffff\n      and\n      0xffffffffffffffffffffffffffffffffffffffff\n      and\n      dup2\n      mstore\n      0x20\n      add\n      0x01\n      dup3\n      add\n      dup1\n      sload\n      tag_80\n      swap1\n      tag_47\n      jump\t// in\n    tag_80:\n      dup1\n      0x1f\n      add\n      0x20\n      dup1\n      swap2\n      div\n      mul\n      0x20\n      add\n      mload(0x40)\n      swap1\n      dup2\n      add\n      0x40\n      mstore\n      dup1\n      swap3\n      swap2\n      swap1\n      dup2\n      dup2\n      mstore\n      0x20\n      add\n      dup3\n      dup1\n      sload\n      tag_81\n      swap1\n      tag_47\n      jump\t// in\n    tag_81:\n      dup1\n      iszero\n      tag_82\n      jumpi\n      dup1\n      0x1f\n      lt\n      tag_83\n      jumpi\n      0x0100\n      dup1\n      dup4\n      sload\n      div\n      mul\n      dup4\n      mstore\n      swap2\n      0x20\n      add\n      swap2\n      jump(tag_82)\n    tag_83:\n      dup3\n      add\n      swap2\n      swap1\n      0x00\n      mstore\n      keccak256(0x00, 0x20)\n      swap1\n    tag_84:\n      dup2\n      sload\n      dup2\n      mstore\n      swap1\n      0x01\n      add\n      swap1\n      0x20\n      add\n      dup1\n      dup4\n      gt\n      tag_84\n      jumpi\n      dup3\n      swap1\n      sub\n      0x1f\n      and\n      dup3\n      add\n      swap2\n    tag_82:\n      pop\n      pop\n      pop\n      pop\n      pop\n      dup2\n      mstore\n      0x20\n      add\n      0x02\n      dup3\n      add\n      sload\n      dup2\n      mstore\n      0x20\n      add\n      0x03\n      dup3\n      add\n      sload\n      dup2\n      mstore\n      pop\n      pop\n      swap1\n      pop\n        /* \"contract/twitter-modifier.sol\":1174:1286  function getTweets( uint _i) public view returns (Tweet memory) {... */\n      swap2\n      swap1\n      pop\n      jump\t// out\n    tag_74:\n      mload(0x40)\n      dup1\n      0x80\n      add\n      0x40\n      mstore\n      dup1\n      and(0xffffffffffffffffffffffffffffffffffffffff, 0x00)\n      dup2\n      mstore\n      0x20\n      add\n      0x60\n      dup2\n      mstore\n      0x20\n      add\n      0x00\n      dup2\n      mstore\n      0x20\n      add\n      0x00\n      dup2\n      mstore\n      pop\n      swap1\n      jump\t// out\n        /* \"#utility.yul\":7:82   */\n    tag_85:\n        /* \"#utility.yul\":40:46   */\n      0x00\n        /* \"#utility.yul\":73:75   */\n      0x40\n        /* \"#utility.yul\":67:76   */\n      mload\n        /* \"#utility.yul\":57:76   */\n      swap1\n      pop\n        /* \"#utility.yul\":7:82   */\n      swap1\n      jump\t// out\n        /* \"#utility.yul\":88:205   */\n    tag_86:\n        /* \"#utility.yul\":197:198   */\n      0x00\n        /* \"#utility.yul\":194:195   */\n      dup1\n        /* \"#utility.yul\":187:199   */\n      revert\n        /* \"#utility.yul\":211:328   */\n    tag_87:\n        /* \"#utility.yul\":320:321   */\n      0x00\n        /* \"#utility.yul\":317:318   */\n      dup1\n        /* \"#utility.yul\":310:322   */\n      revert\n        /* \"#utility.yul\":334:460   */\n    tag_88:\n        /* \"#utility.yul\":371:378   */\n      0x00\n        /* \"#utility.yul\":411:453   */\n      0xffffffffffffffffffffffffffffffffffffffff\n        /* \"#utility.yul\":404:409   */\n      dup3\n        /* \"#utility.yul\":400:454   */\n      and\n        /* \"#utility.yul\":389:454   */\n      swap1\n      pop\n        /* \"#utility.yul\":334:460   */\n      swap2\n      swap1\n      pop\n      jump\t// out\n        /* \"#utility.yul\":466:562   */\n    tag_89:\n        /* \"#utility.yul\":503:510   */\n      0x00\n        /* \"#utility.yul\":532:556   */\n      tag_149\n        /* \"#utility.yul\":550:555   */\n      dup3\n        /* \"#utility.yul\":532:556   */\n      tag_88\n      jump\t// in\n    tag_149:\n        /* \"#utility.yul\":521:556   */\n      swap1\n      pop\n        /* \"#utility.yul\":466:562   */\n      swap2\n      swap1\n      pop\n      jump\t// out\n        /* \"#utility.yul\":568:690   */\n    tag_90:\n        /* \"#utility.yul\":641:665   */\n      tag_151\n        /* \"#utility.yul\":659:664   */\n      dup2\n        /* \"#utility.yul\":641:665   */\n      tag_89\n      jump\t// in\n    tag_151:\n        /* \"#utility.yul\":634:639   */\n      dup2\n        /* \"#utility.yul\":631:666   */\n      eq\n        /* \"#utility.yul\":621:684   */\n      tag_152\n      jumpi\n        /* \"#utility.yul\":680:681   */\n      0x00\n        /* \"#utility.yul\":677:678   */\n      dup1\n        /* \"#utility.yul\":670:682   */\n      revert\n        /* \"#utility.yul\":621:684   */\n    tag_152:\n        /* \"#utility.yul\":568:690   */\n      pop\n      jump\t// out\n        /* \"#utility.yul\":696:835   */\n    tag_91:\n        /* \"#utility.yul\":742:747   */\n      0x00\n        /* \"#utility.yul\":780:786   */\n      dup2\n        /* \"#utility.yul\":767:787   */\n      calldataload\n        /* \"#utility.yul\":758:787   */\n      swap1\n      pop\n        /* \"#utility.yul\":796:829   */\n      tag_154\n        /* \"#utility.yul\":823:828   */\n      dup2\n        /* \"#utility.yul\":796:829   */\n      tag_90\n      jump\t// in\n    tag_154:\n        /* \"#utility.yul\":696:835   */\n      swap3\n      swap2\n      pop\n      pop\n      jump\t// out\n        /* \"#utility.yul\":841:918   */\n    tag_92:\n        /* \"#utility.yul\":878:885   */\n      0x00\n        /* \"#utility.yul\":907:912   */\n      dup2\n        /* \"#utility.yul\":896:912   */\n      swap1\n      pop\n        /* \"#utility.yul\":841:918   */\n      swap2\n      swap1\n      pop\n      jump\t// out\n        /* \"#utility.yul\":924:1046   */\n    tag_93:\n        /* \"#utility.yul\":997:1021   */\n      tag_157\n        /* \"#utility.yul\":1015:1020   */\n      dup2\n        /* \"#utility.yul\":997:1021   */\n      tag_92\n      jump\t// in\n    tag_157:\n        /* \"#utility.yul\":990:995   */\n      dup2\n        /* \"#utility.yul\":987:1022   */\n      eq\n        /* \"#utility.yul\":977:1040   */\n      tag_158\n      jumpi\n        /* \"#utility.yul\":1036:1037   */\n      0x00\n        /* \"#utility.yul\":1033:1034   */\n      dup1\n        /* \"#utility.yul\":1026:1038   */\n      revert\n        /* \"#utility.yul\":977:1040   */\n    tag_158:\n        /* \"#utility.yul\":924:1046   */\n      pop\n      jump\t// out\n        /* \"#utility.yul\":1052:1191   */\n    tag_94:\n        /* \"#utility.yul\":1098:1103   */\n      0x00\n        /* \"#utility.yul\":1136:1142   */\n      dup2\n        /* \"#utility.yul\":1123:1143   */\n      calldataload\n        /* \"#utility.yul\":1114:1143   */\n      swap1\n      pop\n        /* \"#utility.yul\":1152:1185   */\n      tag_160\n        /* \"#utility.yul\":1179:1184   */\n      dup2\n        /* \"#utility.yul\":1152:1185   */\n      tag_93\n      jump\t// in\n    tag_160:\n        /* \"#utility.yul\":1052:1191   */\n      swap3\n      swap2\n      pop\n      pop\n      jump\t// out\n        /* \"#utility.yul\":1197:1671   */\n    tag_13:\n        /* \"#utility.yul\":1265:1271   */\n      0x00\n        /* \"#utility.yul\":1273:1279   */\n      dup1\n        /* \"#utility.yul\":1322:1324   */\n      0x40\n        /* \"#utility.yul\":1310:1319   */\n      dup4\n        /* \"#utility.yul\":1301:1308   */\n      dup6\n        /* \"#utility.yul\":1297:1320   */\n      sub\n        /* \"#utility.yul\":1293:1325   */\n      slt\n        /* \"#utility.yul\":1290:1409   */\n      iszero\n      tag_162\n      jumpi\n        /* \"#utility.yul\":1328:1407   */\n      tag_163\n      tag_86\n      jump\t// in\n    tag_163:\n        /* \"#utility.yul\":1290:1409   */\n    tag_162:\n        /* \"#utility.yul\":1448:1449   */\n      0x00\n        /* \"#utility.yul\":1473:1526   */\n      tag_164\n        /* \"#utility.yul\":1518:1525   */\n      dup6\n        /* \"#utility.yul\":1509:1515   */\n      dup3\n        /* \"#utility.yul\":1498:1507   */\n      dup7\n        /* \"#utility.yul\":1494:1516   */\n      add\n        /* \"#utility.yul\":1473:1526   */\n      tag_91\n      jump\t// in\n    tag_164:\n        /* \"#utility.yul\":1463:1526   */\n      swap3\n      pop\n        /* \"#utility.yul\":1419:1536   */\n      pop\n        /* \"#utility.yul\":1575:1577   */\n      0x20\n        /* \"#utility.yul\":1601:1654   */\n      tag_165\n        /* \"#utility.yul\":1646:1653   */\n      dup6\n        /* \"#utility.yul\":1637:1643   */\n      dup3\n        /* \"#utility.yul\":1626:1635   */\n      dup7\n        /* \"#utility.yul\":1622:1644   */\n      add\n        /* \"#utility.yul\":1601:1654   */\n      tag_94\n      jump\t// in\n    tag_165:\n        /* \"#utility.yul\":1591:1654   */\n      swap2\n      pop\n        /* \"#utility.yul\":1546:1664   */\n      pop\n        /* \"#utility.yul\":1197:1671   */\n      swap3\n      pop\n      swap3\n      swap1\n      pop\n      jump\t// out\n        /* \"#utility.yul\":1677:1795   */\n    tag_95:\n        /* \"#utility.yul\":1764:1788   */\n      tag_167\n        /* \"#utility.yul\":1782:1787   */\n      dup2\n        /* \"#utility.yul\":1764:1788   */\n      tag_89\n      jump\t// in\n    tag_167:\n        /* \"#utility.yul\":1759:1762   */\n      dup3\n        /* \"#utility.yul\":1752:1789   */\n      mstore\n        /* \"#utility.yul\":1677:1795   */\n      pop\n      pop\n      jump\t// out\n        /* \"#utility.yul\":1801:1900   */\n    tag_96:\n        /* \"#utility.yul\":1853:1859   */\n      0x00\n        /* \"#utility.yul\":1887:1892   */\n      dup2\n        /* \"#utility.yul\":1881:1893   */\n      mload\n        /* \"#utility.yul\":1871:1893   */\n      swap1\n      pop\n        /* \"#utility.yul\":1801:1900   */\n      swap2\n      swap1\n      pop\n      jump\t// out\n        /* \"#utility.yul\":1906:2075   */\n    tag_97:\n        /* \"#utility.yul\":1990:2001   */\n      0x00\n        /* \"#utility.yul\":2024:2030   */\n      dup3\n        /* \"#utility.yul\":2019:2022   */\n      dup3\n        /* \"#utility.yul\":2012:2031   */\n      mstore\n        /* \"#utility.yul\":2064:2068   */\n      0x20\n        /* \"#utility.yul\":2059:2062   */\n      dup3\n        /* \"#utility.yul\":2055:2069   */\n      add\n        /* \"#utility.yul\":2040:2069   */\n      swap1\n      pop\n        /* \"#utility.yul\":1906:2075   */\n      swap3\n      swap2\n      pop\n      pop\n      jump\t// out\n        /* \"#utility.yul\":2081:2327   */\n    tag_98:\n        /* \"#utility.yul\":2162:2163   */\n      0x00\n        /* \"#utility.yul\":2172:2285   */\n    tag_171:\n        /* \"#utility.yul\":2186:2192   */\n      dup4\n        /* \"#utility.yul\":2183:2184   */\n      dup2\n        /* \"#utility.yul\":2180:2193   */\n      lt\n        /* \"#utility.yul\":2172:2285   */\n      iszero\n      tag_173\n      jumpi\n        /* \"#utility.yul\":2271:2272   */\n      dup1\n        /* \"#utility.yul\":2266:2269   */\n      dup3\n        /* \"#utility.yul\":2262:2273   */\n      add\n        /* \"#utility.yul\":2256:2274   */\n      mload\n        /* \"#utility.yul\":2252:2253   */\n      dup2\n        /* \"#utility.yul\":2247:2250   */\n      dup5\n        /* \"#utility.yul\":2243:2254   */\n      add\n        /* \"#utility.yul\":2236:2275   */\n      mstore\n        /* \"#utility.yul\":2208:2210   */\n      0x20\n        /* \"#utility.yul\":2205:2206   */\n      dup2\n        /* \"#utility.yul\":2201:2211   */\n      add\n        /* \"#utility.yul\":2196:2211   */\n      swap1\n      pop\n        /* \"#utility.yul\":2172:2285   */\n      jump(tag_171)\n    tag_173:\n        /* \"#utility.yul\":2319:2320   */\n      0x00\n        /* \"#utility.yul\":2310:2316   */\n      dup5\n        /* \"#utility.yul\":2305:2308   */\n      dup5\n        /* \"#utility.yul\":2301:2317   */\n      add\n        /* \"#utility.yul\":2294:2321   */\n      mstore\n        /* \"#utility.yul\":2143:2327   */\n      pop\n        /* \"#utility.yul\":2081:2327   */\n      pop\n      pop\n      pop\n      jump\t// out\n        /* \"#utility.yul\":2333:2435   */\n    tag_99:\n        /* \"#utility.yul\":2374:2380   */\n      0x00\n        /* \"#utility.yul\":2425:2427   */\n      0x1f\n        /* \"#utility.yul\":2421:2428   */\n      not\n        /* \"#utility.yul\":2416:2418   */\n      0x1f\n        /* \"#utility.yul\":2409:2414   */\n      dup4\n        /* \"#utility.yul\":2405:2419   */\n      add\n        /* \"#utility.yul\":2401:2429   */\n      and\n        /* \"#utility.yul\":2391:2429   */\n      swap1\n      pop\n        /* \"#utility.yul\":2333:2435   */\n      swap2\n      swap1\n      pop\n      jump\t// out\n        /* \"#utility.yul\":2441:2818   */\n    tag_100:\n        /* \"#utility.yul\":2529:2532   */\n      0x00\n        /* \"#utility.yul\":2557:2596   */\n      tag_176\n        /* \"#utility.yul\":2590:2595   */\n      dup3\n        /* \"#utility.yul\":2557:2596   */\n      tag_96\n      jump\t// in\n    tag_176:\n        /* \"#utility.yul\":2612:2683   */\n      tag_177\n        /* \"#utility.yul\":2676:2682   */\n      dup2\n        /* \"#utility.yul\":2671:2674   */\n      dup6\n        /* \"#utility.yul\":2612:2683   */\n      tag_97\n      jump\t// in\n    tag_177:\n        /* \"#utility.yul\":2605:2683   */\n      swap4\n      pop\n        /* \"#utility.yul\":2692:2757   */\n      tag_178\n        /* \"#utility.yul\":2750:2756   */\n      dup2\n        /* \"#utility.yul\":2745:2748   */\n      dup6\n        /* \"#utility.yul\":2738:2742   */\n      0x20\n        /* \"#utility.yul\":2731:2736   */\n      dup7\n        /* \"#utility.yul\":2727:2743   */\n      add\n        /* \"#utility.yul\":2692:2757   */\n      tag_98\n      jump\t// in\n    tag_178:\n        /* \"#utility.yul\":2782:2811   */\n      tag_179\n        /* \"#utility.yul\":2804:2810   */\n      dup2\n        /* \"#utility.yul\":2782:2811   */\n      tag_99\n      jump\t// in\n    tag_179:\n        /* \"#utility.yul\":2777:2780   */\n      dup5\n        /* \"#utility.yul\":2773:2812   */\n      add\n        /* \"#utility.yul\":2766:2812   */\n      swap2\n      pop\n        /* \"#utility.yul\":2533:2818   */\n      pop\n        /* \"#utility.yul\":2441:2818   */\n      swap3\n      swap2\n      pop\n      pop\n      jump\t// out\n        /* \"#utility.yul\":2824:2942   */\n    tag_101:\n        /* \"#utility.yul\":2911:2935   */\n      tag_181\n        /* \"#utility.yul\":2929:2934   */\n      dup2\n        /* \"#utility.yul\":2911:2935   */\n      tag_92\n      jump\t// in\n    tag_181:\n        /* \"#utility.yul\":2906:2909   */\n      dup3\n        /* \"#utility.yul\":2899:2936   */\n      mstore\n        /* \"#utility.yul\":2824:2942   */\n      pop\n      pop\n      jump\t// out\n        /* \"#utility.yul\":2948:3592   */\n    tag_16:\n        /* \"#utility.yul\":3145:3149   */\n      0x00\n        /* \"#utility.yul\":3183:3186   */\n      0x80\n        /* \"#utility.yul\":3172:3181   */\n      dup3\n        /* \"#utility.yul\":3168:3187   */\n      add\n        /* \"#utility.yul\":3160:3187   */\n      swap1\n      pop\n        /* \"#utility.yul\":3197:3268   */\n      tag_183\n        /* \"#utility.yul\":3265:3266   */\n      0x00\n        /* \"#utility.yul\":3254:3263   */\n      dup4\n        /* \"#utility.yul\":3250:3267   */\n      add\n        /* \"#utility.yul\":3241:3247   */\n      dup8\n        /* \"#utility.yul\":3197:3268   */\n      tag_95\n      jump\t// in\n    tag_183:\n        /* \"#utility.yul\":3315:3324   */\n      dup2\n        /* \"#utility.yul\":3309:3313   */\n      dup2\n        /* \"#utility.yul\":3305:3325   */\n      sub\n        /* \"#utility.yul\":3300:3302   */\n      0x20\n        /* \"#utility.yul\":3289:3298   */\n      dup4\n        /* \"#utility.yul\":3285:3303   */\n      add\n        /* \"#utility.yul\":3278:3326   */\n      mstore\n        /* \"#utility.yul\":3343:3421   */\n      tag_184\n        /* \"#utility.yul\":3416:3420   */\n      dup2\n        /* \"#utility.yul\":3407:3413   */\n      dup7\n        /* \"#utility.yul\":3343:3421   */\n      tag_100\n      jump\t// in\n    tag_184:\n        /* \"#utility.yul\":3335:3421   */\n      swap1\n      pop\n        /* \"#utility.yul\":3431:3503   */\n      tag_185\n        /* \"#utility.yul\":3499:3501   */\n      0x40\n        /* \"#utility.yul\":3488:3497   */\n      dup4\n        /* \"#utility.yul\":3484:3502   */\n      add\n        /* \"#utility.yul\":3475:3481   */\n      dup6\n        /* \"#utility.yul\":3431:3503   */\n      tag_101\n      jump\t// in\n    tag_185:\n        /* \"#utility.yul\":3513:3585   */\n      tag_186\n        /* \"#utility.yul\":3581:3583   */\n      0x60\n        /* \"#utility.yul\":3570:3579   */\n      dup4\n        /* \"#utility.yul\":3566:3584   */\n      add\n        /* \"#utility.yul\":3557:3563   */\n      dup5\n        /* \"#utility.yul\":3513:3585   */\n      tag_101\n      jump\t// in\n    tag_186:\n        /* \"#utility.yul\":2948:3592   */\n      swap6\n      swap5\n      pop\n      pop\n      pop\n      pop\n      pop\n      jump\t// out\n        /* \"#utility.yul\":3598:3820   */\n    tag_20:\n        /* \"#utility.yul\":3691:3695   */\n      0x00\n        /* \"#utility.yul\":3729:3731   */\n      0x20\n        /* \"#utility.yul\":3718:3727   */\n      dup3\n        /* \"#utility.yul\":3714:3732   */\n      add\n        /* \"#utility.yul\":3706:3732   */\n      swap1\n      pop\n        /* \"#utility.yul\":3742:3813   */\n      tag_188\n        /* \"#utility.yul\":3810:3811   */\n      0x00\n        /* \"#utility.yul\":3799:3808   */\n      dup4\n        /* \"#utility.yul\":3795:3812   */\n      add\n        /* \"#utility.yul\":3786:3792   */\n      dup5\n        /* \"#utility.yul\":3742:3813   */\n      tag_101\n      jump\t// in\n    tag_188:\n        /* \"#utility.yul\":3598:3820   */\n      swap3\n      swap2\n      pop\n      pop\n      jump\t// out\n        /* \"#utility.yul\":3826:3943   */\n    tag_102:\n        /* \"#utility.yul\":3935:3936   */\n      0x00\n        /* \"#utility.yul\":3932:3933   */\n      dup1\n        /* \"#utility.yul\":3925:3937   */\n      revert\n        /* \"#utility.yul\":3949:4066   */\n    tag_103:\n        /* \"#utility.yul\":4058:4059   */\n      0x00\n        /* \"#utility.yul\":4055:4056   */\n      dup1\n        /* \"#utility.yul\":4048:4060   */\n      revert\n        /* \"#utility.yul\":4072:4252   */\n    tag_104:\n        /* \"#utility.yul\":4120:4197   */\n      0x4e487b7100000000000000000000000000000000000000000000000000000000\n        /* \"#utility.yul\":4117:4118   */\n      0x00\n        /* \"#utility.yul\":4110:4198   */\n      mstore\n        /* \"#utility.yul\":4217:4221   */\n      0x41\n        /* \"#utility.yul\":4214:4215   */\n      0x04\n        /* \"#utility.yul\":4207:4222   */\n      mstore\n        /* \"#utility.yul\":4241:4245   */\n      0x24\n        /* \"#utility.yul\":4238:4239   */\n      0x00\n        /* \"#utility.yul\":4231:4246   */\n      revert\n        /* \"#utility.yul\":4258:4539   */\n    tag_105:\n        /* \"#utility.yul\":4341:4368   */\n      tag_193\n        /* \"#utility.yul\":4363:4367   */\n      dup3\n        /* \"#utility.yul\":4341:4368   */\n      tag_99\n      jump\t// in\n    tag_193:\n        /* \"#utility.yul\":4333:4339   */\n      dup2\n        /* \"#utility.yul\":4329:4369   */\n      add\n        /* \"#utility.yul\":4471:4477   */\n      dup2\n        /* \"#utility.yul\":4459:4469   */\n      dup2\n        /* \"#utility.yul\":4456:4478   */\n      lt\n        /* \"#utility.yul\":4435:4453   */\n      0xffffffffffffffff\n        /* \"#utility.yul\":4423:4433   */\n      dup3\n        /* \"#utility.yul\":4420:4454   */\n      gt\n        /* \"#utility.yul\":4417:4479   */\n      or\n        /* \"#utility.yul\":4414:4502   */\n      iszero\n      tag_194\n      jumpi\n        /* \"#utility.yul\":4482:4500   */\n      tag_195\n      tag_104\n      jump\t// in\n    tag_195:\n        /* \"#utility.yul\":4414:4502   */\n    tag_194:\n        /* \"#utility.yul\":4522:4532   */\n      dup1\n        /* \"#utility.yul\":4518:4520   */\n      0x40\n        /* \"#utility.yul\":4511:4533   */\n      mstore\n        /* \"#utility.yul\":4301:4539   */\n      pop\n        /* \"#utility.yul\":4258:4539   */\n      pop\n      pop\n      jump\t// out\n        /* \"#utility.yul\":4545:4674   */\n    tag_106:\n        /* \"#utility.yul\":4579:4585   */\n      0x00\n        /* \"#utility.yul\":4606:4626   */\n      tag_197\n      tag_85\n      jump\t// in\n    tag_197:\n        /* \"#utility.yul\":4596:4626   */\n      swap1\n      pop\n        /* \"#utility.yul\":4635:4668   */\n      tag_198\n        /* \"#utility.yul\":4663:4667   */\n      dup3\n        /* \"#utility.yul\":4655:4661   */\n      dup3\n        /* \"#utility.yul\":4635:4668   */\n      tag_105\n      jump\t// in\n    tag_198:\n        /* \"#utility.yul\":4545:4674   */\n      swap2\n      swap1\n      pop\n      jump\t// out\n        /* \"#utility.yul\":4680:4988   */\n    tag_107:\n        /* \"#utility.yul\":4742:4746   */\n      0x00\n        /* \"#utility.yul\":4832:4850   */\n      0xffffffffffffffff\n        /* \"#utility.yul\":4824:4830   */\n      dup3\n        /* \"#utility.yul\":4821:4851   */\n      gt\n        /* \"#utility.yul\":4818:4874   */\n      iszero\n      tag_200\n      jumpi\n        /* \"#utility.yul\":4854:4872   */\n      tag_201\n      tag_104\n      jump\t// in\n    tag_201:\n        /* \"#utility.yul\":4818:4874   */\n    tag_200:\n        /* \"#utility.yul\":4892:4921   */\n      tag_202\n        /* \"#utility.yul\":4914:4920   */\n      dup3\n        /* \"#utility.yul\":4892:4921   */\n      tag_99\n      jump\t// in\n    tag_202:\n        /* \"#utility.yul\":4884:4921   */\n      swap1\n      pop\n        /* \"#utility.yul\":4976:4980   */\n      0x20\n        /* \"#utility.yul\":4970:4974   */\n      dup2\n        /* \"#utility.yul\":4966:4981   */\n      add\n        /* \"#utility.yul\":4958:4981   */\n      swap1\n      pop\n        /* \"#utility.yul\":4680:4988   */\n      swap2\n      swap1\n      pop\n      jump\t// out\n        /* \"#utility.yul\":4994:5140   */\n    tag_108:\n        /* \"#utility.yul\":5091:5097   */\n      dup3\n        /* \"#utility.yul\":5086:5089   */\n      dup2\n        /* \"#utility.yul\":5081:5084   */\n      dup4\n        /* \"#utility.yul\":5068:5098   */\n      calldatacopy\n        /* \"#utility.yul\":5132:5133   */\n      0x00\n        /* \"#utility.yul\":5123:5129   */\n      dup4\n        /* \"#utility.yul\":5118:5121   */\n      dup4\n        /* \"#utility.yul\":5114:5130   */\n      add\n        /* \"#utility.yul\":5107:5134   */\n      mstore\n        /* \"#utility.yul\":4994:5140   */\n      pop\n      pop\n      pop\n      jump\t// out\n        /* \"#utility.yul\":5146:5571   */\n    tag_109:\n        /* \"#utility.yul\":5224:5229   */\n      0x00\n        /* \"#utility.yul\":5249:5315   */\n      tag_205\n        /* \"#utility.yul\":5265:5314   */\n      tag_206\n        /* \"#utility.yul\":5307:5313   */\n      dup5\n        /* \"#utility.yul\":5265:5314   */\n      tag_107\n      jump\t// in\n    tag_206:\n        /* \"#utility.yul\":5249:5315   */\n      tag_106\n      jump\t// in\n    tag_205:\n        /* \"#utility.yul\":5240:5315   */\n      swap1\n      pop\n        /* \"#utility.yul\":5338:5344   */\n      dup3\n        /* \"#utility.yul\":5331:5336   */\n      dup2\n        /* \"#utility.yul\":5324:5345   */\n      mstore\n        /* \"#utility.yul\":5376:5380   */\n      0x20\n        /* \"#utility.yul\":5369:5374   */\n      dup2\n        /* \"#utility.yul\":5365:5381   */\n      add\n        /* \"#utility.yul\":5414:5417   */\n      dup5\n        /* \"#utility.yul\":5405:5411   */\n      dup5\n        /* \"#utility.yul\":5400:5403   */\n      dup5\n        /* \"#utility.yul\":5396:5412   */\n      add\n        /* \"#utility.yul\":5393:5418   */\n      gt\n        /* \"#utility.yul\":5390:5502   */\n      iszero\n      tag_207\n      jumpi\n        /* \"#utility.yul\":5421:5500   */\n      tag_208\n      tag_103\n      jump\t// in\n    tag_208:\n        /* \"#utility.yul\":5390:5502   */\n    tag_207:\n        /* \"#utility.yul\":5511:5565   */\n      tag_209\n        /* \"#utility.yul\":5558:5564   */\n      dup5\n        /* \"#utility.yul\":5553:5556   */\n      dup3\n        /* \"#utility.yul\":5548:5551   */\n      dup6\n        /* \"#utility.yul\":5511:5565   */\n      tag_108\n      jump\t// in\n    tag_209:\n        /* \"#utility.yul\":5230:5571   */\n      pop\n        /* \"#utility.yul\":5146:5571   */\n      swap4\n      swap3\n      pop\n      pop\n      pop\n      jump\t// out\n        /* \"#utility.yul\":5591:5931   */\n    tag_110:\n        /* \"#utility.yul\":5647:5652   */\n      0x00\n        /* \"#utility.yul\":5696:5699   */\n      dup3\n        /* \"#utility.yul\":5689:5693   */\n      0x1f\n        /* \"#utility.yul\":5681:5687   */\n      dup4\n        /* \"#utility.yul\":5677:5694   */\n      add\n        /* \"#utility.yul\":5673:5700   */\n      slt\n        /* \"#utility.yul\":5663:5785   */\n      tag_211\n      jumpi\n        /* \"#utility.yul\":5704:5783   */\n      tag_212\n      tag_102\n      jump\t// in\n    tag_212:\n        /* \"#utility.yul\":5663:5785   */\n    tag_211:\n        /* \"#utility.yul\":5821:5827   */\n      dup2\n        /* \"#utility.yul\":5808:5828   */\n      calldataload\n        /* \"#utility.yul\":5846:5925   */\n      tag_213\n        /* \"#utility.yul\":5921:5924   */\n      dup5\n        /* \"#utility.yul\":5913:5919   */\n      dup3\n        /* \"#utility.yul\":5906:5910   */\n      0x20\n        /* \"#utility.yul\":5898:5904   */\n      dup7\n        /* \"#utility.yul\":5894:5911   */\n      add\n        /* \"#utility.yul\":5846:5925   */\n      tag_109\n      jump\t// in\n    tag_213:\n        /* \"#utility.yul\":5837:5925   */\n      swap2\n      pop\n        /* \"#utility.yul\":5653:5931   */\n      pop\n        /* \"#utility.yul\":5591:5931   */\n      swap3\n      swap2\n      pop\n      pop\n      jump\t// out\n        /* \"#utility.yul\":5937:6446   */\n    tag_23:\n        /* \"#utility.yul\":6006:6012   */\n      0x00\n        /* \"#utility.yul\":6055:6057   */\n      0x20\n        /* \"#utility.yul\":6043:6052   */\n      dup3\n        /* \"#utility.yul\":6034:6041   */\n      dup5\n        /* \"#utility.yul\":6030:6053   */\n      sub\n        /* \"#utility.yul\":6026:6058   */\n      slt\n        /* \"#utility.yul\":6023:6142   */\n      iszero\n      tag_215\n      jumpi\n        /* \"#utility.yul\":6061:6140   */\n      tag_216\n      tag_86\n      jump\t// in\n    tag_216:\n        /* \"#utility.yul\":6023:6142   */\n    tag_215:\n        /* \"#utility.yul\":6209:6210   */\n      0x00\n        /* \"#utility.yul\":6198:6207   */\n      dup3\n        /* \"#utility.yul\":6194:6211   */\n      add\n        /* \"#utility.yul\":6181:6212   */\n      calldataload\n        /* \"#utility.yul\":6239:6257   */\n      0xffffffffffffffff\n        /* \"#utility.yul\":6231:6237   */\n      dup2\n        /* \"#utility.yul\":6228:6258   */\n      gt\n        /* \"#utility.yul\":6225:6342   */\n      iszero\n      tag_217\n      jumpi\n        /* \"#utility.yul\":6261:6340   */\n      tag_218\n      tag_87\n      jump\t// in\n    tag_218:\n        /* \"#utility.yul\":6225:6342   */\n    tag_217:\n        /* \"#utility.yul\":6366:6429   */\n      tag_219\n        /* \"#utility.yul\":6421:6428   */\n      dup5\n        /* \"#utility.yul\":6412:6418   */\n      dup3\n        /* \"#utility.yul\":6401:6410   */\n      dup6\n        /* \"#utility.yul\":6397:6419   */\n      add\n        /* \"#utility.yul\":6366:6429   */\n      tag_110\n      jump\t// in\n    tag_219:\n        /* \"#utility.yul\":6356:6429   */\n      swap2\n      pop\n        /* \"#utility.yul\":6152:6439   */\n      pop\n        /* \"#utility.yul\":5937:6446   */\n      swap3\n      swap2\n      pop\n      pop\n      jump\t// out\n        /* \"#utility.yul\":6452:6781   */\n    tag_27:\n        /* \"#utility.yul\":6511:6517   */\n      0x00\n        /* \"#utility.yul\":6560:6562   */\n      0x20\n        /* \"#utility.yul\":6548:6557   */\n      dup3\n        /* \"#utility.yul\":6539:6546   */\n      dup5\n        /* \"#utility.yul\":6535:6558   */\n      sub\n        /* \"#utility.yul\":6531:6563   */\n      slt\n        /* \"#utility.yul\":6528:6647   */\n      iszero\n      tag_221\n      jumpi\n        /* \"#utility.yul\":6566:6645   */\n      tag_222\n      tag_86\n      jump\t// in\n    tag_222:\n        /* \"#utility.yul\":6528:6647   */\n    tag_221:\n        /* \"#utility.yul\":6686:6687   */\n      0x00\n        /* \"#utility.yul\":6711:6764   */\n      tag_223\n        /* \"#utility.yul\":6756:6763   */\n      dup5\n        /* \"#utility.yul\":6747:6753   */\n      dup3\n        /* \"#utility.yul\":6736:6745   */\n      dup6\n        /* \"#utility.yul\":6732:6754   */\n      add\n        /* \"#utility.yul\":6711:6764   */\n      tag_94\n      jump\t// in\n    tag_223:\n        /* \"#utility.yul\":6701:6764   */\n      swap2\n      pop\n        /* \"#utility.yul\":6657:6774   */\n      pop\n        /* \"#utility.yul\":6452:6781   */\n      swap3\n      swap2\n      pop\n      pop\n      jump\t// out\n        /* \"#utility.yul\":6787:7009   */\n    tag_32:\n        /* \"#utility.yul\":6880:6884   */\n      0x00\n        /* \"#utility.yul\":6918:6920   */\n      0x20\n        /* \"#utility.yul\":6907:6916   */\n      dup3\n        /* \"#utility.yul\":6903:6921   */\n      add\n        /* \"#utility.yul\":6895:6921   */\n      swap1\n      pop\n        /* \"#utility.yul\":6931:7002   */\n      tag_225\n        /* \"#utility.yul\":6999:7000   */\n      0x00\n        /* \"#utility.yul\":6988:6997   */\n      dup4\n        /* \"#utility.yul\":6984:7001   */\n      add\n        /* \"#utility.yul\":6975:6981   */\n      dup5\n        /* \"#utility.yul\":6931:7002   */\n      tag_95\n      jump\t// in\n    tag_225:\n        /* \"#utility.yul\":6787:7009   */\n      swap3\n      swap2\n      pop\n      pop\n      jump\t// out\n        /* \"#utility.yul\":7015:7344   */\n    tag_35:\n        /* \"#utility.yul\":7074:7080   */\n      0x00\n        /* \"#utility.yul\":7123:7125   */\n      0x20\n        /* \"#utility.yul\":7111:7120   */\n      dup3\n        /* \"#utility.yul\":7102:7109   */\n      dup5\n        /* \"#utility.yul\":7098:7121   */\n      sub\n        /* \"#utility.yul\":7094:7126   */\n      slt\n        /* \"#utility.yul\":7091:7210   */\n      iszero\n      tag_227\n      jumpi\n        /* \"#utility.yul\":7129:7208   */\n      tag_228\n      tag_86\n      jump\t// in\n    tag_228:\n        /* \"#utility.yul\":7091:7210   */\n    tag_227:\n        /* \"#utility.yul\":7249:7250   */\n      0x00\n        /* \"#utility.yul\":7274:7327   */\n      tag_229\n        /* \"#utility.yul\":7319:7326   */\n      dup5\n        /* \"#utility.yul\":7310:7316   */\n      dup3\n        /* \"#utility.yul\":7299:7308   */\n      dup6\n        /* \"#utility.yul\":7295:7317   */\n      add\n        /* \"#utility.yul\":7274:7327   */\n      tag_91\n      jump\t// in\n    tag_229:\n        /* \"#utility.yul\":7264:7327   */\n      swap2\n      pop\n        /* \"#utility.yul\":7220:7337   */\n      pop\n        /* \"#utility.yul\":7015:7344   */\n      swap3\n      swap2\n      pop\n      pop\n      jump\t// out\n        /* \"#utility.yul\":7350:7485   */\n    tag_111:\n        /* \"#utility.yul\":7438:7444   */\n      0x00\n        /* \"#utility.yul\":7472:7477   */\n      dup2\n        /* \"#utility.yul\":7466:7478   */\n      mload\n        /* \"#utility.yul\":7456:7478   */\n      swap1\n      pop\n        /* \"#utility.yul\":7350:7485   */\n      swap2\n      swap1\n      pop\n      jump\t// out\n        /* \"#utility.yul\":7491:7696   */\n    tag_112:\n        /* \"#utility.yul\":7611:7622   */\n      0x00\n        /* \"#utility.yul\":7645:7651   */\n      dup3\n        /* \"#utility.yul\":7640:7643   */\n      dup3\n        /* \"#utility.yul\":7633:7652   */\n      mstore\n        /* \"#utility.yul\":7685:7689   */\n      0x20\n        /* \"#utility.yul\":7680:7683   */\n      dup3\n        /* \"#utility.yul\":7676:7690   */\n      add\n        /* \"#utility.yul\":7661:7690   */\n      swap1\n      pop\n        /* \"#utility.yul\":7491:7696   */\n      swap3\n      swap2\n      pop\n      pop\n      jump\t// out\n        /* \"#utility.yul\":7702:7855   */\n    tag_113:\n        /* \"#utility.yul\":7790:7794   */\n      0x00\n        /* \"#utility.yul\":7813:7816   */\n      dup2\n        /* \"#utility.yul\":7805:7816   */\n      swap1\n      pop\n        /* \"#utility.yul\":7843:7847   */\n      0x20\n        /* \"#utility.yul\":7838:7841   */\n      dup3\n        /* \"#utility.yul\":7834:7848   */\n      add\n        /* \"#utility.yul\":7826:7848   */\n      swap1\n      pop\n        /* \"#utility.yul\":7702:7855   */\n      swap2\n      swap1\n      pop\n      jump\t// out\n        /* \"#utility.yul\":7861:7969   */\n    tag_114:\n        /* \"#utility.yul\":7938:7962   */\n      tag_234\n        /* \"#utility.yul\":7956:7961   */\n      dup2\n        /* \"#utility.yul\":7938:7962   */\n      tag_89\n      jump\t// in\n    tag_234:\n        /* \"#utility.yul\":7933:7936   */\n      dup3\n        /* \"#utility.yul\":7926:7963   */\n      mstore\n        /* \"#utility.yul\":7861:7969   */\n      pop\n      pop\n      jump\t// out\n        /* \"#utility.yul\":7975:8134   */\n    tag_115:\n        /* \"#utility.yul\":8049:8060   */\n      0x00\n        /* \"#utility.yul\":8083:8089   */\n      dup3\n        /* \"#utility.yul\":8078:8081   */\n      dup3\n        /* \"#utility.yul\":8071:8090   */\n      mstore\n        /* \"#utility.yul\":8123:8127   */\n      0x20\n        /* \"#utility.yul\":8118:8121   */\n      dup3\n        /* \"#utility.yul\":8114:8128   */\n      add\n        /* \"#utility.yul\":8099:8128   */\n      swap1\n      pop\n        /* \"#utility.yul\":7975:8134   */\n      swap3\n      swap2\n      pop\n      pop\n      jump\t// out\n        /* \"#utility.yul\":8140:8497   */\n    tag_116:\n        /* \"#utility.yul\":8218:8221   */\n      0x00\n        /* \"#utility.yul\":8246:8285   */\n      tag_237\n        /* \"#utility.yul\":8279:8284   */\n      dup3\n        /* \"#utility.yul\":8246:8285   */\n      tag_96\n      jump\t// in\n    tag_237:\n        /* \"#utility.yul\":8301:8362   */\n      tag_238\n        /* \"#utility.yul\":8355:8361   */\n      dup2\n        /* \"#utility.yul\":8350:8353   */\n      dup6\n        /* \"#utility.yul\":8301:8362   */\n      tag_115\n      jump\t// in\n    tag_238:\n        /* \"#utility.yul\":8294:8362   */\n      swap4\n      pop\n        /* \"#utility.yul\":8371:8436   */\n      tag_239\n        /* \"#utility.yul\":8429:8435   */\n      dup2\n        /* \"#utility.yul\":8424:8427   */\n      dup6\n        /* \"#utility.yul\":8417:8421   */\n      0x20\n        /* \"#utility.yul\":8410:8415   */\n      dup7\n        /* \"#utility.yul\":8406:8422   */\n      add\n        /* \"#utility.yul\":8371:8436   */\n      tag_98\n      jump\t// in\n    tag_239:\n        /* \"#utility.yul\":8461:8490   */\n      tag_240\n        /* \"#utility.yul\":8483:8489   */\n      dup2\n        /* \"#utility.yul\":8461:8490   */\n      tag_99\n      jump\t// in\n    tag_240:\n        /* \"#utility.yul\":8456:8459   */\n      dup5\n        /* \"#utility.yul\":8452:8491   */\n      add\n        /* \"#utility.yul\":8445:8491   */\n      swap2\n      pop\n        /* \"#utility.yul\":8222:8497   */\n      pop\n        /* \"#utility.yul\":8140:8497   */\n      swap3\n      swap2\n      pop\n      pop\n      jump\t// out\n        /* \"#utility.yul\":8503:8611   */\n    tag_117:\n        /* \"#utility.yul\":8580:8604   */\n      tag_242\n        /* \"#utility.yul\":8598:8603   */\n      dup2\n        /* \"#utility.yul\":8580:8604   */\n      tag_92\n      jump\t// in\n    tag_242:\n        /* \"#utility.yul\":8575:8578   */\n      dup3\n        /* \"#utility.yul\":8568:8605   */\n      mstore\n        /* \"#utility.yul\":8503:8611   */\n      pop\n      pop\n      jump\t// out\n        /* \"#utility.yul\":8669:9616   */\n    tag_118:\n        /* \"#utility.yul\":8770:8773   */\n      0x00\n        /* \"#utility.yul\":8806:8810   */\n      0x80\n        /* \"#utility.yul\":8801:8804   */\n      dup4\n        /* \"#utility.yul\":8797:8811   */\n      add\n        /* \"#utility.yul\":8895:8899   */\n      0x00\n        /* \"#utility.yul\":8888:8893   */\n      dup4\n        /* \"#utility.yul\":8884:8900   */\n      add\n        /* \"#utility.yul\":8878:8901   */\n      mload\n        /* \"#utility.yul\":8914:8977   */\n      tag_244\n        /* \"#utility.yul\":8971:8975   */\n      0x00\n        /* \"#utility.yul\":8966:8969   */\n      dup7\n        /* \"#utility.yul\":8962:8976   */\n      add\n        /* \"#utility.yul\":8948:8960   */\n      dup3\n        /* \"#utility.yul\":8914:8977   */\n      tag_114\n      jump\t// in\n    tag_244:\n        /* \"#utility.yul\":8821:8987   */\n      pop\n        /* \"#utility.yul\":9072:9076   */\n      0x20\n        /* \"#utility.yul\":9065:9070   */\n      dup4\n        /* \"#utility.yul\":9061:9077   */\n      add\n        /* \"#utility.yul\":9055:9078   */\n      mload\n        /* \"#utility.yul\":9125:9128   */\n      dup5\n        /* \"#utility.yul\":9119:9123   */\n      dup3\n        /* \"#utility.yul\":9115:9129   */\n      sub\n        /* \"#utility.yul\":9108:9112   */\n      0x20\n        /* \"#utility.yul\":9103:9106   */\n      dup7\n        /* \"#utility.yul\":9099:9113   */\n      add\n        /* \"#utility.yul\":9092:9130   */\n      mstore\n        /* \"#utility.yul\":9151:9224   */\n      tag_245\n        /* \"#utility.yul\":9219:9223   */\n      dup3\n        /* \"#utility.yul\":9205:9217   */\n      dup3\n        /* \"#utility.yul\":9151:9224   */\n      tag_116\n      jump\t// in\n    tag_245:\n        /* \"#utility.yul\":9143:9224   */\n      swap2\n      pop\n        /* \"#utility.yul\":8997:9235   */\n      pop\n        /* \"#utility.yul\":9322:9326   */\n      0x40\n        /* \"#utility.yul\":9315:9320   */\n      dup4\n        /* \"#utility.yul\":9311:9327   */\n      add\n        /* \"#utility.yul\":9305:9328   */\n      mload\n        /* \"#utility.yul\":9341:9404   */\n      tag_246\n        /* \"#utility.yul\":9398:9402   */\n      0x40\n        /* \"#utility.yul\":9393:9396   */\n      dup7\n        /* \"#utility.yul\":9389:9403   */\n      add\n        /* \"#utility.yul\":9375:9387   */\n      dup3\n        /* \"#utility.yul\":9341:9404   */\n      tag_117\n      jump\t// in\n    tag_246:\n        /* \"#utility.yul\":9245:9414   */\n      pop\n        /* \"#utility.yul\":9497:9501   */\n      0x60\n        /* \"#utility.yul\":9490:9495   */\n      dup4\n        /* \"#utility.yul\":9486:9502   */\n      add\n        /* \"#utility.yul\":9480:9503   */\n      mload\n        /* \"#utility.yul\":9516:9579   */\n      tag_247\n        /* \"#utility.yul\":9573:9577   */\n      0x60\n        /* \"#utility.yul\":9568:9571   */\n      dup7\n        /* \"#utility.yul\":9564:9578   */\n      add\n        /* \"#utility.yul\":9550:9562   */\n      dup3\n        /* \"#utility.yul\":9516:9579   */\n      tag_117\n      jump\t// in\n    tag_247:\n        /* \"#utility.yul\":9424:9589   */\n      pop\n        /* \"#utility.yul\":9606:9610   */\n      dup1\n        /* \"#utility.yul\":9599:9610   */\n      swap2\n      pop\n        /* \"#utility.yul\":8775:9616   */\n      pop\n        /* \"#utility.yul\":8669:9616   */\n      swap3\n      swap2\n      pop\n      pop\n      jump\t// out\n        /* \"#utility.yul\":9622:9862   */\n    tag_119:\n        /* \"#utility.yul\":9733:9743   */\n      0x00\n        /* \"#utility.yul\":9768:9856   */\n      tag_249\n        /* \"#utility.yul\":9852:9855   */\n      dup4\n        /* \"#utility.yul\":9844:9850   */\n      dup4\n        /* \"#utility.yul\":9768:9856   */\n      tag_118\n      jump\t// in\n    tag_249:\n        /* \"#utility.yul\":9754:9856   */\n      swap1\n      pop\n        /* \"#utility.yul\":9622:9862   */\n      swap3\n      swap2\n      pop\n      pop\n      jump\t// out\n        /* \"#utility.yul\":9868:10002   */\n    tag_120:\n        /* \"#utility.yul\":9959:9963   */\n      0x00\n        /* \"#utility.yul\":9991:9995   */\n      0x20\n        /* \"#utility.yul\":9986:9989   */\n      dup3\n        /* \"#utility.yul\":9982:9996   */\n      add\n        /* \"#utility.yul\":9974:9996   */\n      swap1\n      pop\n        /* \"#utility.yul\":9868:10002   */\n      swap2\n      swap1\n      pop\n      jump\t// out\n        /* \"#utility.yul\":10064:11143   */\n    tag_121:\n        /* \"#utility.yul\":10225:10228   */\n      0x00\n        /* \"#utility.yul\":10254:10329   */\n      tag_252\n        /* \"#utility.yul\":10323:10328   */\n      dup3\n        /* \"#utility.yul\":10254:10329   */\n      tag_111\n      jump\t// in\n    tag_252:\n        /* \"#utility.yul\":10345:10452   */\n      tag_253\n        /* \"#utility.yul\":10445:10451   */\n      dup2\n        /* \"#utility.yul\":10440:10443   */\n      dup6\n        /* \"#utility.yul\":10345:10452   */\n      tag_112\n      jump\t// in\n    tag_253:\n        /* \"#utility.yul\":10338:10452   */\n      swap4\n      pop\n        /* \"#utility.yul\":10478:10481   */\n      dup4\n        /* \"#utility.yul\":10523:10527   */\n      0x20\n        /* \"#utility.yul\":10515:10521   */\n      dup3\n        /* \"#utility.yul\":10511:10528   */\n      mul\n        /* \"#utility.yul\":10506:10509   */\n      dup6\n        /* \"#utility.yul\":10502:10529   */\n      add\n        /* \"#utility.yul\":10553:10630   */\n      tag_254\n        /* \"#utility.yul\":10624:10629   */\n      dup6\n        /* \"#utility.yul\":10553:10630   */\n      tag_113\n      jump\t// in\n    tag_254:\n        /* \"#utility.yul\":10653:10660   */\n      dup1\n        /* \"#utility.yul\":10684:10685   */\n      0x00\n        /* \"#utility.yul\":10669:11098   */\n    tag_255:\n        /* \"#utility.yul\":10694:10700   */\n      dup6\n        /* \"#utility.yul\":10691:10692   */\n      dup2\n        /* \"#utility.yul\":10688:10701   */\n      lt\n        /* \"#utility.yul\":10669:11098   */\n      iszero\n      tag_257\n      jumpi\n        /* \"#utility.yul\":10765:10774   */\n      dup5\n        /* \"#utility.yul\":10759:10763   */\n      dup5\n        /* \"#utility.yul\":10755:10775   */\n      sub\n        /* \"#utility.yul\":10750:10753   */\n      dup10\n        /* \"#utility.yul\":10743:10776   */\n      mstore\n        /* \"#utility.yul\":10816:10822   */\n      dup2\n        /* \"#utility.yul\":10810:10823   */\n      mload\n        /* \"#utility.yul\":10844:10950   */\n      tag_258\n        /* \"#utility.yul\":10945:10949   */\n      dup6\n        /* \"#utility.yul\":10930:10943   */\n      dup3\n        /* \"#utility.yul\":10844:10950   */\n      tag_119\n      jump\t// in\n    tag_258:\n        /* \"#utility.yul\":10836:10950   */\n      swap5\n      pop\n        /* \"#utility.yul\":10973:11054   */\n      tag_259\n        /* \"#utility.yul\":11047:11053   */\n      dup4\n        /* \"#utility.yul\":10973:11054   */\n      tag_120\n      jump\t// in\n    tag_259:\n        /* \"#utility.yul\":10963:11054   */\n      swap3\n      pop\n        /* \"#utility.yul\":11083:11087   */\n      0x20\n        /* \"#utility.yul\":11078:11081   */\n      dup11\n        /* \"#utility.yul\":11074:11088   */\n      add\n        /* \"#utility.yul\":11067:11088   */\n      swap10\n      pop\n        /* \"#utility.yul\":10729:11098   */\n      pop\n        /* \"#utility.yul\":10716:10717   */\n      0x01\n        /* \"#utility.yul\":10713:10714   */\n      dup2\n        /* \"#utility.yul\":10709:10718   */\n      add\n        /* \"#utility.yul\":10704:10718   */\n      swap1\n      pop\n        /* \"#utility.yul\":10669:11098   */\n      jump(tag_255)\n    tag_257:\n        /* \"#utility.yul\":10673:10687   */\n      pop\n        /* \"#utility.yul\":11114:11118   */\n      dup3\n        /* \"#utility.yul\":11107:11118   */\n      swap8\n      pop\n        /* \"#utility.yul\":11134:11137   */\n      dup8\n        /* \"#utility.yul\":11127:11137   */\n      swap6\n      pop\n        /* \"#utility.yul\":10230:11143   */\n      pop\n      pop\n      pop\n      pop\n      pop\n        /* \"#utility.yul\":10064:11143   */\n      swap3\n      swap2\n      pop\n      pop\n      jump\t// out\n        /* \"#utility.yul\":11149:11606   */\n    tag_38:\n        /* \"#utility.yul\":11334:11338   */\n      0x00\n        /* \"#utility.yul\":11372:11374   */\n      0x20\n        /* \"#utility.yul\":11361:11370   */\n      dup3\n        /* \"#utility.yul\":11357:11375   */\n      add\n        /* \"#utility.yul\":11349:11375   */\n      swap1\n      pop\n        /* \"#utility.yul\":11421:11430   */\n      dup2\n        /* \"#utility.yul\":11415:11419   */\n      dup2\n        /* \"#utility.yul\":11411:11431   */\n      sub\n        /* \"#utility.yul\":11407:11408   */\n      0x00\n        /* \"#utility.yul\":11396:11405   */\n      dup4\n        /* \"#utility.yul\":11392:11409   */\n      add\n        /* \"#utility.yul\":11385:11432   */\n      mstore\n        /* \"#utility.yul\":11449:11599   */\n      tag_261\n        /* \"#utility.yul\":11594:11598   */\n      dup2\n        /* \"#utility.yul\":11585:11591   */\n      dup5\n        /* \"#utility.yul\":11449:11599   */\n      tag_121\n      jump\t// in\n    tag_261:\n        /* \"#utility.yul\":11441:11599   */\n      swap1\n      pop\n        /* \"#utility.yul\":11149:11606   */\n      swap3\n      swap2\n      pop\n      pop\n      jump\t// out\n        /* \"#utility.yul\":11664:12621   */\n    tag_122:\n        /* \"#utility.yul\":11775:11778   */\n      0x00\n        /* \"#utility.yul\":11811:11815   */\n      0x80\n        /* \"#utility.yul\":11806:11809   */\n      dup4\n        /* \"#utility.yul\":11802:11816   */\n      add\n        /* \"#utility.yul\":11900:11904   */\n      0x00\n        /* \"#utility.yul\":11893:11898   */\n      dup4\n        /* \"#utility.yul\":11889:11905   */\n      add\n        /* \"#utility.yul\":11883:11906   */\n      mload\n        /* \"#utility.yul\":11919:11982   */\n      tag_263\n        /* \"#utility.yul\":11976:11980   */\n      0x00\n        /* \"#utility.yul\":11971:11974   */\n      dup7\n        /* \"#utility.yul\":11967:11981   */\n      add\n        /* \"#utility.yul\":11953:11965   */\n      dup3\n        /* \"#utility.yul\":11919:11982   */\n      tag_114\n      jump\t// in\n    tag_263:\n        /* \"#utility.yul\":11826:11992   */\n      pop\n        /* \"#utility.yul\":12077:12081   */\n      0x20\n        /* \"#utility.yul\":12070:12075   */\n      dup4\n        /* \"#utility.yul\":12066:12082   */\n      add\n        /* \"#utility.yul\":12060:12083   */\n      mload\n        /* \"#utility.yul\":12130:12133   */\n      dup5\n        /* \"#utility.yul\":12124:12128   */\n      dup3\n        /* \"#utility.yul\":12120:12134   */\n      sub\n        /* \"#utility.yul\":12113:12117   */\n      0x20\n        /* \"#utility.yul\":12108:12111   */\n      dup7\n        /* \"#utility.yul\":12104:12118   */\n      add\n        /* \"#utility.yul\":12097:12135   */\n      mstore\n        /* \"#utility.yul\":12156:12229   */\n      tag_264\n        /* \"#utility.yul\":12224:12228   */\n      dup3\n        /* \"#utility.yul\":12210:12222   */\n      dup3\n        /* \"#utility.yul\":12156:12229   */\n      tag_116\n      jump\t// in\n    tag_264:\n        /* \"#utility.yul\":12148:12229   */\n      swap2\n      pop\n        /* \"#utility.yul\":12002:12240   */\n      pop\n        /* \"#utility.yul\":12327:12331   */\n      0x40\n        /* \"#utility.yul\":12320:12325   */\n      dup4\n        /* \"#utility.yul\":12316:12332   */\n      add\n        /* \"#utility.yul\":12310:12333   */\n      mload\n        /* \"#utility.yul\":12346:12409   */\n      tag_265\n        /* \"#utility.yul\":12403:12407   */\n      0x40\n        /* \"#utility.yul\":12398:12401   */\n      dup7\n        /* \"#utility.yul\":12394:12408   */\n      add\n        /* \"#utility.yul\":12380:12392   */\n      dup3\n        /* \"#utility.yul\":12346:12409   */\n      tag_117\n      jump\t// in\n    tag_265:\n        /* \"#utility.yul\":12250:12419   */\n      pop\n        /* \"#utility.yul\":12502:12506   */\n      0x60\n        /* \"#utility.yul\":12495:12500   */\n      dup4\n        /* \"#utility.yul\":12491:12507   */\n      add\n        /* \"#utility.yul\":12485:12508   */\n      mload\n        /* \"#utility.yul\":12521:12584   */\n      tag_266\n        /* \"#utility.yul\":12578:12582   */\n      0x60\n        /* \"#utility.yul\":12573:12576   */\n      dup7\n        /* \"#utility.yul\":12569:12583   */\n      add\n        /* \"#utility.yul\":12555:12567   */\n      dup3\n        /* \"#utility.yul\":12521:12584   */\n      tag_117\n      jump\t// in\n    tag_266:\n        /* \"#utility.yul\":12429:12594   */\n      pop\n        /* \"#utility.yul\":12611:12615   */\n      dup1\n        /* \"#utility.yul\":12604:12615   */\n      swap2\n      pop\n        /* \"#utility.yul\":11780:12621   */\n      pop\n        /* \"#utility.yul\":11664:12621   */\n      swap3\n      swap2\n      pop\n      pop\n      jump\t// out\n        /* \"#utility.yul\":12627:12984   */\n    tag_43:\n        /* \"#utility.yul\":12762:12766   */\n      0x00\n        /* \"#utility.yul\":12800:12802   */\n      0x20\n        /* \"#utility.yul\":12789:12798   */\n      dup3\n        /* \"#utility.yul\":12785:12803   */\n      add\n        /* \"#utility.yul\":12777:12803   */\n      swap1\n      pop\n        /* \"#utility.yul\":12849:12858   */\n      dup2\n        /* \"#utility.yul\":12843:12847   */\n      dup2\n        /* \"#utility.yul\":12839:12859   */\n      sub\n        /* \"#utility.yul\":12835:12836   */\n      0x00\n        /* \"#utility.yul\":12824:12833   */\n      dup4\n        /* \"#utility.yul\":12820:12837   */\n      add\n        /* \"#utility.yul\":12813:12860   */\n      mstore\n        /* \"#utility.yul\":12877:12977   */\n      tag_268\n        /* \"#utility.yul\":12972:12976   */\n      dup2\n        /* \"#utility.yul\":12963:12969   */\n      dup5\n        /* \"#utility.yul\":12877:12977   */\n      tag_122\n      jump\t// in\n    tag_268:\n        /* \"#utility.yul\":12869:12977   */\n      swap1\n      pop\n        /* \"#utility.yul\":12627:12984   */\n      swap3\n      swap2\n      pop\n      pop\n      jump\t// out\n        /* \"#utility.yul\":12990:13170   */\n    tag_123:\n        /* \"#utility.yul\":13038:13115   */\n      0x4e487b7100000000000000000000000000000000000000000000000000000000\n        /* \"#utility.yul\":13035:13036   */\n      0x00\n        /* \"#utility.yul\":13028:13116   */\n      mstore\n        /* \"#utility.yul\":13135:13139   */\n      0x22\n        /* \"#utility.yul\":13132:13133   */\n      0x04\n        /* \"#utility.yul\":13125:13140   */\n      mstore\n        /* \"#utility.yul\":13159:13163   */\n      0x24\n        /* \"#utility.yul\":13156:13157   */\n      0x00\n        /* \"#utility.yul\":13149:13164   */\n      revert\n        /* \"#utility.yul\":13176:13496   */\n    tag_47:\n        /* \"#utility.yul\":13220:13226   */\n      0x00\n        /* \"#utility.yul\":13257:13258   */\n      0x02\n        /* \"#utility.yul\":13251:13255   */\n      dup3\n        /* \"#utility.yul\":13247:13259   */\n      div\n        /* \"#utility.yul\":13237:13259   */\n      swap1\n      pop\n        /* \"#utility.yul\":13304:13305   */\n      0x01\n        /* \"#utility.yul\":13298:13302   */\n      dup3\n        /* \"#utility.yul\":13294:13306   */\n      and\n        /* \"#utility.yul\":13325:13343   */\n      dup1\n        /* \"#utility.yul\":13315:13396   */\n      tag_271\n      jumpi\n        /* \"#utility.yul\":13381:13385   */\n      0x7f\n        /* \"#utility.yul\":13373:13379   */\n      dup3\n        /* \"#utility.yul\":13369:13386   */\n      and\n        /* \"#utility.yul\":13359:13386   */\n      swap2\n      pop\n        /* \"#utility.yul\":13315:13396   */\n    tag_271:\n        /* \"#utility.yul\":13443:13445   */\n      0x20\n        /* \"#utility.yul\":13435:13441   */\n      dup3\n        /* \"#utility.yul\":13432:13446   */\n      lt\n        /* \"#utility.yul\":13412:13430   */\n      dup2\n        /* \"#utility.yul\":13409:13447   */\n      sub\n        /* \"#utility.yul\":13406:13490   */\n      tag_272\n      jumpi\n        /* \"#utility.yul\":13462:13480   */\n      tag_273\n      tag_123\n      jump\t// in\n    tag_273:\n        /* \"#utility.yul\":13406:13490   */\n    tag_272:\n        /* \"#utility.yul\":13227:13496   */\n      pop\n        /* \"#utility.yul\":13176:13496   */\n      swap2\n      swap1\n      pop\n      jump\t// out\n        /* \"#utility.yul\":13502:13669   */\n    tag_124:\n        /* \"#utility.yul\":13642:13661   */\n      0x547765657420697320746f206c6f6e6721000000000000000000000000000000\n        /* \"#utility.yul\":13638:13639   */\n      0x00\n        /* \"#utility.yul\":13630:13636   */\n      dup3\n        /* \"#utility.yul\":13626:13640   */\n      add\n        /* \"#utility.yul\":13619:13662   */\n      mstore\n        /* \"#utility.yul\":13502:13669   */\n      pop\n      jump\t// out\n        /* \"#utility.yul\":13675:14041   */\n    tag_125:\n        /* \"#utility.yul\":13817:13820   */\n      0x00\n        /* \"#utility.yul\":13838:13905   */\n      tag_276\n        /* \"#utility.yul\":13902:13904   */\n      0x11\n        /* \"#utility.yul\":13897:13900   */\n      dup4\n        /* \"#utility.yul\":13838:13905   */\n      tag_97\n      jump\t// in\n    tag_276:\n        /* \"#utility.yul\":13831:13905   */\n      swap2\n      pop\n        /* \"#utility.yul\":13914:14007   */\n      tag_277\n        /* \"#utility.yul\":14003:14006   */\n      dup3\n        /* \"#utility.yul\":13914:14007   */\n      tag_124\n      jump\t// in\n    tag_277:\n        /* \"#utility.yul\":14032:14034   */\n      0x20\n        /* \"#utility.yul\":14027:14030   */\n      dup3\n        /* \"#utility.yul\":14023:14035   */\n      add\n        /* \"#utility.yul\":14016:14035   */\n      swap1\n      pop\n        /* \"#utility.yul\":13675:14041   */\n      swap2\n      swap1\n      pop\n      jump\t// out\n        /* \"#utility.yul\":14047:14466   */\n    tag_55:\n        /* \"#utility.yul\":14213:14217   */\n      0x00\n        /* \"#utility.yul\":14251:14253   */\n      0x20\n        /* \"#utility.yul\":14240:14249   */\n      dup3\n        /* \"#utility.yul\":14236:14254   */\n      add\n        /* \"#utility.yul\":14228:14254   */\n      swap1\n      pop\n        /* \"#utility.yul\":14300:14309   */\n      dup2\n        /* \"#utility.yul\":14294:14298   */\n      dup2\n        /* \"#utility.yul\":14290:14310   */\n      sub\n        /* \"#utility.yul\":14286:14287   */\n      0x00\n        /* \"#utility.yul\":14275:14284   */\n      dup4\n        /* \"#utility.yul\":14271:14288   */\n      add\n        /* \"#utility.yul\":14264:14311   */\n      mstore\n        /* \"#utility.yul\":14328:14459   */\n      tag_279\n        /* \"#utility.yul\":14454:14458   */\n      dup2\n        /* \"#utility.yul\":14328:14459   */\n      tag_125\n      jump\t// in\n    tag_279:\n        /* \"#utility.yul\":14320:14459   */\n      swap1\n      pop\n        /* \"#utility.yul\":14047:14466   */\n      swap2\n      swap1\n      pop\n      jump\t// out\n        /* \"#utility.yul\":14472:14613   */\n    tag_126:\n        /* \"#utility.yul\":14521:14525   */\n      0x00\n        /* \"#utility.yul\":14544:14547   */\n      dup2\n        /* \"#utility.yul\":14536:14547   */\n      swap1\n      pop\n        /* \"#utility.yul\":14567:14570   */\n      dup2\n        /* \"#utility.yul\":14564:14565   */\n      0x00\n        /* \"#utility.yul\":14557:14571   */\n      mstore\n        /* \"#utility.yul\":14601:14605   */\n      0x20\n        /* \"#utility.yul\":14598:14599   */\n      0x00\n        /* \"#utility.yul\":14588:14606   */\n      keccak256\n        /* \"#utility.yul\":14580:14606   */\n      swap1\n      pop\n        /* \"#utility.yul\":14472:14613   */\n      swap2\n      swap1\n      pop\n      jump\t// out\n        /* \"#utility.yul\":14619:14712   */\n    tag_127:\n        /* \"#utility.yul\":14656:14662   */\n      0x00\n        /* \"#utility.yul\":14703:14705   */\n      0x20\n        /* \"#utility.yul\":14698:14700   */\n      0x1f\n        /* \"#utility.yul\":14691:14696   */\n      dup4\n        /* \"#utility.yul\":14687:14701   */\n      add\n        /* \"#utility.yul\":14683:14706   */\n      div\n        /* \"#utility.yul\":14673:14706   */\n      swap1\n      pop\n        /* \"#utility.yul\":14619:14712   */\n      swap2\n      swap1\n      pop\n      jump\t// out\n        /* \"#utility.yul\":14718:14825   */\n    tag_128:\n        /* \"#utility.yul\":14762:14770   */\n      0x00\n        /* \"#utility.yul\":14812:14817   */\n      dup3\n        /* \"#utility.yul\":14806:14810   */\n      dup3\n        /* \"#utility.yul\":14802:14818   */\n      shl\n        /* \"#utility.yul\":14781:14818   */\n      swap1\n      pop\n        /* \"#utility.yul\":14718:14825   */\n      swap3\n      swap2\n      pop\n      pop\n      jump\t// out\n        /* \"#utility.yul\":14831:15224   */\n    tag_129:\n        /* \"#utility.yul\":14900:14906   */\n      0x00\n        /* \"#utility.yul\":14950:14951   */\n      0x08\n        /* \"#utility.yul\":14938:14948   */\n      dup4\n        /* \"#utility.yul\":14934:14952   */\n      mul\n        /* \"#utility.yul\":14973:15070   */\n      tag_284\n        /* \"#utility.yul\":15003:15069   */\n      0xffffffffffffffffffffffffffffffffffffffffffffffffffffffffffffffff\n        /* \"#utility.yul\":14992:15001   */\n      dup3\n        /* \"#utility.yul\":14973:15070   */\n      tag_128\n      jump\t// in\n    tag_284:\n        /* \"#utility.yul\":15091:15130   */\n      tag_285\n        /* \"#utility.yul\":15121:15129   */\n      dup7\n        /* \"#utility.yul\":15110:15119   */\n      dup4\n        /* \"#utility.yul\":15091:15130   */\n      tag_128\n      jump\t// in\n    tag_285:\n        /* \"#utility.yul\":15079:15130   */\n      swap6\n      pop\n        /* \"#utility.yul\":15163:15167   */\n      dup1\n        /* \"#utility.yul\":15159:15168   */\n      not\n        /* \"#utility.yul\":15152:15157   */\n      dup5\n        /* \"#utility.yul\":15148:15169   */\n      and\n        /* \"#utility.yul\":15139:15169   */\n      swap4\n      pop\n        /* \"#utility.yul\":15212:15216   */\n      dup1\n        /* \"#utility.yul\":15202:15210   */\n      dup7\n        /* \"#utility.yul\":15198:15217   */\n      and\n        /* \"#utility.yul\":15191:15196   */\n      dup5\n        /* \"#utility.yul\":15188:15218   */\n      or\n        /* \"#utility.yul\":15178:15218   */\n      swap3\n      pop\n        /* \"#utility.yul\":14907:15224   */\n      pop\n      pop\n        /* \"#utility.yul\":14831:15224   */\n      swap4\n      swap3\n      pop\n      pop\n      pop\n      jump\t// out\n        /* \"#utility.yul\":15230:15290   */\n    tag_130:\n        /* \"#utility.yul\":15258:15261   */\n      0x00\n        /* \"#utility.yul\":15279:15284   */\n      dup2\n        /* \"#utility.yul\":15272:15284   */\n      swap1\n      pop\n        /* \"#utility.yul\":15230:15290   */\n      swap2\n      swap1\n      pop\n      jump\t// out\n        /* \"#utility.yul\":15296:15438   */\n    tag_131:\n        /* \"#utility.yul\":15346:15355   */\n      0x00\n        /* \"#utility.yul\":15379:15432   */\n      tag_288\n        /* \"#utility.yul\":15397:15431   */\n      tag_289\n        /* \"#utility.yul\":15406:15430   */\n      tag_290\n        /* \"#utility.yul\":15424:15429   */\n      dup5\n        /* \"#utility.yul\":15406:15430   */\n      tag_92\n      jump\t// in\n    tag_290:\n        /* \"#utility.yul\":15397:15431   */\n      tag_130\n      jump\t// in\n    tag_289:\n        /* \"#utility.yul\":15379:15432   */\n      tag_92\n      jump\t// in\n    tag_288:\n        /* \"#utility.yul\":15366:15432   */\n      swap1\n      pop\n        /* \"#utility.yul\":15296:15438   */\n      swap2\n      swap1\n      pop\n      jump\t// out\n        /* \"#utility.yul\":15444:15519   */\n    tag_132:\n        /* \"#utility.yul\":15487:15490   */\n      0x00\n        /* \"#utility.yul\":15508:15513   */\n      dup2\n        /* \"#utility.yul\":15501:15513   */\n      swap1\n      pop\n        /* \"#utility.yul\":15444:15519   */\n      swap2\n      swap1\n      pop\n      jump\t// out\n        /* \"#utility.yul\":15525:15794   */\n    tag_133:\n        /* \"#utility.yul\":15635:15674   */\n      tag_293\n        /* \"#utility.yul\":15666:15673   */\n      dup4\n        /* \"#utility.yul\":15635:15674   */\n      tag_131\n      jump\t// in\n    tag_293:\n        /* \"#utility.yul\":15696:15787   */\n      tag_294\n        /* \"#utility.yul\":15745:15786   */\n      tag_295\n        /* \"#utility.yul\":15769:15785   */\n      dup3\n        /* \"#utility.yul\":15745:15786   */\n      tag_132\n      jump\t// in\n    tag_295:\n        /* \"#utility.yul\":15737:15743   */\n      dup5\n        /* \"#utility.yul\":15730:15734   */\n      dup5\n        /* \"#utility.yul\":15724:15735   */\n      sload\n        /* \"#utility.yul\":15696:15787   */\n      tag_129\n      jump\t// in\n    tag_294:\n        /* \"#utility.yul\":15690:15694   */\n      dup3\n        /* \"#utility.yul\":15683:15788   */\n      sstore\n        /* \"#utility.yul\":15601:15794   */\n      pop\n        /* \"#utility.yul\":15525:15794   */\n      pop\n      pop\n      pop\n      jump\t// out\n        /* \"#utility.yul\":15800:15873   */\n    tag_134:\n        /* \"#utility.yul\":15845:15848   */\n      0x00\n        /* \"#utility.yul\":15800:15873   */\n      swap1\n      jump\t// out\n        /* \"#utility.yul\":15879:16068   */\n    tag_135:\n        /* \"#utility.yul\":15956:15988   */\n      tag_298\n      tag_134\n      jump\t// in\n    tag_298:\n        /* \"#utility.yul\":15997:16062   */\n      tag_299\n        /* \"#utility.yul\":16055:16061   */\n      dup2\n        /* \"#utility.yul\":16047:16053   */\n      dup5\n        /* \"#utility.yul\":16041:16045   */\n      dup5\n        /* \"#utility.yul\":15997:16062   */\n      tag_133\n      jump\t// in\n    tag_299:\n        /* \"#utility.yul\":15932:16068   */\n      pop\n        /* \"#utility.yul\":15879:16068   */\n      pop\n      pop\n      jump\t// out\n        /* \"#utility.yul\":16074:16260   */\n    tag_136:\n        /* \"#utility.yul\":16134:16254   */\n    tag_301:\n        /* \"#utility.yul\":16151:16154   */\n      dup2\n        /* \"#utility.yul\":16144:16149   */\n      dup2\n        /* \"#utility.yul\":16141:16155   */\n      lt\n        /* \"#utility.yul\":16134:16254   */\n      iszero\n      tag_303\n      jumpi\n        /* \"#utility.yul\":16205:16244   */\n      tag_304\n        /* \"#utility.yul\":16242:16243   */\n      0x00\n        /* \"#utility.yul\":16235:16240   */\n      dup3\n        /* \"#utility.yul\":16205:16244   */\n      tag_135\n      jump\t// in\n    tag_304:\n        /* \"#utility.yul\":16178:16179   */\n      0x01\n        /* \"#utility.yul\":16171:16176   */\n      dup2\n        /* \"#utility.yul\":16167:16180   */\n      add\n        /* \"#utility.yul\":16158:16180   */\n      swap1\n      pop\n        /* \"#utility.yul\":16134:16254   */\n      jump(tag_301)\n    tag_303:\n        /* \"#utility.yul\":16074:16260   */\n      pop\n      pop\n      jump\t// out\n        /* \"#utility.yul\":16266:16809   */\n    tag_137:\n        /* \"#utility.yul\":16367:16369   */\n      0x1f\n        /* \"#utility.yul\":16362:16365   */\n      dup3\n        /* \"#utility.yul\":16359:16370   */\n      gt\n        /* \"#utility.yul\":16356:16802   */\n      iszero\n      tag_306\n      jumpi\n        /* \"#utility.yul\":16401:16439   */\n      tag_307\n        /* \"#utility.yul\":16433:16438   */\n      dup2\n        /* \"#utility.yul\":16401:16439   */\n      tag_126\n      jump\t// in\n    tag_307:\n        /* \"#utility.yul\":16485:16514   */\n      tag_308\n        /* \"#utility.yul\":16503:16513   */\n      dup5\n        /* \"#utility.yul\":16485:16514   */\n      tag_127\n      jump\t// in\n    tag_308:\n        /* \"#utility.yul\":16475:16483   */\n      dup2\n        /* \"#utility.yul\":16471:16515   */\n      add\n        /* \"#utility.yul\":16668:16670   */\n      0x20\n        /* \"#utility.yul\":16656:16666   */\n      dup6\n        /* \"#utility.yul\":16653:16671   */\n      lt\n        /* \"#utility.yul\":16650:16699   */\n      iszero\n      tag_309\n      jumpi\n        /* \"#utility.yul\":16689:16697   */\n      dup2\n        /* \"#utility.yul\":16674:16697   */\n      swap1\n      pop\n        /* \"#utility.yul\":16650:16699   */\n    tag_309:\n        /* \"#utility.yul\":16712:16792   */\n      tag_310\n        /* \"#utility.yul\":16768:16790   */\n      tag_311\n        /* \"#utility.yul\":16786:16789   */\n      dup6\n        /* \"#utility.yul\":16768:16790   */\n      tag_127\n      jump\t// in\n    tag_311:\n        /* \"#utility.yul\":16758:16766   */\n      dup4\n        /* \"#utility.yul\":16754:16791   */\n      add\n        /* \"#utility.yul\":16741:16752   */\n      dup3\n        /* \"#utility.yul\":16712:16792   */\n      tag_136\n      jump\t// in\n    tag_310:\n        /* \"#utility.yul\":16371:16802   */\n      pop\n      pop\n        /* \"#utility.yul\":16356:16802   */\n    tag_306:\n        /* \"#utility.yul\":16266:16809   */\n      pop\n      pop\n      pop\n      jump\t// out\n        /* \"#utility.yul\":16815:16932   */\n    tag_138:\n        /* \"#utility.yul\":16869:16877   */\n      0x00\n        /* \"#utility.yul\":16919:16924   */\n      dup3\n        /* \"#utility.yul\":16913:16917   */\n      dup3\n        /* \"#utility.yul\":16909:16925   */\n      shr\n        /* \"#utility.yul\":16888:16925   */\n      swap1\n      pop\n        /* \"#utility.yul\":16815:16932   */\n      swap3\n      swap2\n      pop\n      pop\n      jump\t// out\n        /* \"#utility.yul\":16938:17107   */\n    tag_139:\n        /* \"#utility.yul\":16982:16988   */\n      0x00\n        /* \"#utility.yul\":17015:17066   */\n      tag_314\n        /* \"#utility.yul\":17063:17064   */\n      0x00\n        /* \"#utility.yul\":17059:17065   */\n      not\n        /* \"#utility.yul\":17051:17056   */\n      dup5\n        /* \"#utility.yul\":17048:17049   */\n      0x08\n        /* \"#utility.yul\":17044:17057   */\n      mul\n        /* \"#utility.yul\":17015:17066   */\n      tag_138\n      jump\t// in\n    tag_314:\n        /* \"#utility.yul\":17011:17067   */\n      not\n        /* \"#utility.yul\":17096:17100   */\n      dup1\n        /* \"#utility.yul\":17090:17094   */\n      dup4\n        /* \"#utility.yul\":17086:17101   */\n      and\n        /* \"#utility.yul\":17076:17101   */\n      swap2\n      pop\n        /* \"#utility.yul\":16989:17107   */\n      pop\n        /* \"#utility.yul\":16938:17107   */\n      swap3\n      swap2\n      pop\n      pop\n      jump\t// out\n        /* \"#utility.yul\":17112:17407   */\n    tag_140:\n        /* \"#utility.yul\":17188:17192   */\n      0x00\n        /* \"#utility.yul\":17334:17363   */\n      tag_316\n        /* \"#utility.yul\":17359:17362   */\n      dup4\n        /* \"#utility.yul\":17353:17357   */\n      dup4\n        /* \"#utility.yul\":17334:17363   */\n      tag_139\n      jump\t// in\n    tag_316:\n        /* \"#utility.yul\":17326:17363   */\n      swap2\n      pop\n        /* \"#utility.yul\":17396:17399   */\n      dup3\n        /* \"#utility.yul\":17393:17394   */\n      0x02\n        /* \"#utility.yul\":17389:17400   */\n      mul\n        /* \"#utility.yul\":17383:17387   */\n      dup3\n        /* \"#utility.yul\":17380:17401   */\n      or\n        /* \"#utility.yul\":17372:17401   */\n      swap1\n      pop\n        /* \"#utility.yul\":17112:17407   */\n      swap3\n      swap2\n      pop\n      pop\n      jump\t// out\n        /* \"#utility.yul\":17412:18807   */\n    tag_58:\n        /* \"#utility.yul\":17529:17566   */\n      tag_318\n        /* \"#utility.yul\":17562:17565   */\n      dup3\n        /* \"#utility.yul\":17529:17566   */\n      tag_96\n      jump\t// in\n    tag_318:\n        /* \"#utility.yul\":17631:17649   */\n      0xffffffffffffffff\n        /* \"#utility.yul\":17623:17629   */\n      dup2\n        /* \"#utility.yul\":17620:17650   */\n      gt\n        /* \"#utility.yul\":17617:17673   */\n      iszero\n      tag_319\n      jumpi\n        /* \"#utility.yul\":17653:17671   */\n      tag_320\n      tag_104\n      jump\t// in\n    tag_320:\n        /* \"#utility.yul\":17617:17673   */\n    tag_319:\n        /* \"#utility.yul\":17697:17735   */\n      tag_321\n        /* \"#utility.yul\":17729:17733   */\n      dup3\n        /* \"#utility.yul\":17723:17734   */\n      sload\n        /* \"#utility.yul\":17697:17735   */\n      tag_47\n      jump\t// in\n    tag_321:\n        /* \"#utility.yul\":17782:17849   */\n      tag_322\n        /* \"#utility.yul\":17842:17848   */\n      dup3\n        /* \"#utility.yul\":17834:17840   */\n      dup3\n        /* \"#utility.yul\":17828:17832   */\n      dup6\n        /* \"#utility.yul\":17782:17849   */\n      tag_137\n      jump\t// in\n    tag_322:\n        /* \"#utility.yul\":17876:17877   */\n      0x00\n        /* \"#utility.yul\":17900:17904   */\n      0x20\n        /* \"#utility.yul\":17887:17904   */\n      swap1\n      pop\n        /* \"#utility.yul\":17932:17934   */\n      0x1f\n        /* \"#utility.yul\":17924:17930   */\n      dup4\n        /* \"#utility.yul\":17921:17935   */\n      gt\n        /* \"#utility.yul\":17949:17950   */\n      0x01\n        /* \"#utility.yul\":17944:18562   */\n      dup2\n      eq\n      tag_324\n      jumpi\n        /* \"#utility.yul\":18606:18607   */\n      0x00\n        /* \"#utility.yul\":18623:18629   */\n      dup5\n        /* \"#utility.yul\":18620:18697   */\n      iszero\n      tag_325\n      jumpi\n        /* \"#utility.yul\":18672:18681   */\n      dup3\n        /* \"#utility.yul\":18667:18670   */\n      dup8\n        /* \"#utility.yul\":18663:18682   */\n      add\n        /* \"#utility.yul\":18657:18683   */\n      mload\n        /* \"#utility.yul\":18648:18683   */\n      swap1\n      pop\n        /* \"#utility.yul\":18620:18697   */\n    tag_325:\n        /* \"#utility.yul\":18723:18790   */\n      tag_326\n        /* \"#utility.yul\":18783:18789   */\n      dup6\n        /* \"#utility.yul\":18776:18781   */\n      dup3\n        /* \"#utility.yul\":18723:18790   */\n      tag_140\n      jump\t// in\n    tag_326:\n        /* \"#utility.yul\":18717:18721   */\n      dup7\n        /* \"#utility.yul\":18710:18791   */\n      sstore\n        /* \"#utility.yul\":18579:18801   */\n      pop\n        /* \"#utility.yul\":17914:18801   */\n      jump(tag_323)\n        /* \"#utility.yul\":17944:18562   */\n    tag_324:\n        /* \"#utility.yul\":17996:18000   */\n      0x1f\n        /* \"#utility.yul\":17992:18001   */\n      not\n        /* \"#utility.yul\":17984:17990   */\n      dup5\n        /* \"#utility.yul\":17980:18002   */\n      and\n        /* \"#utility.yul\":18030:18067   */\n      tag_327\n        /* \"#utility.yul\":18062:18066   */\n      dup7\n        /* \"#utility.yul\":18030:18067   */\n      tag_126\n      jump\t// in\n    tag_327:\n        /* \"#utility.yul\":18089:18090   */\n      0x00\n        /* \"#utility.yul\":18103:18311   */\n    tag_328:\n        /* \"#utility.yul\":18117:18124   */\n      dup3\n        /* \"#utility.yul\":18114:18115   */\n      dup2\n        /* \"#utility.yul\":18111:18125   */\n      lt\n        /* \"#utility.yul\":18103:18311   */\n      iszero\n      tag_330\n      jumpi\n        /* \"#utility.yul\":18196:18205   */\n      dup5\n        /* \"#utility.yul\":18191:18194   */\n      dup10\n        /* \"#utility.yul\":18187:18206   */\n      add\n        /* \"#utility.yul\":18181:18207   */\n      mload\n        /* \"#utility.yul\":18173:18179   */\n      dup3\n        /* \"#utility.yul\":18166:18208   */\n      sstore\n        /* \"#utility.yul\":18247:18248   */\n      0x01\n        /* \"#utility.yul\":18239:18245   */\n      dup3\n        /* \"#utility.yul\":18235:18249   */\n      add\n        /* \"#utility.yul\":18225:18249   */\n      swap2\n      pop\n        /* \"#utility.yul\":18294:18296   */\n      0x20\n        /* \"#utility.yul\":18283:18292   */\n      dup6\n        /* \"#utility.yul\":18279:18297   */\n      add\n        /* \"#utility.yul\":18266:18297   */\n      swap5\n      pop\n        /* \"#utility.yul\":18140:18144   */\n      0x20\n        /* \"#utility.yul\":18137:18138   */\n      dup2\n        /* \"#utility.yul\":18133:18145   */\n      add\n        /* \"#utility.yul\":18128:18145   */\n      swap1\n      pop\n        /* \"#utility.yul\":18103:18311   */\n      jump(tag_328)\n    tag_330:\n        /* \"#utility.yul\":18339:18345   */\n      dup7\n        /* \"#utility.yul\":18330:18337   */\n      dup4\n        /* \"#utility.yul\":18327:18346   */\n      lt\n        /* \"#utility.yul\":18324:18503   */\n      iszero\n      tag_331\n      jumpi\n        /* \"#utility.yul\":18397:18406   */\n      dup5\n        /* \"#utility.yul\":18392:18395   */\n      dup10\n        /* \"#utility.yul\":18388:18407   */\n      add\n        /* \"#utility.yul\":18382:18408   */\n      mload\n        /* \"#utility.yul\":18440:18488   */\n      tag_332\n        /* \"#utility.yul\":18482:18486   */\n      0x1f\n        /* \"#utility.yul\":18474:18480   */\n      dup10\n        /* \"#utility.yul\":18470:18487   */\n      and\n        /* \"#utility.yul\":18459:18468   */\n      dup3\n        /* \"#utility.yul\":18440:18488   */\n      tag_139\n      jump\t// in\n    tag_332:\n        /* \"#utility.yul\":18432:18438   */\n      dup4\n        /* \"#utility.yul\":18425:18489   */\n      sstore\n        /* \"#utility.yul\":18347:18503   */\n      pop\n        /* \"#utility.yul\":18324:18503   */\n    tag_331:\n        /* \"#utility.yul\":18549:18550   */\n      0x01\n        /* \"#utility.yul\":18545:18546   */\n      0x02\n        /* \"#utility.yul\":18537:18543   */\n      dup9\n        /* \"#utility.yul\":18533:18547   */\n      mul\n        /* \"#utility.yul\":18529:18551   */\n      add\n        /* \"#utility.yul\":18523:18527   */\n      dup9\n        /* \"#utility.yul\":18516:18552   */\n      sstore\n        /* \"#utility.yul\":17951:18562   */\n      pop\n      pop\n      pop\n        /* \"#utility.yul\":17914:18801   */\n    tag_323:\n      pop\n        /* \"#utility.yul\":17504:18807   */\n      pop\n      pop\n      pop\n        /* \"#utility.yul\":17412:18807   */\n      pop\n      pop\n      jump\t// out\n        /* \"#utility.yul\":18813:18976   */\n    tag_141:\n        /* \"#utility.yul\":18953:18968   */\n      0x6e6f7420746865206f776e657200000000000000000000000000000000000000\n        /* \"#utility.yul\":18949:18950   */\n      0x00\n        /* \"#utility.yul\":18941:18947   */\n      dup3\n        /* \"#utility.yul\":18937:18951   */\n      add\n        /* \"#utility.yul\":18930:18969   */\n      mstore\n        /* \"#utility.yul\":18813:18976   */\n      pop\n      jump\t// out\n        /* \"#utility.yul\":18982:19348   */\n    tag_142:\n        /* \"#utility.yul\":19124:19127   */\n      0x00\n        /* \"#utility.yul\":19145:19212   */\n      tag_335\n        /* \"#utility.yul\":19209:19211   */\n      0x0d\n        /* \"#utility.yul\":19204:19207   */\n      dup4\n        /* \"#utility.yul\":19145:19212   */\n      tag_97\n      jump\t// in\n    tag_335:\n        /* \"#utility.yul\":19138:19212   */\n      swap2\n      pop\n        /* \"#utility.yul\":19221:19314   */\n      tag_336\n        /* \"#utility.yul\":19310:19313   */\n      dup3\n        /* \"#utility.yul\":19221:19314   */\n      tag_141\n      jump\t// in\n    tag_336:\n        /* \"#utility.yul\":19339:19341   */\n      0x20\n        /* \"#utility.yul\":19334:19337   */\n      dup3\n        /* \"#utility.yul\":19330:19342   */\n      add\n        /* \"#utility.yul\":19323:19342   */\n      swap1\n      pop\n        /* \"#utility.yul\":18982:19348   */\n      swap2\n      swap1\n      pop\n      jump\t// out\n        /* \"#utility.yul\":19354:19773   */\n    tag_62:\n        /* \"#utility.yul\":19520:19524   */\n      0x00\n        /* \"#utility.yul\":19558:19560   */\n      0x20\n        /* \"#utility.yul\":19547:19556   */\n      dup3\n        /* \"#utility.yul\":19543:19561   */\n      add\n        /* \"#utility.yul\":19535:19561   */\n      swap1\n      pop\n        /* \"#utility.yul\":19607:19616   */\n      dup2\n        /* \"#utility.yul\":19601:19605   */\n      dup2\n        /* \"#utility.yul\":19597:19617   */\n      sub\n        /* \"#utility.yul\":19593:19594   */\n      0x00\n        /* \"#utility.yul\":19582:19591   */\n      dup4\n        /* \"#utility.yul\":19578:19595   */\n      add\n        /* \"#utility.yul\":19571:19618   */\n      mstore\n        /* \"#utility.yul\":19635:19766   */\n      tag_338\n        /* \"#utility.yul\":19761:19765   */\n      dup2\n        /* \"#utility.yul\":19635:19766   */\n      tag_142\n      jump\t// in\n    tag_338:\n        /* \"#utility.yul\":19627:19766   */\n      swap1\n      pop\n        /* \"#utility.yul\":19354:19773   */\n      swap2\n      swap1\n      pop\n      jump\t// out\n        /* \"#utility.yul\":19779:19959   */\n    tag_78:\n        /* \"#utility.yul\":19827:19904   */\n      0x4e487b7100000000000000000000000000000000000000000000000000000000\n        /* \"#utility.yul\":19824:19825   */\n      0x00\n        /* \"#utility.yul\":19817:19905   */\n      mstore\n        /* \"#utility.yul\":19924:19928   */\n      0x32\n        /* \"#utility.yul\":19921:19922   */\n      0x04\n        /* \"#utility.yul\":19914:19929   */\n      mstore\n        /* \"#utility.yul\":19948:19952   */\n      0x24\n        /* \"#utility.yul\":19945:19946   */\n      0x00\n        /* \"#utility.yul\":19938:19953   */\n      revert\n\n    auxdata: 0xa26469706673582212204dcb20fed95666b1d99938c93901ff26349045197d699e9089b4121415dda4d364736f6c63430008120033\n}\n",
				"bytecode": {
					"linkReferences": {},
					"object": "608060405260e660015534801561001557600080fd5b50336000806101000a81548173ffffffffffffffffffffffffffffffffffffffff021916908373ffffffffffffffffffffffffffffffffffffffff16021790555061122e806100656000396000f3fe608060405234801561001057600080fd5b506004361061007d5760003560e01c8063888a78801161005b578063888a7880146100ef5780638da5cb5b1461010b578063b64988b814610129578063ed9bb8d7146101595761007d565b806305a1b4a9146100825780636eb10797146100b55780637c9cd2bc146100d3575b600080fd5b61009c60048036038101906100979190610897565b610189565b6040516100ac9493929190610985565b60405180910390f35b6100bd61027e565b6040516100ca91906109d1565b60405180910390f35b6100ed60048036038101906100e89190610b21565b610284565b005b61010960048036038101906101049190610b6a565b6103e6565b005b61011361047e565b6040516101209190610b97565b60405180910390f35b610143600480360381019061013e9190610bb2565b6104a2565b6040516101509190610d6c565b60405180910390f35b610173600480360381019061016e9190610b6a565b61063c565b6040516101809190610df1565b60405180910390f35b600260205281600052604060002081815481106101a557600080fd5b9060005260206000209060040201600091509150508060000160009054906101000a900473ffffffffffffffffffffffffffffffffffffffff16908060010180546101ef90610e42565b80601f016020809104026020016040519081016040528092919081815260200182805461021b90610e42565b80156102685780601f1061023d57610100808354040283529160200191610268565b820191906000526020600020905b81548152906001019060200180831161024b57829003601f168201915b5050505050908060020154908060030154905084565b60015481565b600154815111156102ca576040517f08c379a00000000000000000000000000000000000000000000000000000000081526004016102c190610ebf565b60405180910390fd5b600060405180608001604052803373ffffffffffffffffffffffffffffffffffffffff16815260200183815260200142815260200160008152509050600260003373ffffffffffffffffffffffffffffffffffffffff1673ffffffffffffffffffffffffffffffffffffffff16815260200190815260200160002081908060018154018082558091505060019003906000526020600020906004020160009091909190915060008201518160000160006101000a81548173ffffffffffffffffffffffffffffffffffffffff021916908373ffffffffffffffffffffffffffffffffffffffff16021790555060208201518160010190816103cb919061108b565b50604082015181600201556060820151816003015550505050565b60008054906101000a900473ffffffffffffffffffffffffffffffffffffffff1673ffffffffffffffffffffffffffffffffffffffff163373ffffffffffffffffffffffffffffffffffffffff1614610474576040517f08c379a000000000000000000000000000000000000000000000000000000000815260040161046b906111a9565b60405180910390fd5b8060018190555050565b60008054906101000a900473ffffffffffffffffffffffffffffffffffffffff1681565b6060600260008373ffffffffffffffffffffffffffffffffffffffff1673ffffffffffffffffffffffffffffffffffffffff168152602001908152602001600020805480602002602001604051908101604052809291908181526020016000905b8282101561063157838290600052602060002090600402016040518060800160405290816000820160009054906101000a900473ffffffffffffffffffffffffffffffffffffffff1673ffffffffffffffffffffffffffffffffffffffff1673ffffffffffffffffffffffffffffffffffffffff16815260200160018201805461058c90610e42565b80601f01602080910402602001604051908101604052809291908181526020018280546105b890610e42565b80156106055780601f106105da57610100808354040283529160200191610605565b820191906000526020600020905b8154815290600101906020018083116105e857829003601f168201915b505050505081526020016002820154815260200160038201548152505081526020019060010190610503565b505050509050919050565b6106446107b1565b600260003373ffffffffffffffffffffffffffffffffffffffff1673ffffffffffffffffffffffffffffffffffffffff1681526020019081526020016000208281548110610695576106946111c9565b5b90600052602060002090600402016040518060800160405290816000820160009054906101000a900473ffffffffffffffffffffffffffffffffffffffff1673ffffffffffffffffffffffffffffffffffffffff1673ffffffffffffffffffffffffffffffffffffffff16815260200160018201805461071490610e42565b80601f016020809104026020016040519081016040528092919081815260200182805461074090610e42565b801561078d5780601f106107625761010080835404028352916020019161078d565b820191906000526020600020905b81548152906001019060200180831161077057829003601f168201915b50505050508152602001600282015481526020016003820154815250509050919050565b6040518060800160405280600073ffffffffffffffffffffffffffffffffffffffff1681526020016060815260200160008152602001600081525090565b6000604051905090565b600080fd5b600080fd5b600073ffffffffffffffffffffffffffffffffffffffff82169050919050565b600061082e82610803565b9050919050565b61083e81610823565b811461084957600080fd5b50565b60008135905061085b81610835565b92915050565b6000819050919050565b61087481610861565b811461087f57600080fd5b50565b6000813590506108918161086b565b92915050565b600080604083850312156108ae576108ad6107f9565b5b60006108bc8582860161084c565b92505060206108cd85828601610882565b9150509250929050565b6108e081610823565b82525050565b600081519050919050565b600082825260208201905092915050565b60005b83811015610920578082015181840152602081019050610905565b60008484015250505050565b6000601f19601f8301169050919050565b6000610948826108e6565b61095281856108f1565b9350610962818560208601610902565b61096b8161092c565b840191505092915050565b61097f81610861565b82525050565b600060808201905061099a60008301876108d7565b81810360208301526109ac818661093d565b90506109bb6040830185610976565b6109c86060830184610976565b95945050505050565b60006020820190506109e66000830184610976565b92915050565b600080fd5b600080fd5b7f4e487b7100000000000000000000000000000000000000000000000000000000600052604160045260246000fd5b610a2e8261092c565b810181811067ffffffffffffffff82111715610a4d57610a4c6109f6565b5b80604052505050565b6000610a606107ef565b9050610a6c8282610a25565b919050565b600067ffffffffffffffff821115610a8c57610a8b6109f6565b5b610a958261092c565b9050602081019050919050565b82818337600083830152505050565b6000610ac4610abf84610a71565b610a56565b905082815260208101848484011115610ae057610adf6109f1565b5b610aeb848285610aa2565b509392505050565b600082601f830112610b0857610b076109ec565b5b8135610b18848260208601610ab1565b91505092915050565b600060208284031215610b3757610b366107f9565b5b600082013567ffffffffffffffff811115610b5557610b546107fe565b5b610b6184828501610af3565b91505092915050565b600060208284031215610b8057610b7f6107f9565b5b6000610b8e84828501610882565b91505092915050565b6000602082019050610bac60008301846108d7565b92915050565b600060208284031215610bc857610bc76107f9565b5b6000610bd68482850161084c565b91505092915050565b600081519050919050565b600082825260208201905092915050565b6000819050602082019050919050565b610c1481610823565b82525050565b600082825260208201905092915050565b6000610c36826108e6565b610c408185610c1a565b9350610c50818560208601610902565b610c598161092c565b840191505092915050565b610c6d81610861565b82525050565b6000608083016000830151610c8b6000860182610c0b565b5060208301518482036020860152610ca38282610c2b565b9150506040830151610cb86040860182610c64565b506060830151610ccb6060860182610c64565b508091505092915050565b6000610ce28383610c73565b905092915050565b6000602082019050919050565b6000610d0282610bdf565b610d0c8185610bea565b935083602082028501610d1e85610bfb565b8060005b85811015610d5a5784840389528151610d3b8582610cd6565b9450610d4683610cea565b925060208a01995050600181019050610d22565b50829750879550505050505092915050565b60006020820190508181036000830152610d868184610cf7565b905092915050565b6000608083016000830151610da66000860182610c0b565b5060208301518482036020860152610dbe8282610c2b565b9150506040830151610dd36040860182610c64565b506060830151610de66060860182610c64565b508091505092915050565b60006020820190508181036000830152610e0b8184610d8e565b905092915050565b7f4e487b7100000000000000000000000000000000000000000000000000000000600052602260045260246000fd5b60006002820490506001821680610e5a57607f821691505b602082108103610e6d57610e6c610e13565b5b50919050565b7f547765657420697320746f206c6f6e6721000000000000000000000000000000600082015250565b6000610ea96011836108f1565b9150610eb482610e73565b602082019050919050565b60006020820190508181036000830152610ed881610e9c565b9050919050565b60008190508160005260206000209050919050565b60006020601f8301049050919050565b600082821b905092915050565b600060088302610f417fffffffffffffffffffffffffffffffffffffffffffffffffffffffffffffffff82610f04565b610f4b8683610f04565b95508019841693508086168417925050509392505050565b6000819050919050565b6000610f88610f83610f7e84610861565b610f63565b610861565b9050919050565b6000819050919050565b610fa283610f6d565b610fb6610fae82610f8f565b848454610f11565b825550505050565b600090565b610fcb610fbe565b610fd6818484610f99565b505050565b5b81811015610ffa57610fef600082610fc3565b600181019050610fdc565b5050565b601f82111561103f5761101081610edf565b61101984610ef4565b81016020851015611028578190505b61103c61103485610ef4565b830182610fdb565b50505b505050565b600082821c905092915050565b600061106260001984600802611044565b1980831691505092915050565b600061107b8383611051565b9150826002028217905092915050565b611094826108e6565b67ffffffffffffffff8111156110ad576110ac6109f6565b5b6110b78254610e42565b6110c2828285610ffe565b600060209050601f8311600181146110f557600084156110e3578287015190505b6110ed858261106f565b865550611155565b601f19841661110386610edf565b60005b8281101561112b57848901518255600182019150602085019450602081019050611106565b868310156111485784890151611144601f891682611051565b8355505b6001600288020188555050505b505050505050565b7f6e6f7420746865206f776e657200000000000000000000000000000000000000600082015250565b6000611193600d836108f1565b915061119e8261115d565b602082019050919050565b600060208201905081810360008301526111c281611186565b9050919050565b7f4e487b7100000000000000000000000000000000000000000000000000000000600052603260045260246000fdfea26469706673582212204dcb20fed95666b1d99938c93901ff26349045197d699e9089b4121415dda4d364736f6c63430008120033",
					"opcodes": "PUSH1 0x80 PUSH1 0x40 MSTORE PUSH1 0xE6 PUSH1 0x1 SSTORE CALLVALUE DUP1 ISZERO PUSH2 0x15 JUMPI PUSH1 0x0 DUP1 REVERT JUMPDEST POP CALLER PUSH1 0x0 DUP1 PUSH2 0x100 EXP DUP2 SLOAD DUP2 PUSH20 0xFFFFFFFFFFFFFFFFFFFFFFFFFFFFFFFFFFFFFFFF MUL NOT AND SWAP1 DUP4 PUSH20 0xFFFFFFFFFFFFFFFFFFFFFFFFFFFFFFFFFFFFFFFF AND MUL OR SWAP1 SSTORE POP PUSH2 0x122E DUP1 PUSH2 0x65 PUSH1 0x0 CODECOPY PUSH1 0x0 RETURN INVALID PUSH1 0x80 PUSH1 0x40 MSTORE CALLVALUE DUP1 ISZERO PUSH2 0x10 JUMPI PUSH1 0x0 DUP1 REVERT JUMPDEST POP PUSH1 0x4 CALLDATASIZE LT PUSH2 0x7D JUMPI PUSH1 0x0 CALLDATALOAD PUSH1 0xE0 SHR DUP1 PUSH4 0x888A7880 GT PUSH2 0x5B JUMPI DUP1 PUSH4 0x888A7880 EQ PUSH2 0xEF JUMPI DUP1 PUSH4 0x8DA5CB5B EQ PUSH2 0x10B JUMPI DUP1 PUSH4 0xB64988B8 EQ PUSH2 0x129 JUMPI DUP1 PUSH4 0xED9BB8D7 EQ PUSH2 0x159 JUMPI PUSH2 0x7D JUMP JUMPDEST DUP1 PUSH4 0x5A1B4A9 EQ PUSH2 0x82 JUMPI DUP1 PUSH4 0x6EB10797 EQ PUSH2 0xB5 JUMPI DUP1 PUSH4 0x7C9CD2BC EQ PUSH2 0xD3 JUMPI JUMPDEST PUSH1 0x0 DUP1 REVERT JUMPDEST PUSH2 0x9C PUSH1 0x4 DUP1 CALLDATASIZE SUB DUP2 ADD SWAP1 PUSH2 0x97 SWAP2 SWAP1 PUSH2 0x897 JUMP JUMPDEST PUSH2 0x189 JUMP JUMPDEST PUSH1 0x40 MLOAD PUSH2 0xAC SWAP5 SWAP4 SWAP3 SWAP2 SWAP1 PUSH2 0x985 JUMP JUMPDEST PUSH1 0x40 MLOAD DUP1 SWAP2 SUB SWAP1 RETURN JUMPDEST PUSH2 0xBD PUSH2 0x27E JUMP JUMPDEST PUSH1 0x40 MLOAD PUSH2 0xCA SWAP2 SWAP1 PUSH2 0x9D1 JUMP JUMPDEST PUSH1 0x40 MLOAD DUP1 SWAP2 SUB SWAP1 RETURN JUMPDEST PUSH2 0xED PUSH1 0x4 DUP1 CALLDATASIZE SUB DUP2 ADD SWAP1 PUSH2 0xE8 SWAP2 SWAP1 PUSH2 0xB21 JUMP JUMPDEST PUSH2 0x284 JUMP JUMPDEST STOP JUMPDEST PUSH2 0x109 PUSH1 0x4 DUP1 CALLDATASIZE SUB DUP2 ADD SWAP1 PUSH2 0x104 SWAP2 SWAP1 PUSH2 0xB6A JUMP JUMPDEST PUSH2 0x3E6 JUMP JUMPDEST STOP JUMPDEST PUSH2 0x113 PUSH2 0x47E JUMP JUMPDEST PUSH1 0x40 MLOAD PUSH2 0x120 SWAP2 SWAP1 PUSH2 0xB97 JUMP JUMPDEST PUSH1 0x40 MLOAD DUP1 SWAP2 SUB SWAP1 RETURN JUMPDEST PUSH2 0x143 PUSH1 0x4 DUP1 CALLDATASIZE SUB DUP2 ADD SWAP1 PUSH2 0x13E SWAP2 SWAP1 PUSH2 0xBB2 JUMP JUMPDEST PUSH2 0x4A2 JUMP JUMPDEST PUSH1 0x40 MLOAD PUSH2 0x150 SWAP2 SWAP1 PUSH2 0xD6C JUMP JUMPDEST PUSH1 0x40 MLOAD DUP1 SWAP2 SUB SWAP1 RETURN JUMPDEST PUSH2 0x173 PUSH1 0x4 DUP1 CALLDATASIZE SUB DUP2 ADD SWAP1 PUSH2 0x16E SWAP2 SWAP1 PUSH2 0xB6A JUMP JUMPDEST PUSH2 0x63C JUMP JUMPDEST PUSH1 0x40 MLOAD PUSH2 0x180 SWAP2 SWAP1 PUSH2 0xDF1 JUMP JUMPDEST PUSH1 0x40 MLOAD DUP1 SWAP2 SUB SWAP1 RETURN JUMPDEST PUSH1 0x2 PUSH1 0x20 MSTORE DUP2 PUSH1 0x0 MSTORE PUSH1 0x40 PUSH1 0x0 KECCAK256 DUP2 DUP2 SLOAD DUP2 LT PUSH2 0x1A5 JUMPI PUSH1 0x0 DUP1 REVERT JUMPDEST SWAP1 PUSH1 0x0 MSTORE PUSH1 0x20 PUSH1 0x0 KECCAK256 SWAP1 PUSH1 0x4 MUL ADD PUSH1 0x0 SWAP2 POP SWAP2 POP POP DUP1 PUSH1 0x0 ADD PUSH1 0x0 SWAP1 SLOAD SWAP1 PUSH2 0x100 EXP SWAP1 DIV PUSH20 0xFFFFFFFFFFFFFFFFFFFFFFFFFFFFFFFFFFFFFFFF AND SWAP1 DUP1 PUSH1 0x1 ADD DUP1 SLOAD PUSH2 0x1EF SWAP1 PUSH2 0xE42 JUMP JUMPDEST DUP1 PUSH1 0x1F ADD PUSH1 0x20 DUP1 SWAP2 DIV MUL PUSH1 0x20 ADD PUSH1 0x40 MLOAD SWAP1 DUP2 ADD PUSH1 0x40 MSTORE DUP1 SWAP3 SWAP2 SWAP1 DUP2 DUP2 MSTORE PUSH1 0x20 ADD DUP3 DUP1 SLOAD PUSH2 0x21B SWAP1 PUSH2 0xE42 JUMP JUMPDEST DUP1 ISZERO PUSH2 0x268 JUMPI DUP1 PUSH1 0x1F LT PUSH2 0x23D JUMPI PUSH2 0x100 DUP1 DUP4 SLOAD DIV MUL DUP4 MSTORE SWAP2 PUSH1 0x20 ADD SWAP2 PUSH2 0x268 JUMP JUMPDEST DUP3 ADD SWAP2 SWAP1 PUSH1 0x0 MSTORE PUSH1 0x20 PUSH1 0x0 KECCAK256 SWAP1 JUMPDEST DUP2 SLOAD DUP2 MSTORE SWAP1 PUSH1 0x1 ADD SWAP1 PUSH1 0x20 ADD DUP1 DUP4 GT PUSH2 0x24B JUMPI DUP3 SWAP1 SUB PUSH1 0x1F AND DUP3 ADD SWAP2 JUMPDEST POP POP POP POP POP SWAP1 DUP1 PUSH1 0x2 ADD SLOAD SWAP1 DUP1 PUSH1 0x3 ADD SLOAD SWAP1 POP DUP5 JUMP JUMPDEST PUSH1 0x1 SLOAD DUP2 JUMP JUMPDEST PUSH1 0x1 SLOAD DUP2 MLOAD GT ISZERO PUSH2 0x2CA JUMPI PUSH1 0x40 MLOAD PUSH32 0x8C379A000000000000000000000000000000000000000000000000000000000 DUP2 MSTORE PUSH1 0x4 ADD PUSH2 0x2C1 SWAP1 PUSH2 0xEBF JUMP JUMPDEST PUSH1 0x40 MLOAD DUP1 SWAP2 SUB SWAP1 REVERT JUMPDEST PUSH1 0x0 PUSH1 0x40 MLOAD DUP1 PUSH1 0x80 ADD PUSH1 0x40 MSTORE DUP1 CALLER PUSH20 0xFFFFFFFFFFFFFFFFFFFFFFFFFFFFFFFFFFFFFFFF AND DUP2 MSTORE PUSH1 0x20 ADD DUP4 DUP2 MSTORE PUSH1 0x20 ADD TIMESTAMP DUP2 MSTORE PUSH1 0x20 ADD PUSH1 0x0 DUP2 MSTORE POP SWAP1 POP PUSH1 0x2 PUSH1 0x0 CALLER PUSH20 0xFFFFFFFFFFFFFFFFFFFFFFFFFFFFFFFFFFFFFFFF AND PUSH20 0xFFFFFFFFFFFFFFFFFFFFFFFFFFFFFFFFFFFFFFFF AND DUP2 MSTORE PUSH1 0x20 ADD SWAP1 DUP2 MSTORE PUSH1 0x20 ADD PUSH1 0x0 KECCAK256 DUP2 SWAP1 DUP1 PUSH1 0x1 DUP2 SLOAD ADD DUP1 DUP3 SSTORE DUP1 SWAP2 POP POP PUSH1 0x1 SWAP1 SUB SWAP1 PUSH1 0x0 MSTORE PUSH1 0x20 PUSH1 0x0 KECCAK256 SWAP1 PUSH1 0x4 MUL ADD PUSH1 0x0 SWAP1 SWAP2 SWAP1 SWAP2 SWAP1 SWAP2 POP PUSH1 0x0 DUP3 ADD MLOAD DUP2 PUSH1 0x0 ADD PUSH1 0x0 PUSH2 0x100 EXP DUP2 SLOAD DUP2 PUSH20 0xFFFFFFFFFFFFFFFFFFFFFFFFFFFFFFFFFFFFFFFF MUL NOT AND SWAP1 DUP4 PUSH20 0xFFFFFFFFFFFFFFFFFFFFFFFFFFFFFFFFFFFFFFFF AND MUL OR SWAP1 SSTORE POP PUSH1 0x20 DUP3 ADD MLOAD DUP2 PUSH1 0x1 ADD SWAP1 DUP2 PUSH2 0x3CB SWAP2 SWAP1 PUSH2 0x108B JUMP JUMPDEST POP PUSH1 0x40 DUP3 ADD MLOAD DUP2 PUSH1 0x2 ADD SSTORE PUSH1 0x60 DUP3 ADD MLOAD DUP2 PUSH1 0x3 ADD SSTORE POP POP POP POP JUMP JUMPDEST PUSH1 0x0 DUP1 SLOAD SWAP1 PUSH2 0x100 EXP SWAP1 DIV PUSH20 0xFFFFFFFFFFFFFFFFFFFFFFFFFFFFFFFFFFFFFFFF AND PUSH20 0xFFFFFFFFFFFFFFFFFFFFFFFFFFFFFFFFFFFFFFFF AND CALLER PUSH20 0xFFFFFFFFFFFFFFFFFFFFFFFFFFFFFFFFFFFFFFFF AND EQ PUSH2 0x474 JUMPI PUSH1 0x40 MLOAD PUSH32 0x8C379A000000000000000000000000000000000000000000000000000000000 DUP2 MSTORE PUSH1 0x4 ADD PUSH2 0x46B SWAP1 PUSH2 0x11A9 JUMP JUMPDEST PUSH1 0x40 MLOAD DUP1 SWAP2 SUB SWAP1 REVERT JUMPDEST DUP1 PUSH1 0x1 DUP2 SWAP1 SSTORE POP POP JUMP JUMPDEST PUSH1 0x0 DUP1 SLOAD SWAP1 PUSH2 0x100 EXP SWAP1 DIV PUSH20 0xFFFFFFFFFFFFFFFFFFFFFFFFFFFFFFFFFFFFFFFF AND DUP2 JUMP JUMPDEST PUSH1 0x60 PUSH1 0x2 PUSH1 0x0 DUP4 PUSH20 0xFFFFFFFFFFFFFFFFFFFFFFFFFFFFFFFFFFFFFFFF AND PUSH20 0xFFFFFFFFFFFFFFFFFFFFFFFFFFFFFFFFFFFFFFFF AND DUP2 MSTORE PUSH1 0x20 ADD SWAP1 DUP2 MSTORE PUSH1 0x20 ADD PUSH1 0x0 KECCAK256 DUP1 SLOAD DUP1 PUSH1 0x20 MUL PUSH1 0x20 ADD PUSH1 0x40 MLOAD SWAP1 DUP2 ADD PUSH1 0x40 MSTORE DUP1 SWAP3 SWAP2 SWAP1 DUP2 DUP2 MSTORE PUSH1 0x20 ADD PUSH1 0x0 SWAP1 JUMPDEST DUP3 DUP3 LT ISZERO PUSH2 0x631 JUMPI DUP4 DUP3 SWAP1 PUSH1 0x0 MSTORE PUSH1 0x20 PUSH1 0x0 KECCAK256 SWAP1 PUSH1 0x4 MUL ADD PUSH1 0x40 MLOAD DUP1 PUSH1 0x80 ADD PUSH1 0x40 MSTORE SWAP1 DUP2 PUSH1 0x0 DUP3 ADD PUSH1 0x0 SWAP1 SLOAD SWAP1 PUSH2 0x100 EXP SWAP1 DIV PUSH20 0xFFFFFFFFFFFFFFFFFFFFFFFFFFFFFFFFFFFFFFFF AND PUSH20 0xFFFFFFFFFFFFFFFFFFFFFFFFFFFFFFFFFFFFFFFF AND PUSH20 0xFFFFFFFFFFFFFFFFFFFFFFFFFFFFFFFFFFFFFFFF AND DUP2 MSTORE PUSH1 0x20 ADD PUSH1 0x1 DUP3 ADD DUP1 SLOAD PUSH2 0x58C SWAP1 PUSH2 0xE42 JUMP JUMPDEST DUP1 PUSH1 0x1F ADD PUSH1 0x20 DUP1 SWAP2 DIV MUL PUSH1 0x20 ADD PUSH1 0x40 MLOAD SWAP1 DUP2 ADD PUSH1 0x40 MSTORE DUP1 SWAP3 SWAP2 SWAP1 DUP2 DUP2 MSTORE PUSH1 0x20 ADD DUP3 DUP1 SLOAD PUSH2 0x5B8 SWAP1 PUSH2 0xE42 JUMP JUMPDEST DUP1 ISZERO PUSH2 0x605 JUMPI DUP1 PUSH1 0x1F LT PUSH2 0x5DA JUMPI PUSH2 0x100 DUP1 DUP4 SLOAD DIV MUL DUP4 MSTORE SWAP2 PUSH1 0x20 ADD SWAP2 PUSH2 0x605 JUMP JUMPDEST DUP3 ADD SWAP2 SWAP1 PUSH1 0x0 MSTORE PUSH1 0x20 PUSH1 0x0 KECCAK256 SWAP1 JUMPDEST DUP2 SLOAD DUP2 MSTORE SWAP1 PUSH1 0x1 ADD SWAP1 PUSH1 0x20 ADD DUP1 DUP4 GT PUSH2 0x5E8 JUMPI DUP3 SWAP1 SUB PUSH1 0x1F AND DUP3 ADD SWAP2 JUMPDEST POP POP POP POP POP DUP2 MSTORE PUSH1 0x20 ADD PUSH1 0x2 DUP3 ADD SLOAD DUP2 MSTORE PUSH1 0x20 ADD PUSH1 0x3 DUP3 ADD SLOAD DUP2 MSTORE POP POP DUP2 MSTORE PUSH1 0x20 ADD SWAP1 PUSH1 0x1 ADD SWAP1 PUSH2 0x503 JUMP JUMPDEST POP POP POP POP SWAP1 POP SWAP2 SWAP1 POP JUMP JUMPDEST PUSH2 0x644 PUSH2 0x7B1 JUMP JUMPDEST PUSH1 0x2 PUSH1 0x0 CALLER PUSH20 0xFFFFFFFFFFFFFFFFFFFFFFFFFFFFFFFFFFFFFFFF AND PUSH20 0xFFFFFFFFFFFFFFFFFFFFFFFFFFFFFFFFFFFFFFFF AND DUP2 MSTORE PUSH1 0x20 ADD SWAP1 DUP2 MSTORE PUSH1 0x20 ADD PUSH1 0x0 KECCAK256 DUP3 DUP2 SLOAD DUP2 LT PUSH2 0x695 JUMPI PUSH2 0x694 PUSH2 0x11C9 JUMP JUMPDEST JUMPDEST SWAP1 PUSH1 0x0 MSTORE PUSH1 0x20 PUSH1 0x0 KECCAK256 SWAP1 PUSH1 0x4 MUL ADD PUSH1 0x40 MLOAD DUP1 PUSH1 0x80 ADD PUSH1 0x40 MSTORE SWAP1 DUP2 PUSH1 0x0 DUP3 ADD PUSH1 0x0 SWAP1 SLOAD SWAP1 PUSH2 0x100 EXP SWAP1 DIV PUSH20 0xFFFFFFFFFFFFFFFFFFFFFFFFFFFFFFFFFFFFFFFF AND PUSH20 0xFFFFFFFFFFFFFFFFFFFFFFFFFFFFFFFFFFFFFFFF AND PUSH20 0xFFFFFFFFFFFFFFFFFFFFFFFFFFFFFFFFFFFFFFFF AND DUP2 MSTORE PUSH1 0x20 ADD PUSH1 0x1 DUP3 ADD DUP1 SLOAD PUSH2 0x714 SWAP1 PUSH2 0xE42 JUMP JUMPDEST DUP1 PUSH1 0x1F ADD PUSH1 0x20 DUP1 SWAP2 DIV MUL PUSH1 0x20 ADD PUSH1 0x40 MLOAD SWAP1 DUP2 ADD PUSH1 0x40 MSTORE DUP1 SWAP3 SWAP2 SWAP1 DUP2 DUP2 MSTORE PUSH1 0x20 ADD DUP3 DUP1 SLOAD PUSH2 0x740 SWAP1 PUSH2 0xE42 JUMP JUMPDEST DUP1 ISZERO PUSH2 0x78D JUMPI DUP1 PUSH1 0x1F LT PUSH2 0x762 JUMPI PUSH2 0x100 DUP1 DUP4 SLOAD DIV MUL DUP4 MSTORE SWAP2 PUSH1 0x20 ADD SWAP2 PUSH2 0x78D JUMP JUMPDEST DUP3 ADD SWAP2 SWAP1 PUSH1 0x0 MSTORE PUSH1 0x20 PUSH1 0x0 KECCAK256 SWAP1 JUMPDEST DUP2 SLOAD DUP2 MSTORE SWAP1 PUSH1 0x1 ADD SWAP1 PUSH1 0x20 ADD DUP1 DUP4 GT PUSH2 0x770 JUMPI DUP3 SWAP1 SUB PUSH1 0x1F AND DUP3 ADD SWAP2 JUMPDEST POP POP POP POP POP DUP2 MSTORE PUSH1 0x20 ADD PUSH1 0x2 DUP3 ADD SLOAD DUP2 MSTORE PUSH1 0x20 ADD PUSH1 0x3 DUP3 ADD SLOAD DUP2 MSTORE POP POP SWAP1 POP SWAP2 SWAP1 POP JUMP JUMPDEST PUSH1 0x40 MLOAD DUP1 PUSH1 0x80 ADD PUSH1 0x40 MSTORE DUP1 PUSH1 0x0 PUSH20 0xFFFFFFFFFFFFFFFFFFFFFFFFFFFFFFFFFFFFFFFF AND DUP2 MSTORE PUSH1 0x20 ADD PUSH1 0x60 DUP2 MSTORE PUSH1 0x20 ADD PUSH1 0x0 DUP2 MSTORE PUSH1 0x20 ADD PUSH1 0x0 DUP2 MSTORE POP SWAP1 JUMP JUMPDEST PUSH1 0x0 PUSH1 0x40 MLOAD SWAP1 POP SWAP1 JUMP JUMPDEST PUSH1 0x0 DUP1 REVERT JUMPDEST PUSH1 0x0 DUP1 REVERT JUMPDEST PUSH1 0x0 PUSH20 0xFFFFFFFFFFFFFFFFFFFFFFFFFFFFFFFFFFFFFFFF DUP3 AND SWAP1 POP SWAP2 SWAP1 POP JUMP JUMPDEST PUSH1 0x0 PUSH2 0x82E DUP3 PUSH2 0x803 JUMP JUMPDEST SWAP1 POP SWAP2 SWAP1 POP JUMP JUMPDEST PUSH2 0x83E DUP2 PUSH2 0x823 JUMP JUMPDEST DUP2 EQ PUSH2 0x849 JUMPI PUSH1 0x0 DUP1 REVERT JUMPDEST POP JUMP JUMPDEST PUSH1 0x0 DUP2 CALLDATALOAD SWAP1 POP PUSH2 0x85B DUP2 PUSH2 0x835 JUMP JUMPDEST SWAP3 SWAP2 POP POP JUMP JUMPDEST PUSH1 0x0 DUP2 SWAP1 POP SWAP2 SWAP1 POP JUMP JUMPDEST PUSH2 0x874 DUP2 PUSH2 0x861 JUMP JUMPDEST DUP2 EQ PUSH2 0x87F JUMPI PUSH1 0x0 DUP1 REVERT JUMPDEST POP JUMP JUMPDEST PUSH1 0x0 DUP2 CALLDATALOAD SWAP1 POP PUSH2 0x891 DUP2 PUSH2 0x86B JUMP JUMPDEST SWAP3 SWAP2 POP POP JUMP JUMPDEST PUSH1 0x0 DUP1 PUSH1 0x40 DUP4 DUP6 SUB SLT ISZERO PUSH2 0x8AE JUMPI PUSH2 0x8AD PUSH2 0x7F9 JUMP JUMPDEST JUMPDEST PUSH1 0x0 PUSH2 0x8BC DUP6 DUP3 DUP7 ADD PUSH2 0x84C JUMP JUMPDEST SWAP3 POP POP PUSH1 0x20 PUSH2 0x8CD DUP6 DUP3 DUP7 ADD PUSH2 0x882 JUMP JUMPDEST SWAP2 POP POP SWAP3 POP SWAP3 SWAP1 POP JUMP JUMPDEST PUSH2 0x8E0 DUP2 PUSH2 0x823 JUMP JUMPDEST DUP3 MSTORE POP POP JUMP JUMPDEST PUSH1 0x0 DUP2 MLOAD SWAP1 POP SWAP2 SWAP1 POP JUMP JUMPDEST PUSH1 0x0 DUP3 DUP3 MSTORE PUSH1 0x20 DUP3 ADD SWAP1 POP SWAP3 SWAP2 POP POP JUMP JUMPDEST PUSH1 0x0 JUMPDEST DUP4 DUP2 LT ISZERO PUSH2 0x920 JUMPI DUP1 DUP3 ADD MLOAD DUP2 DUP5 ADD MSTORE PUSH1 0x20 DUP2 ADD SWAP1 POP PUSH2 0x905 JUMP JUMPDEST PUSH1 0x0 DUP5 DUP5 ADD MSTORE POP POP POP POP JUMP JUMPDEST PUSH1 0x0 PUSH1 0x1F NOT PUSH1 0x1F DUP4 ADD AND SWAP1 POP SWAP2 SWAP1 POP JUMP JUMPDEST PUSH1 0x0 PUSH2 0x948 DUP3 PUSH2 0x8E6 JUMP JUMPDEST PUSH2 0x952 DUP2 DUP6 PUSH2 0x8F1 JUMP JUMPDEST SWAP4 POP PUSH2 0x962 DUP2 DUP6 PUSH1 0x20 DUP7 ADD PUSH2 0x902 JUMP JUMPDEST PUSH2 0x96B DUP2 PUSH2 0x92C JUMP JUMPDEST DUP5 ADD SWAP2 POP POP SWAP3 SWAP2 POP POP JUMP JUMPDEST PUSH2 0x97F DUP2 PUSH2 0x861 JUMP JUMPDEST DUP3 MSTORE POP POP JUMP JUMPDEST PUSH1 0x0 PUSH1 0x80 DUP3 ADD SWAP1 POP PUSH2 0x99A PUSH1 0x0 DUP4 ADD DUP8 PUSH2 0x8D7 JUMP JUMPDEST DUP2 DUP2 SUB PUSH1 0x20 DUP4 ADD MSTORE PUSH2 0x9AC DUP2 DUP7 PUSH2 0x93D JUMP JUMPDEST SWAP1 POP PUSH2 0x9BB PUSH1 0x40 DUP4 ADD DUP6 PUSH2 0x976 JUMP JUMPDEST PUSH2 0x9C8 PUSH1 0x60 DUP4 ADD DUP5 PUSH2 0x976 JUMP JUMPDEST SWAP6 SWAP5 POP POP POP POP POP JUMP JUMPDEST PUSH1 0x0 PUSH1 0x20 DUP3 ADD SWAP1 POP PUSH2 0x9E6 PUSH1 0x0 DUP4 ADD DUP5 PUSH2 0x976 JUMP JUMPDEST SWAP3 SWAP2 POP POP JUMP JUMPDEST PUSH1 0x0 DUP1 REVERT JUMPDEST PUSH1 0x0 DUP1 REVERT JUMPDEST PUSH32 0x4E487B7100000000000000000000000000000000000000000000000000000000 PUSH1 0x0 MSTORE PUSH1 0x41 PUSH1 0x4 MSTORE PUSH1 0x24 PUSH1 0x0 REVERT JUMPDEST PUSH2 0xA2E DUP3 PUSH2 0x92C JUMP JUMPDEST DUP2 ADD DUP2 DUP2 LT PUSH8 0xFFFFFFFFFFFFFFFF DUP3 GT OR ISZERO PUSH2 0xA4D JUMPI PUSH2 0xA4C PUSH2 0x9F6 JUMP JUMPDEST JUMPDEST DUP1 PUSH1 0x40 MSTORE POP POP POP JUMP JUMPDEST PUSH1 0x0 PUSH2 0xA60 PUSH2 0x7EF JUMP JUMPDEST SWAP1 POP PUSH2 0xA6C DUP3 DUP3 PUSH2 0xA25 JUMP JUMPDEST SWAP2 SWAP1 POP JUMP JUMPDEST PUSH1 0x0 PUSH8 0xFFFFFFFFFFFFFFFF DUP3 GT ISZERO PUSH2 0xA8C JUMPI PUSH2 0xA8B PUSH2 0x9F6 JUMP JUMPDEST JUMPDEST PUSH2 0xA95 DUP3 PUSH2 0x92C JUMP JUMPDEST SWAP1 POP PUSH1 0x20 DUP2 ADD SWAP1 POP SWAP2 SWAP1 POP JUMP JUMPDEST DUP3 DUP2 DUP4 CALLDATACOPY PUSH1 0x0 DUP4 DUP4 ADD MSTORE POP POP POP JUMP JUMPDEST PUSH1 0x0 PUSH2 0xAC4 PUSH2 0xABF DUP5 PUSH2 0xA71 JUMP JUMPDEST PUSH2 0xA56 JUMP JUMPDEST SWAP1 POP DUP3 DUP2 MSTORE PUSH1 0x20 DUP2 ADD DUP5 DUP5 DUP5 ADD GT ISZERO PUSH2 0xAE0 JUMPI PUSH2 0xADF PUSH2 0x9F1 JUMP JUMPDEST JUMPDEST PUSH2 0xAEB DUP5 DUP3 DUP6 PUSH2 0xAA2 JUMP JUMPDEST POP SWAP4 SWAP3 POP POP POP JUMP JUMPDEST PUSH1 0x0 DUP3 PUSH1 0x1F DUP4 ADD SLT PUSH2 0xB08 JUMPI PUSH2 0xB07 PUSH2 0x9EC JUMP JUMPDEST JUMPDEST DUP2 CALLDATALOAD PUSH2 0xB18 DUP5 DUP3 PUSH1 0x20 DUP7 ADD PUSH2 0xAB1 JUMP JUMPDEST SWAP2 POP POP SWAP3 SWAP2 POP POP JUMP JUMPDEST PUSH1 0x0 PUSH1 0x20 DUP3 DUP5 SUB SLT ISZERO PUSH2 0xB37 JUMPI PUSH2 0xB36 PUSH2 0x7F9 JUMP JUMPDEST JUMPDEST PUSH1 0x0 DUP3 ADD CALLDATALOAD PUSH8 0xFFFFFFFFFFFFFFFF DUP2 GT ISZERO PUSH2 0xB55 JUMPI PUSH2 0xB54 PUSH2 0x7FE JUMP JUMPDEST JUMPDEST PUSH2 0xB61 DUP5 DUP3 DUP6 ADD PUSH2 0xAF3 JUMP JUMPDEST SWAP2 POP POP SWAP3 SWAP2 POP POP JUMP JUMPDEST PUSH1 0x0 PUSH1 0x20 DUP3 DUP5 SUB SLT ISZERO PUSH2 0xB80 JUMPI PUSH2 0xB7F PUSH2 0x7F9 JUMP JUMPDEST JUMPDEST PUSH1 0x0 PUSH2 0xB8E DUP5 DUP3 DUP6 ADD PUSH2 0x882 JUMP JUMPDEST SWAP2 POP POP SWAP3 SWAP2 POP POP JUMP JUMPDEST PUSH1 0x0 PUSH1 0x20 DUP3 ADD SWAP1 POP PUSH2 0xBAC PUSH1 0x0 DUP4 ADD DUP5 PUSH2 0x8D7 JUMP JUMPDEST SWAP3 SWAP2 POP POP JUMP JUMPDEST PUSH1 0x0 PUSH1 0x20 DUP3 DUP5 SUB SLT ISZERO PUSH2 0xBC8 JUMPI PUSH2 0xBC7 PUSH2 0x7F9 JUMP JUMPDEST JUMPDEST PUSH1 0x0 PUSH2 0xBD6 DUP5 DUP3 DUP6 ADD PUSH2 0x84C JUMP JUMPDEST SWAP2 POP POP SWAP3 SWAP2 POP POP JUMP JUMPDEST PUSH1 0x0 DUP2 MLOAD SWAP1 POP SWAP2 SWAP1 POP JUMP JUMPDEST PUSH1 0x0 DUP3 DUP3 MSTORE PUSH1 0x20 DUP3 ADD SWAP1 POP SWAP3 SWAP2 POP POP JUMP JUMPDEST PUSH1 0x0 DUP2 SWAP1 POP PUSH1 0x20 DUP3 ADD SWAP1 POP SWAP2 SWAP1 POP JUMP JUMPDEST PUSH2 0xC14 DUP2 PUSH2 0x823 JUMP JUMPDEST DUP3 MSTORE POP POP JUMP JUMPDEST PUSH1 0x0 DUP3 DUP3 MSTORE PUSH1 0x20 DUP3 ADD SWAP1 POP SWAP3 SWAP2 POP POP JUMP JUMPDEST PUSH1 0x0 PUSH2 0xC36 DUP3 PUSH2 0x8E6 JUMP JUMPDEST PUSH2 0xC40 DUP2 DUP6 PUSH2 0xC1A JUMP JUMPDEST SWAP4 POP PUSH2 0xC50 DUP2 DUP6 PUSH1 0x20 DUP7 ADD PUSH2 0x902 JUMP JUMPDEST PUSH2 0xC59 DUP2 PUSH2 0x92C JUMP JUMPDEST DUP5 ADD SWAP2 POP POP SWAP3 SWAP2 POP POP JUMP JUMPDEST PUSH2 0xC6D DUP2 PUSH2 0x861 JUMP JUMPDEST DUP3 MSTORE POP POP JUMP JUMPDEST PUSH1 0x0 PUSH1 0x80 DUP4 ADD PUSH1 0x0 DUP4 ADD MLOAD PUSH2 0xC8B PUSH1 0x0 DUP7 ADD DUP3 PUSH2 0xC0B JUMP JUMPDEST POP PUSH1 0x20 DUP4 ADD MLOAD DUP5 DUP3 SUB PUSH1 0x20 DUP7 ADD MSTORE PUSH2 0xCA3 DUP3 DUP3 PUSH2 0xC2B JUMP JUMPDEST SWAP2 POP POP PUSH1 0x40 DUP4 ADD MLOAD PUSH2 0xCB8 PUSH1 0x40 DUP7 ADD DUP3 PUSH2 0xC64 JUMP JUMPDEST POP PUSH1 0x60 DUP4 ADD MLOAD PUSH2 0xCCB PUSH1 0x60 DUP7 ADD DUP3 PUSH2 0xC64 JUMP JUMPDEST POP DUP1 SWAP2 POP POP SWAP3 SWAP2 POP POP JUMP JUMPDEST PUSH1 0x0 PUSH2 0xCE2 DUP4 DUP4 PUSH2 0xC73 JUMP JUMPDEST SWAP1 POP SWAP3 SWAP2 POP POP JUMP JUMPDEST PUSH1 0x0 PUSH1 0x20 DUP3 ADD SWAP1 POP SWAP2 SWAP1 POP JUMP JUMPDEST PUSH1 0x0 PUSH2 0xD02 DUP3 PUSH2 0xBDF JUMP JUMPDEST PUSH2 0xD0C DUP2 DUP6 PUSH2 0xBEA JUMP JUMPDEST SWAP4 POP DUP4 PUSH1 0x20 DUP3 MUL DUP6 ADD PUSH2 0xD1E DUP6 PUSH2 0xBFB JUMP JUMPDEST DUP1 PUSH1 0x0 JUMPDEST DUP6 DUP2 LT ISZERO PUSH2 0xD5A JUMPI DUP5 DUP5 SUB DUP10 MSTORE DUP2 MLOAD PUSH2 0xD3B DUP6 DUP3 PUSH2 0xCD6 JUMP JUMPDEST SWAP5 POP PUSH2 0xD46 DUP4 PUSH2 0xCEA JUMP JUMPDEST SWAP3 POP PUSH1 0x20 DUP11 ADD SWAP10 POP POP PUSH1 0x1 DUP2 ADD SWAP1 POP PUSH2 0xD22 JUMP JUMPDEST POP DUP3 SWAP8 POP DUP8 SWAP6 POP POP POP POP POP POP SWAP3 SWAP2 POP POP JUMP JUMPDEST PUSH1 0x0 PUSH1 0x20 DUP3 ADD SWAP1 POP DUP2 DUP2 SUB PUSH1 0x0 DUP4 ADD MSTORE PUSH2 0xD86 DUP2 DUP5 PUSH2 0xCF7 JUMP JUMPDEST SWAP1 POP SWAP3 SWAP2 POP POP JUMP JUMPDEST PUSH1 0x0 PUSH1 0x80 DUP4 ADD PUSH1 0x0 DUP4 ADD MLOAD PUSH2 0xDA6 PUSH1 0x0 DUP7 ADD DUP3 PUSH2 0xC0B JUMP JUMPDEST POP PUSH1 0x20 DUP4 ADD MLOAD DUP5 DUP3 SUB PUSH1 0x20 DUP7 ADD MSTORE PUSH2 0xDBE DUP3 DUP3 PUSH2 0xC2B JUMP JUMPDEST SWAP2 POP POP PUSH1 0x40 DUP4 ADD MLOAD PUSH2 0xDD3 PUSH1 0x40 DUP7 ADD DUP3 PUSH2 0xC64 JUMP JUMPDEST POP PUSH1 0x60 DUP4 ADD MLOAD PUSH2 0xDE6 PUSH1 0x60 DUP7 ADD DUP3 PUSH2 0xC64 JUMP JUMPDEST POP DUP1 SWAP2 POP POP SWAP3 SWAP2 POP POP JUMP JUMPDEST PUSH1 0x0 PUSH1 0x20 DUP3 ADD SWAP1 POP DUP2 DUP2 SUB PUSH1 0x0 DUP4 ADD MSTORE PUSH2 0xE0B DUP2 DUP5 PUSH2 0xD8E JUMP JUMPDEST SWAP1 POP SWAP3 SWAP2 POP POP JUMP JUMPDEST PUSH32 0x4E487B7100000000000000000000000000000000000000000000000000000000 PUSH1 0x0 MSTORE PUSH1 0x22 PUSH1 0x4 MSTORE PUSH1 0x24 PUSH1 0x0 REVERT JUMPDEST PUSH1 0x0 PUSH1 0x2 DUP3 DIV SWAP1 POP PUSH1 0x1 DUP3 AND DUP1 PUSH2 0xE5A JUMPI PUSH1 0x7F DUP3 AND SWAP2 POP JUMPDEST PUSH1 0x20 DUP3 LT DUP2 SUB PUSH2 0xE6D JUMPI PUSH2 0xE6C PUSH2 0xE13 JUMP JUMPDEST JUMPDEST POP SWAP2 SWAP1 POP JUMP JUMPDEST PUSH32 0x547765657420697320746F206C6F6E6721000000000000000000000000000000 PUSH1 0x0 DUP3 ADD MSTORE POP JUMP JUMPDEST PUSH1 0x0 PUSH2 0xEA9 PUSH1 0x11 DUP4 PUSH2 0x8F1 JUMP JUMPDEST SWAP2 POP PUSH2 0xEB4 DUP3 PUSH2 0xE73 JUMP JUMPDEST PUSH1 0x20 DUP3 ADD SWAP1 POP SWAP2 SWAP1 POP JUMP JUMPDEST PUSH1 0x0 PUSH1 0x20 DUP3 ADD SWAP1 POP DUP2 DUP2 SUB PUSH1 0x0 DUP4 ADD MSTORE PUSH2 0xED8 DUP2 PUSH2 0xE9C JUMP JUMPDEST SWAP1 POP SWAP2 SWAP1 POP JUMP JUMPDEST PUSH1 0x0 DUP2 SWAP1 POP DUP2 PUSH1 0x0 MSTORE PUSH1 0x20 PUSH1 0x0 KECCAK256 SWAP1 POP SWAP2 SWAP1 POP JUMP JUMPDEST PUSH1 0x0 PUSH1 0x20 PUSH1 0x1F DUP4 ADD DIV SWAP1 POP SWAP2 SWAP1 POP JUMP JUMPDEST PUSH1 0x0 DUP3 DUP3 SHL SWAP1 POP SWAP3 SWAP2 POP POP JUMP JUMPDEST PUSH1 0x0 PUSH1 0x8 DUP4 MUL PUSH2 0xF41 PUSH32 0xFFFFFFFFFFFFFFFFFFFFFFFFFFFFFFFFFFFFFFFFFFFFFFFFFFFFFFFFFFFFFFFF DUP3 PUSH2 0xF04 JUMP JUMPDEST PUSH2 0xF4B DUP7 DUP4 PUSH2 0xF04 JUMP JUMPDEST SWAP6 POP DUP1 NOT DUP5 AND SWAP4 POP DUP1 DUP7 AND DUP5 OR SWAP3 POP POP POP SWAP4 SWAP3 POP POP POP JUMP JUMPDEST PUSH1 0x0 DUP2 SWAP1 POP SWAP2 SWAP1 POP JUMP JUMPDEST PUSH1 0x0 PUSH2 0xF88 PUSH2 0xF83 PUSH2 0xF7E DUP5 PUSH2 0x861 JUMP JUMPDEST PUSH2 0xF63 JUMP JUMPDEST PUSH2 0x861 JUMP JUMPDEST SWAP1 POP SWAP2 SWAP1 POP JUMP JUMPDEST PUSH1 0x0 DUP2 SWAP1 POP SWAP2 SWAP1 POP JUMP JUMPDEST PUSH2 0xFA2 DUP4 PUSH2 0xF6D JUMP JUMPDEST PUSH2 0xFB6 PUSH2 0xFAE DUP3 PUSH2 0xF8F JUMP JUMPDEST DUP5 DUP5 SLOAD PUSH2 0xF11 JUMP JUMPDEST DUP3 SSTORE POP POP POP POP JUMP JUMPDEST PUSH1 0x0 SWAP1 JUMP JUMPDEST PUSH2 0xFCB PUSH2 0xFBE JUMP JUMPDEST PUSH2 0xFD6 DUP2 DUP5 DUP5 PUSH2 0xF99 JUMP JUMPDEST POP POP POP JUMP JUMPDEST JUMPDEST DUP2 DUP2 LT ISZERO PUSH2 0xFFA JUMPI PUSH2 0xFEF PUSH1 0x0 DUP3 PUSH2 0xFC3 JUMP JUMPDEST PUSH1 0x1 DUP2 ADD SWAP1 POP PUSH2 0xFDC JUMP JUMPDEST POP POP JUMP JUMPDEST PUSH1 0x1F DUP3 GT ISZERO PUSH2 0x103F JUMPI PUSH2 0x1010 DUP2 PUSH2 0xEDF JUMP JUMPDEST PUSH2 0x1019 DUP5 PUSH2 0xEF4 JUMP JUMPDEST DUP2 ADD PUSH1 0x20 DUP6 LT ISZERO PUSH2 0x1028 JUMPI DUP2 SWAP1 POP JUMPDEST PUSH2 0x103C PUSH2 0x1034 DUP6 PUSH2 0xEF4 JUMP JUMPDEST DUP4 ADD DUP3 PUSH2 0xFDB JUMP JUMPDEST POP POP JUMPDEST POP POP POP JUMP JUMPDEST PUSH1 0x0 DUP3 DUP3 SHR SWAP1 POP SWAP3 SWAP2 POP POP JUMP JUMPDEST PUSH1 0x0 PUSH2 0x1062 PUSH1 0x0 NOT DUP5 PUSH1 0x8 MUL PUSH2 0x1044 JUMP JUMPDEST NOT DUP1 DUP4 AND SWAP2 POP POP SWAP3 SWAP2 POP POP JUMP JUMPDEST PUSH1 0x0 PUSH2 0x107B DUP4 DUP4 PUSH2 0x1051 JUMP JUMPDEST SWAP2 POP DUP3 PUSH1 0x2 MUL DUP3 OR SWAP1 POP SWAP3 SWAP2 POP POP JUMP JUMPDEST PUSH2 0x1094 DUP3 PUSH2 0x8E6 JUMP JUMPDEST PUSH8 0xFFFFFFFFFFFFFFFF DUP2 GT ISZERO PUSH2 0x10AD JUMPI PUSH2 0x10AC PUSH2 0x9F6 JUMP JUMPDEST JUMPDEST PUSH2 0x10B7 DUP3 SLOAD PUSH2 0xE42 JUMP JUMPDEST PUSH2 0x10C2 DUP3 DUP3 DUP6 PUSH2 0xFFE JUMP JUMPDEST PUSH1 0x0 PUSH1 0x20 SWAP1 POP PUSH1 0x1F DUP4 GT PUSH1 0x1 DUP2 EQ PUSH2 0x10F5 JUMPI PUSH1 0x0 DUP5 ISZERO PUSH2 0x10E3 JUMPI DUP3 DUP8 ADD MLOAD SWAP1 POP JUMPDEST PUSH2 0x10ED DUP6 DUP3 PUSH2 0x106F JUMP JUMPDEST DUP7 SSTORE POP PUSH2 0x1155 JUMP JUMPDEST PUSH1 0x1F NOT DUP5 AND PUSH2 0x1103 DUP7 PUSH2 0xEDF JUMP JUMPDEST PUSH1 0x0 JUMPDEST DUP3 DUP2 LT ISZERO PUSH2 0x112B JUMPI DUP5 DUP10 ADD MLOAD DUP3 SSTORE PUSH1 0x1 DUP3 ADD SWAP2 POP PUSH1 0x20 DUP6 ADD SWAP5 POP PUSH1 0x20 DUP2 ADD SWAP1 POP PUSH2 0x1106 JUMP JUMPDEST DUP7 DUP4 LT ISZERO PUSH2 0x1148 JUMPI DUP5 DUP10 ADD MLOAD PUSH2 0x1144 PUSH1 0x1F DUP10 AND DUP3 PUSH2 0x1051 JUMP JUMPDEST DUP4 SSTORE POP JUMPDEST PUSH1 0x1 PUSH1 0x2 DUP9 MUL ADD DUP9 SSTORE POP POP POP JUMPDEST POP POP POP POP POP POP JUMP JUMPDEST PUSH32 0x6E6F7420746865206F776E657200000000000000000000000000000000000000 PUSH1 0x0 DUP3 ADD MSTORE POP JUMP JUMPDEST PUSH1 0x0 PUSH2 0x1193 PUSH1 0xD DUP4 PUSH2 0x8F1 JUMP JUMPDEST SWAP2 POP PUSH2 0x119E DUP3 PUSH2 0x115D JUMP JUMPDEST PUSH1 0x20 DUP3 ADD SWAP1 POP SWAP2 SWAP1 POP JUMP JUMPDEST PUSH1 0x0 PUSH1 0x20 DUP3 ADD SWAP1 POP DUP2 DUP2 SUB PUSH1 0x0 DUP4 ADD MSTORE PUSH2 0x11C2 DUP2 PUSH2 0x1186 JUMP JUMPDEST SWAP1 POP SWAP2 SWAP1 POP JUMP JUMPDEST PUSH32 0x4E487B7100000000000000000000000000000000000000000000000000000000 PUSH1 0x0 MSTORE PUSH1 0x32 PUSH1 0x4 MSTORE PUSH1 0x24 PUSH1 0x0 REVERT INVALID LOG2 PUSH5 0x6970667358 0x22 SLT KECCAK256 0x4D 0xCB KECCAK256 INVALID 0xD9 JUMP PUSH7 0xB1D99938C93901 SELFDESTRUCT 0x26 CALLVALUE SWAP1 GASLIMIT NOT PUSH30 0x699E9089B4121415DDA4D364736F6C634300081200330000000000000000 "
				},
				"gasEstimates": {
					"creation": {
						"codeDepositCost": "930800",
						"executionCost": "47340",
						"totalCost": "978140"
					},
					"external": {
						"MAX_TWEET_LENGTH()": "2452",
						"changeTweetLength(uint256)": "24687",
						"createTweet(string)": "infinite",
						"getAllTweet(address)": "infinite",
						"getTweets(uint256)": "infinite",
						"owner()": "2533",
						"tweets(address,uint256)": "infinite"
					}
				},
				"methodIdentifiers": {
					"MAX_TWEET_LENGTH()": "6eb10797",
					"changeTweetLength(uint256)": "888a7880",
					"createTweet(string)": "7c9cd2bc",
					"getAllTweet(address)": "b64988b8",
					"getTweets(uint256)": "ed9bb8d7",
					"owner()": "8da5cb5b",
					"tweets(address,uint256)": "05a1b4a9"
				}
			},
			"storageLayout": {
				"storage": [
					{
						"astId": 3,
						"contract": "contract/twitter-modifier.sol:Twitter",
						"label": "owner",
						"offset": 0,
						"slot": "0",
						"type": "t_address"
					},
					{
						"astId": 6,
						"contract": "contract/twitter-modifier.sol:Twitter",
						"label": "MAX_TWEET_LENGTH",
						"offset": 0,
						"slot": "1",
						"type": "t_uint256"
					},
					{
						"astId": 21,
						"contract": "contract/twitter-modifier.sol:Twitter",
						"label": "tweets",
						"offset": 0,
						"slot": "2",
						"type": "t_mapping(t_address,t_array(t_struct(Tweet)15_storage)dyn_storage)"
					}
				],
				"types": {
					"t_address": {
						"encoding": "inplace",
						"label": "address",
						"numberOfBytes": "20"
					},
					"t_array(t_struct(Tweet)15_storage)dyn_storage": {
						"base": "t_struct(Tweet)15_storage",
						"encoding": "dynamic_array",
						"label": "struct Twitter.Tweet[]",
						"numberOfBytes": "32"
					},
					"t_mapping(t_address,t_array(t_struct(Tweet)15_storage)dyn_storage)": {
						"encoding": "mapping",
						"key": "t_address",
						"label": "mapping(address => struct Twitter.Tweet[])",
						"numberOfBytes": "32",
						"value": "t_array(t_struct(Tweet)15_storage)dyn_storage"
					},
					"t_string_storage": {
						"encoding": "bytes",
						"label": "string",
						"numberOfBytes": "32"
					},
					"t_struct(Tweet)15_storage": {
						"encoding": "inplace",
						"label": "struct Twitter.Tweet",
						"members": [
							{
								"astId": 8,
								"contract": "contract/twitter-modifier.sol:Twitter",
								"label": "author",
								"offset": 0,
								"slot": "0",
								"type": "t_address"
							},
							{
								"astId": 10,
								"contract": "contract/twitter-modifier.sol:Twitter",
								"label": "content",
								"offset": 0,
								"slot": "1",
								"type": "t_string_storage"
							},
							{
								"astId": 12,
								"contract": "contract/twitter-modifier.sol:Twitter",
								"label": "timestamp",
								"offset": 0,
								"slot": "2",
								"type": "t_uint256"
							},
							{
								"astId": 14,
								"contract": "contract/twitter-modifier.sol:Twitter",
								"label": "likes",
								"offset": 0,
								"slot": "3",
								"type": "t_uint256"
							}
						],
						"numberOfBytes": "128"
					},
					"t_uint256": {
						"encoding": "inplace",
						"label": "uint256",
						"numberOfBytes": "32"
					}
				}
			},
			"userdoc": {
				"kind": "user",
				"methods": {},
				"version": 1
			}
		}
	}
}