{
	"contract/twitter-modifier-task.sol": {
		"PausableToken": {
			"abi": [
				{
					"inputs": [],
					"stateMutability": "nonpayable",
					"type": "constructor"
				},
				{
					"inputs": [
						{
							"internalType": "address",
							"name": "",
							"type": "address"
						}
					],
					"name": "balances",
					"outputs": [
						{
							"internalType": "uint256",
							"name": "",
							"type": "uint256"
						}
					],
					"stateMutability": "view",
					"type": "function"
				},
				{
					"inputs": [],
					"name": "checkPause",
					"outputs": [
						{
							"internalType": "bool",
							"name": "",
							"type": "bool"
						}
					],
					"stateMutability": "view",
					"type": "function"
				},
				{
					"inputs": [],
					"name": "owner",
					"outputs": [
						{
							"internalType": "address",
							"name": "",
							"type": "address"
						}
					],
					"stateMutability": "view",
					"type": "function"
				},
				{
					"inputs": [],
					"name": "pause",
					"outputs": [],
					"stateMutability": "nonpayable",
					"type": "function"
				},
				{
					"inputs": [],
					"name": "paused",
					"outputs": [
						{
							"internalType": "bool",
							"name": "",
							"type": "bool"
						}
					],
					"stateMutability": "view",
					"type": "function"
				},
				{
					"inputs": [],
					"name": "unPause",
					"outputs": [],
					"stateMutability": "nonpayable",
					"type": "function"
				}
			],
			"devdoc": {
				"kind": "dev",
				"methods": {},
				"version": 1
			},
			"evm": {
				"assembly": "    /* \"contract/twitter-modifier-task.sol\":60:939  contract PausableToken {... */\n  mstore(0x40, 0x80)\n    /* \"contract/twitter-modifier-task.sol\":194:302  constructor(){... */\n  callvalue\n  dup1\n  iszero\n  tag_1\n  jumpi\n  0x00\n  dup1\n  revert\ntag_1:\n  pop\n    /* \"contract/twitter-modifier-task.sol\":226:236  msg.sender */\n  caller\n    /* \"contract/twitter-modifier-task.sol\":218:223  owner */\n  0x00\n  dup1\n    /* \"contract/twitter-modifier-task.sol\":218:236  owner = msg.sender */\n  0x0100\n  exp\n  dup2\n  sload\n  dup2\n  0xffffffffffffffffffffffffffffffffffffffff\n  mul\n  not\n  and\n  swap1\n  dup4\n  0xffffffffffffffffffffffffffffffffffffffff\n  and\n  mul\n  or\n  swap1\n  sstore\n  pop\n    /* \"contract/twitter-modifier-task.sol\":256:261  false */\n  0x00\n    /* \"contract/twitter-modifier-task.sol\":247:253  paused */\n  dup1\n  0x14\n    /* \"contract/twitter-modifier-task.sol\":247:261  paused = false */\n  0x0100\n  exp\n  dup2\n  sload\n  dup2\n  0xff\n  mul\n  not\n  and\n  swap1\n  dup4\n  iszero\n  iszero\n  mul\n  or\n  swap1\n  sstore\n  pop\n    /* \"contract/twitter-modifier-task.sol\":290:294  4000 */\n  0x0fa0\n    /* \"contract/twitter-modifier-task.sol\":272:280  balances */\n  0x01\n    /* \"contract/twitter-modifier-task.sol\":272:287  balances[owner] */\n  0x00\n    /* \"contract/twitter-modifier-task.sol\":281:286  owner */\n  dup1\n  0x00\n  swap1\n  sload\n  swap1\n  0x0100\n  exp\n  swap1\n  div\n  0xffffffffffffffffffffffffffffffffffffffff\n  and\n    /* \"contract/twitter-modifier-task.sol\":272:287  balances[owner] */\n  0xffffffffffffffffffffffffffffffffffffffff\n  and\n  0xffffffffffffffffffffffffffffffffffffffff\n  and\n  dup2\n  mstore\n  0x20\n  add\n  swap1\n  dup2\n  mstore\n  0x20\n  add\n  0x00\n  keccak256\n    /* \"contract/twitter-modifier-task.sol\":272:294  balances[owner] = 4000 */\n  dup2\n  swap1\n  sstore\n  pop\n    /* \"contract/twitter-modifier-task.sol\":60:939  contract PausableToken {... */\n  dataSize(sub_0)\n  dup1\n  dataOffset(sub_0)\n  0x00\n  codecopy\n  0x00\n  return\nstop\n\nsub_0: assembly {\n        /* \"contract/twitter-modifier-task.sol\":60:939  contract PausableToken {... */\n      mstore(0x40, 0x80)\n      callvalue\n      dup1\n      iszero\n      tag_1\n      jumpi\n      0x00\n      dup1\n      revert\n    tag_1:\n      pop\n      jumpi(tag_2, lt(calldatasize, 0x04))\n      shr(0xe0, calldataload(0x00))\n      dup1\n      0x27e235e3\n      eq\n      tag_3\n      jumpi\n      dup1\n      0x5c975abb\n      eq\n      tag_4\n      jumpi\n      dup1\n      0x8456cb59\n      eq\n      tag_5\n      jumpi\n      dup1\n      0x8da5cb5b\n      eq\n      tag_6\n      jumpi\n      dup1\n      0xa0b9f0e1\n      eq\n      tag_7\n      jumpi\n      dup1\n      0xf7b188a5\n      eq\n      tag_8\n      jumpi\n    tag_2:\n      0x00\n      dup1\n      revert\n        /* \"contract/twitter-modifier-task.sol\":142:185  mapping(address => uint256) public balances */\n    tag_3:\n      tag_9\n      0x04\n      dup1\n      calldatasize\n      sub\n      dup2\n      add\n      swap1\n      tag_10\n      swap2\n      swap1\n      tag_11\n      jump\t// in\n    tag_10:\n      tag_12\n      jump\t// in\n    tag_9:\n      mload(0x40)\n      tag_13\n      swap2\n      swap1\n      tag_14\n      jump\t// in\n    tag_13:\n      mload(0x40)\n      dup1\n      swap2\n      sub\n      swap1\n      return\n        /* \"contract/twitter-modifier-task.sol\":117:135  bool public paused */\n    tag_4:\n      tag_15\n      tag_16\n      jump\t// in\n    tag_15:\n      mload(0x40)\n      tag_17\n      swap2\n      swap1\n      tag_18\n      jump\t// in\n    tag_17:\n      mload(0x40)\n      dup1\n      swap2\n      sub\n      swap1\n      return\n        /* \"contract/twitter-modifier-task.sol\":686:807  function pause() public onlyOwner {... */\n    tag_5:\n      tag_19\n      tag_20\n      jump\t// in\n    tag_19:\n      stop\n        /* \"contract/twitter-modifier-task.sol\":90:110  address public owner */\n    tag_6:\n      tag_21\n      tag_22\n      jump\t// in\n    tag_21:\n      mload(0x40)\n      tag_23\n      swap2\n      swap1\n      tag_24\n      jump\t// in\n    tag_23:\n      mload(0x40)\n      dup1\n      swap2\n      sub\n      swap1\n      return\n        /* \"contract/twitter-modifier-task.sol\":536:678  function checkPause() public view onlyOwner returns (bool) {... */\n    tag_7:\n      tag_25\n      tag_26\n      jump\t// in\n    tag_25:\n      mload(0x40)\n      tag_27\n      swap2\n      swap1\n      tag_18\n      jump\t// in\n    tag_27:\n      mload(0x40)\n      dup1\n      swap2\n      sub\n      swap1\n      return\n        /* \"contract/twitter-modifier-task.sol\":815:935  function unPause() public onlyOwner {... */\n    tag_8:\n      tag_28\n      tag_29\n      jump\t// in\n    tag_28:\n      stop\n        /* \"contract/twitter-modifier-task.sol\":142:185  mapping(address => uint256) public balances */\n    tag_12:\n      mstore(0x20, 0x01)\n      dup1\n      0x00\n      mstore\n      keccak256(0x00, 0x40)\n      0x00\n      swap2\n      pop\n      swap1\n      pop\n      sload\n      dup2\n      jump\t// out\n        /* \"contract/twitter-modifier-task.sol\":117:135  bool public paused */\n    tag_16:\n      0x00\n      0x14\n      swap1\n      sload\n      swap1\n      0x0100\n      exp\n      swap1\n      div\n      0xff\n      and\n      dup2\n      jump\t// out\n        /* \"contract/twitter-modifier-task.sol\":686:807  function pause() public onlyOwner {... */\n    tag_20:\n        /* \"contract/twitter-modifier-task.sol\":407:412  owner */\n      0x00\n      dup1\n      sload\n      swap1\n      0x0100\n      exp\n      swap1\n      div\n      0xffffffffffffffffffffffffffffffffffffffff\n      and\n        /* \"contract/twitter-modifier-task.sol\":393:412  msg.sender == owner */\n      0xffffffffffffffffffffffffffffffffffffffff\n      and\n        /* \"contract/twitter-modifier-task.sol\":393:403  msg.sender */\n      caller\n        /* \"contract/twitter-modifier-task.sol\":393:412  msg.sender == owner */\n      0xffffffffffffffffffffffffffffffffffffffff\n      and\n      eq\n        /* \"contract/twitter-modifier-task.sol\":385:431  require(msg.sender == owner, \"not the owner!\") */\n      tag_31\n      jumpi\n      mload(0x40)\n      0x08c379a000000000000000000000000000000000000000000000000000000000\n      dup2\n      mstore\n      0x04\n      add\n      tag_32\n      swap1\n      tag_33\n      jump\t// in\n    tag_32:\n      mload(0x40)\n      dup1\n      swap2\n      sub\n      swap1\n      revert\n    tag_31:\n        /* \"contract/twitter-modifier-task.sol\":749:753  true */\n      0x01\n        /* \"contract/twitter-modifier-task.sol\":739:753  paused != true */\n      iszero\n      iszero\n        /* \"contract/twitter-modifier-task.sol\":739:745  paused */\n      0x00\n      0x14\n      swap1\n      sload\n      swap1\n      0x0100\n      exp\n      swap1\n      div\n      0xff\n      and\n        /* \"contract/twitter-modifier-task.sol\":739:753  paused != true */\n      iszero\n      iszero\n      sub\n        /* \"contract/twitter-modifier-task.sol\":731:773  require(paused != true, \"Already paused!\") */\n      tag_35\n      jumpi\n      mload(0x40)\n      0x08c379a000000000000000000000000000000000000000000000000000000000\n      dup2\n      mstore\n      0x04\n      add\n      tag_36\n      swap1\n      tag_37\n      jump\t// in\n    tag_36:\n      mload(0x40)\n      dup1\n      swap2\n      sub\n      swap1\n      revert\n    tag_35:\n        /* \"contract/twitter-modifier-task.sol\":793:797  true */\n      0x01\n        /* \"contract/twitter-modifier-task.sol\":784:790  paused */\n      0x00\n      0x14\n        /* \"contract/twitter-modifier-task.sol\":784:797  paused = true */\n      0x0100\n      exp\n      dup2\n      sload\n      dup2\n      0xff\n      mul\n      not\n      and\n      swap1\n      dup4\n      iszero\n      iszero\n      mul\n      or\n      swap1\n      sstore\n      pop\n        /* \"contract/twitter-modifier-task.sol\":686:807  function pause() public onlyOwner {... */\n      jump\t// out\n        /* \"contract/twitter-modifier-task.sol\":90:110  address public owner */\n    tag_22:\n      0x00\n      dup1\n      sload\n      swap1\n      0x0100\n      exp\n      swap1\n      div\n      0xffffffffffffffffffffffffffffffffffffffff\n      and\n      dup2\n      jump\t// out\n        /* \"contract/twitter-modifier-task.sol\":536:678  function checkPause() public view onlyOwner returns (bool) {... */\n    tag_26:\n        /* \"contract/twitter-modifier-task.sol\":589:593  bool */\n      0x00\n        /* \"contract/twitter-modifier-task.sol\":407:412  owner */\n      dup1\n      0x00\n      swap1\n      sload\n      swap1\n      0x0100\n      exp\n      swap1\n      div\n      0xffffffffffffffffffffffffffffffffffffffff\n      and\n        /* \"contract/twitter-modifier-task.sol\":393:412  msg.sender == owner */\n      0xffffffffffffffffffffffffffffffffffffffff\n      and\n        /* \"contract/twitter-modifier-task.sol\":393:403  msg.sender */\n      caller\n        /* \"contract/twitter-modifier-task.sol\":393:412  msg.sender == owner */\n      0xffffffffffffffffffffffffffffffffffffffff\n      and\n      eq\n        /* \"contract/twitter-modifier-task.sol\":385:431  require(msg.sender == owner, \"not the owner!\") */\n      tag_39\n      jumpi\n      mload(0x40)\n      0x08c379a000000000000000000000000000000000000000000000000000000000\n      dup2\n      mstore\n      0x04\n      add\n      tag_40\n      swap1\n      tag_33\n      jump\t// in\n    tag_40:\n      mload(0x40)\n      dup1\n      swap2\n      sub\n      swap1\n      revert\n    tag_39:\n        /* \"contract/twitter-modifier-task.sol\":624:628  true */\n      0x01\n        /* \"contract/twitter-modifier-task.sol\":614:628  paused == true */\n      iszero\n      iszero\n        /* \"contract/twitter-modifier-task.sol\":614:620  paused */\n      0x00\n      0x14\n      swap1\n      sload\n      swap1\n      0x0100\n      exp\n      swap1\n      div\n      0xff\n      and\n        /* \"contract/twitter-modifier-task.sol\":614:628  paused == true */\n      iszero\n      iszero\n      eq\n        /* \"contract/twitter-modifier-task.sol\":606:644  require(paused == true, \"not paused!\") */\n      tag_42\n      jumpi\n      mload(0x40)\n      0x08c379a000000000000000000000000000000000000000000000000000000000\n      dup2\n      mstore\n      0x04\n      add\n      tag_43\n      swap1\n      tag_44\n      jump\t// in\n    tag_43:\n      mload(0x40)\n      dup1\n      swap2\n      sub\n      swap1\n      revert\n    tag_42:\n        /* \"contract/twitter-modifier-task.sol\":664:670  paused */\n      0x00\n      0x14\n      swap1\n      sload\n      swap1\n      0x0100\n      exp\n      swap1\n      div\n      0xff\n      and\n        /* \"contract/twitter-modifier-task.sol\":657:670  return paused */\n      swap1\n      pop\n        /* \"contract/twitter-modifier-task.sol\":536:678  function checkPause() public view onlyOwner returns (bool) {... */\n      swap1\n      jump\t// out\n        /* \"contract/twitter-modifier-task.sol\":815:935  function unPause() public onlyOwner {... */\n    tag_29:\n        /* \"contract/twitter-modifier-task.sol\":407:412  owner */\n      0x00\n      dup1\n      sload\n      swap1\n      0x0100\n      exp\n      swap1\n      div\n      0xffffffffffffffffffffffffffffffffffffffff\n      and\n        /* \"contract/twitter-modifier-task.sol\":393:412  msg.sender == owner */\n      0xffffffffffffffffffffffffffffffffffffffff\n      and\n        /* \"contract/twitter-modifier-task.sol\":393:403  msg.sender */\n      caller\n        /* \"contract/twitter-modifier-task.sol\":393:412  msg.sender == owner */\n      0xffffffffffffffffffffffffffffffffffffffff\n      and\n      eq\n        /* \"contract/twitter-modifier-task.sol\":385:431  require(msg.sender == owner, \"not the owner!\") */\n      tag_46\n      jumpi\n      mload(0x40)\n      0x08c379a000000000000000000000000000000000000000000000000000000000\n      dup2\n      mstore\n      0x04\n      add\n      tag_47\n      swap1\n      tag_33\n      jump\t// in\n    tag_47:\n      mload(0x40)\n      dup1\n      swap2\n      sub\n      swap1\n      revert\n    tag_46:\n        /* \"contract/twitter-modifier-task.sol\":880:884  true */\n      0x01\n        /* \"contract/twitter-modifier-task.sol\":870:884  paused == true */\n      iszero\n      iszero\n        /* \"contract/twitter-modifier-task.sol\":870:876  paused */\n      0x00\n      0x14\n      swap1\n      sload\n      swap1\n      0x0100\n      exp\n      swap1\n      div\n      0xff\n      and\n        /* \"contract/twitter-modifier-task.sol\":870:884  paused == true */\n      iszero\n      iszero\n      eq\n        /* \"contract/twitter-modifier-task.sol\":862:900  require(paused == true, \"Not paused!\") */\n      tag_49\n      jumpi\n      mload(0x40)\n      0x08c379a000000000000000000000000000000000000000000000000000000000\n      dup2\n      mstore\n      0x04\n      add\n      tag_50\n      swap1\n      tag_51\n      jump\t// in\n    tag_50:\n      mload(0x40)\n      dup1\n      swap2\n      sub\n      swap1\n      revert\n    tag_49:\n        /* \"contract/twitter-modifier-task.sol\":920:925  false */\n      0x00\n        /* \"contract/twitter-modifier-task.sol\":911:917  paused */\n      dup1\n      0x14\n        /* \"contract/twitter-modifier-task.sol\":911:925  paused = false */\n      0x0100\n      exp\n      dup2\n      sload\n      dup2\n      0xff\n      mul\n      not\n      and\n      swap1\n      dup4\n      iszero\n      iszero\n      mul\n      or\n      swap1\n      sstore\n      pop\n        /* \"contract/twitter-modifier-task.sol\":815:935  function unPause() public onlyOwner {... */\n      jump\t// out\n        /* \"#utility.yul\":88:205   */\n    tag_53:\n        /* \"#utility.yul\":197:198   */\n      0x00\n        /* \"#utility.yul\":194:195   */\n      dup1\n        /* \"#utility.yul\":187:199   */\n      revert\n        /* \"#utility.yul\":334:460   */\n    tag_55:\n        /* \"#utility.yul\":371:378   */\n      0x00\n        /* \"#utility.yul\":411:453   */\n      0xffffffffffffffffffffffffffffffffffffffff\n        /* \"#utility.yul\":404:409   */\n      dup3\n        /* \"#utility.yul\":400:454   */\n      and\n        /* \"#utility.yul\":389:454   */\n      swap1\n      pop\n        /* \"#utility.yul\":334:460   */\n      swap2\n      swap1\n      pop\n      jump\t// out\n        /* \"#utility.yul\":466:562   */\n    tag_56:\n        /* \"#utility.yul\":503:510   */\n      0x00\n        /* \"#utility.yul\":532:556   */\n      tag_79\n        /* \"#utility.yul\":550:555   */\n      dup3\n        /* \"#utility.yul\":532:556   */\n      tag_55\n      jump\t// in\n    tag_79:\n        /* \"#utility.yul\":521:556   */\n      swap1\n      pop\n        /* \"#utility.yul\":466:562   */\n      swap2\n      swap1\n      pop\n      jump\t// out\n        /* \"#utility.yul\":568:690   */\n    tag_57:\n        /* \"#utility.yul\":641:665   */\n      tag_81\n        /* \"#utility.yul\":659:664   */\n      dup2\n        /* \"#utility.yul\":641:665   */\n      tag_56\n      jump\t// in\n    tag_81:\n        /* \"#utility.yul\":634:639   */\n      dup2\n        /* \"#utility.yul\":631:666   */\n      eq\n        /* \"#utility.yul\":621:684   */\n      tag_82\n      jumpi\n        /* \"#utility.yul\":680:681   */\n      0x00\n        /* \"#utility.yul\":677:678   */\n      dup1\n        /* \"#utility.yul\":670:682   */\n      revert\n        /* \"#utility.yul\":621:684   */\n    tag_82:\n        /* \"#utility.yul\":568:690   */\n      pop\n      jump\t// out\n        /* \"#utility.yul\":696:835   */\n    tag_58:\n        /* \"#utility.yul\":742:747   */\n      0x00\n        /* \"#utility.yul\":780:786   */\n      dup2\n        /* \"#utility.yul\":767:787   */\n      calldataload\n        /* \"#utility.yul\":758:787   */\n      swap1\n      pop\n        /* \"#utility.yul\":796:829   */\n      tag_84\n        /* \"#utility.yul\":823:828   */\n      dup2\n        /* \"#utility.yul\":796:829   */\n      tag_57\n      jump\t// in\n    tag_84:\n        /* \"#utility.yul\":696:835   */\n      swap3\n      swap2\n      pop\n      pop\n      jump\t// out\n        /* \"#utility.yul\":841:1170   */\n    tag_11:\n        /* \"#utility.yul\":900:906   */\n      0x00\n        /* \"#utility.yul\":949:951   */\n      0x20\n        /* \"#utility.yul\":937:946   */\n      dup3\n        /* \"#utility.yul\":928:935   */\n      dup5\n        /* \"#utility.yul\":924:947   */\n      sub\n        /* \"#utility.yul\":920:952   */\n      slt\n        /* \"#utility.yul\":917:1036   */\n      iszero\n      tag_86\n      jumpi\n        /* \"#utility.yul\":955:1034   */\n      tag_87\n      tag_53\n      jump\t// in\n    tag_87:\n        /* \"#utility.yul\":917:1036   */\n    tag_86:\n        /* \"#utility.yul\":1075:1076   */\n      0x00\n        /* \"#utility.yul\":1100:1153   */\n      tag_88\n        /* \"#utility.yul\":1145:1152   */\n      dup5\n        /* \"#utility.yul\":1136:1142   */\n      dup3\n        /* \"#utility.yul\":1125:1134   */\n      dup6\n        /* \"#utility.yul\":1121:1143   */\n      add\n        /* \"#utility.yul\":1100:1153   */\n      tag_58\n      jump\t// in\n    tag_88:\n        /* \"#utility.yul\":1090:1153   */\n      swap2\n      pop\n        /* \"#utility.yul\":1046:1163   */\n      pop\n        /* \"#utility.yul\":841:1170   */\n      swap3\n      swap2\n      pop\n      pop\n      jump\t// out\n        /* \"#utility.yul\":1176:1253   */\n    tag_59:\n        /* \"#utility.yul\":1213:1220   */\n      0x00\n        /* \"#utility.yul\":1242:1247   */\n      dup2\n        /* \"#utility.yul\":1231:1247   */\n      swap1\n      pop\n        /* \"#utility.yul\":1176:1253   */\n      swap2\n      swap1\n      pop\n      jump\t// out\n        /* \"#utility.yul\":1259:1377   */\n    tag_60:\n        /* \"#utility.yul\":1346:1370   */\n      tag_91\n        /* \"#utility.yul\":1364:1369   */\n      dup2\n        /* \"#utility.yul\":1346:1370   */\n      tag_59\n      jump\t// in\n    tag_91:\n        /* \"#utility.yul\":1341:1344   */\n      dup3\n        /* \"#utility.yul\":1334:1371   */\n      mstore\n        /* \"#utility.yul\":1259:1377   */\n      pop\n      pop\n      jump\t// out\n        /* \"#utility.yul\":1383:1605   */\n    tag_14:\n        /* \"#utility.yul\":1476:1480   */\n      0x00\n        /* \"#utility.yul\":1514:1516   */\n      0x20\n        /* \"#utility.yul\":1503:1512   */\n      dup3\n        /* \"#utility.yul\":1499:1517   */\n      add\n        /* \"#utility.yul\":1491:1517   */\n      swap1\n      pop\n        /* \"#utility.yul\":1527:1598   */\n      tag_93\n        /* \"#utility.yul\":1595:1596   */\n      0x00\n        /* \"#utility.yul\":1584:1593   */\n      dup4\n        /* \"#utility.yul\":1580:1597   */\n      add\n        /* \"#utility.yul\":1571:1577   */\n      dup5\n        /* \"#utility.yul\":1527:1598   */\n      tag_60\n      jump\t// in\n    tag_93:\n        /* \"#utility.yul\":1383:1605   */\n      swap3\n      swap2\n      pop\n      pop\n      jump\t// out\n        /* \"#utility.yul\":1611:1701   */\n    tag_61:\n        /* \"#utility.yul\":1645:1652   */\n      0x00\n        /* \"#utility.yul\":1688:1693   */\n      dup2\n        /* \"#utility.yul\":1681:1694   */\n      iszero\n        /* \"#utility.yul\":1674:1695   */\n      iszero\n        /* \"#utility.yul\":1663:1695   */\n      swap1\n      pop\n        /* \"#utility.yul\":1611:1701   */\n      swap2\n      swap1\n      pop\n      jump\t// out\n        /* \"#utility.yul\":1707:1816   */\n    tag_62:\n        /* \"#utility.yul\":1788:1809   */\n      tag_96\n        /* \"#utility.yul\":1803:1808   */\n      dup2\n        /* \"#utility.yul\":1788:1809   */\n      tag_61\n      jump\t// in\n    tag_96:\n        /* \"#utility.yul\":1783:1786   */\n      dup3\n        /* \"#utility.yul\":1776:1810   */\n      mstore\n        /* \"#utility.yul\":1707:1816   */\n      pop\n      pop\n      jump\t// out\n        /* \"#utility.yul\":1822:2032   */\n    tag_18:\n        /* \"#utility.yul\":1909:1913   */\n      0x00\n        /* \"#utility.yul\":1947:1949   */\n      0x20\n        /* \"#utility.yul\":1936:1945   */\n      dup3\n        /* \"#utility.yul\":1932:1950   */\n      add\n        /* \"#utility.yul\":1924:1950   */\n      swap1\n      pop\n        /* \"#utility.yul\":1960:2025   */\n      tag_98\n        /* \"#utility.yul\":2022:2023   */\n      0x00\n        /* \"#utility.yul\":2011:2020   */\n      dup4\n        /* \"#utility.yul\":2007:2024   */\n      add\n        /* \"#utility.yul\":1998:2004   */\n      dup5\n        /* \"#utility.yul\":1960:2025   */\n      tag_62\n      jump\t// in\n    tag_98:\n        /* \"#utility.yul\":1822:2032   */\n      swap3\n      swap2\n      pop\n      pop\n      jump\t// out\n        /* \"#utility.yul\":2038:2156   */\n    tag_63:\n        /* \"#utility.yul\":2125:2149   */\n      tag_100\n        /* \"#utility.yul\":2143:2148   */\n      dup2\n        /* \"#utility.yul\":2125:2149   */\n      tag_56\n      jump\t// in\n    tag_100:\n        /* \"#utility.yul\":2120:2123   */\n      dup3\n        /* \"#utility.yul\":2113:2150   */\n      mstore\n        /* \"#utility.yul\":2038:2156   */\n      pop\n      pop\n      jump\t// out\n        /* \"#utility.yul\":2162:2384   */\n    tag_24:\n        /* \"#utility.yul\":2255:2259   */\n      0x00\n        /* \"#utility.yul\":2293:2295   */\n      0x20\n        /* \"#utility.yul\":2282:2291   */\n      dup3\n        /* \"#utility.yul\":2278:2296   */\n      add\n        /* \"#utility.yul\":2270:2296   */\n      swap1\n      pop\n        /* \"#utility.yul\":2306:2377   */\n      tag_102\n        /* \"#utility.yul\":2374:2375   */\n      0x00\n        /* \"#utility.yul\":2363:2372   */\n      dup4\n        /* \"#utility.yul\":2359:2376   */\n      add\n        /* \"#utility.yul\":2350:2356   */\n      dup5\n        /* \"#utility.yul\":2306:2377   */\n      tag_63\n      jump\t// in\n    tag_102:\n        /* \"#utility.yul\":2162:2384   */\n      swap3\n      swap2\n      pop\n      pop\n      jump\t// out\n        /* \"#utility.yul\":2390:2559   */\n    tag_64:\n        /* \"#utility.yul\":2474:2485   */\n      0x00\n        /* \"#utility.yul\":2508:2514   */\n      dup3\n        /* \"#utility.yul\":2503:2506   */\n      dup3\n        /* \"#utility.yul\":2496:2515   */\n      mstore\n        /* \"#utility.yul\":2548:2552   */\n      0x20\n        /* \"#utility.yul\":2543:2546   */\n      dup3\n        /* \"#utility.yul\":2539:2553   */\n      add\n        /* \"#utility.yul\":2524:2553   */\n      swap1\n      pop\n        /* \"#utility.yul\":2390:2559   */\n      swap3\n      swap2\n      pop\n      pop\n      jump\t// out\n        /* \"#utility.yul\":2565:2729   */\n    tag_65:\n        /* \"#utility.yul\":2705:2721   */\n      0x6e6f7420746865206f776e657221000000000000000000000000000000000000\n        /* \"#utility.yul\":2701:2702   */\n      0x00\n        /* \"#utility.yul\":2693:2699   */\n      dup3\n        /* \"#utility.yul\":2689:2703   */\n      add\n        /* \"#utility.yul\":2682:2722   */\n      mstore\n        /* \"#utility.yul\":2565:2729   */\n      pop\n      jump\t// out\n        /* \"#utility.yul\":2735:3101   */\n    tag_66:\n        /* \"#utility.yul\":2877:2880   */\n      0x00\n        /* \"#utility.yul\":2898:2965   */\n      tag_106\n        /* \"#utility.yul\":2962:2964   */\n      0x0e\n        /* \"#utility.yul\":2957:2960   */\n      dup4\n        /* \"#utility.yul\":2898:2965   */\n      tag_64\n      jump\t// in\n    tag_106:\n        /* \"#utility.yul\":2891:2965   */\n      swap2\n      pop\n        /* \"#utility.yul\":2974:3067   */\n      tag_107\n        /* \"#utility.yul\":3063:3066   */\n      dup3\n        /* \"#utility.yul\":2974:3067   */\n      tag_65\n      jump\t// in\n    tag_107:\n        /* \"#utility.yul\":3092:3094   */\n      0x20\n        /* \"#utility.yul\":3087:3090   */\n      dup3\n        /* \"#utility.yul\":3083:3095   */\n      add\n        /* \"#utility.yul\":3076:3095   */\n      swap1\n      pop\n        /* \"#utility.yul\":2735:3101   */\n      swap2\n      swap1\n      pop\n      jump\t// out\n        /* \"#utility.yul\":3107:3526   */\n    tag_33:\n        /* \"#utility.yul\":3273:3277   */\n      0x00\n        /* \"#utility.yul\":3311:3313   */\n      0x20\n        /* \"#utility.yul\":3300:3309   */\n      dup3\n        /* \"#utility.yul\":3296:3314   */\n      add\n        /* \"#utility.yul\":3288:3314   */\n      swap1\n      pop\n        /* \"#utility.yul\":3360:3369   */\n      dup2\n        /* \"#utility.yul\":3354:3358   */\n      dup2\n        /* \"#utility.yul\":3350:3370   */\n      sub\n        /* \"#utility.yul\":3346:3347   */\n      0x00\n        /* \"#utility.yul\":3335:3344   */\n      dup4\n        /* \"#utility.yul\":3331:3348   */\n      add\n        /* \"#utility.yul\":3324:3371   */\n      mstore\n        /* \"#utility.yul\":3388:3519   */\n      tag_109\n        /* \"#utility.yul\":3514:3518   */\n      dup2\n        /* \"#utility.yul\":3388:3519   */\n      tag_66\n      jump\t// in\n    tag_109:\n        /* \"#utility.yul\":3380:3519   */\n      swap1\n      pop\n        /* \"#utility.yul\":3107:3526   */\n      swap2\n      swap1\n      pop\n      jump\t// out\n        /* \"#utility.yul\":3532:3697   */\n    tag_67:\n        /* \"#utility.yul\":3672:3689   */\n      0x416c726561647920706175736564210000000000000000000000000000000000\n        /* \"#utility.yul\":3668:3669   */\n      0x00\n        /* \"#utility.yul\":3660:3666   */\n      dup3\n        /* \"#utility.yul\":3656:3670   */\n      add\n        /* \"#utility.yul\":3649:3690   */\n      mstore\n        /* \"#utility.yul\":3532:3697   */\n      pop\n      jump\t// out\n        /* \"#utility.yul\":3703:4069   */\n    tag_68:\n        /* \"#utility.yul\":3845:3848   */\n      0x00\n        /* \"#utility.yul\":3866:3933   */\n      tag_112\n        /* \"#utility.yul\":3930:3932   */\n      0x0f\n        /* \"#utility.yul\":3925:3928   */\n      dup4\n        /* \"#utility.yul\":3866:3933   */\n      tag_64\n      jump\t// in\n    tag_112:\n        /* \"#utility.yul\":3859:3933   */\n      swap2\n      pop\n        /* \"#utility.yul\":3942:4035   */\n      tag_113\n        /* \"#utility.yul\":4031:4034   */\n      dup3\n        /* \"#utility.yul\":3942:4035   */\n      tag_67\n      jump\t// in\n    tag_113:\n        /* \"#utility.yul\":4060:4062   */\n      0x20\n        /* \"#utility.yul\":4055:4058   */\n      dup3\n        /* \"#utility.yul\":4051:4063   */\n      add\n        /* \"#utility.yul\":4044:4063   */\n      swap1\n      pop\n        /* \"#utility.yul\":3703:4069   */\n      swap2\n      swap1\n      pop\n      jump\t// out\n        /* \"#utility.yul\":4075:4494   */\n    tag_37:\n        /* \"#utility.yul\":4241:4245   */\n      0x00\n        /* \"#utility.yul\":4279:4281   */\n      0x20\n        /* \"#utility.yul\":4268:4277   */\n      dup3\n        /* \"#utility.yul\":4264:4282   */\n      add\n        /* \"#utility.yul\":4256:4282   */\n      swap1\n      pop\n        /* \"#utility.yul\":4328:4337   */\n      dup2\n        /* \"#utility.yul\":4322:4326   */\n      dup2\n        /* \"#utility.yul\":4318:4338   */\n      sub\n        /* \"#utility.yul\":4314:4315   */\n      0x00\n        /* \"#utility.yul\":4303:4312   */\n      dup4\n        /* \"#utility.yul\":4299:4316   */\n      add\n        /* \"#utility.yul\":4292:4339   */\n      mstore\n        /* \"#utility.yul\":4356:4487   */\n      tag_115\n        /* \"#utility.yul\":4482:4486   */\n      dup2\n        /* \"#utility.yul\":4356:4487   */\n      tag_68\n      jump\t// in\n    tag_115:\n        /* \"#utility.yul\":4348:4487   */\n      swap1\n      pop\n        /* \"#utility.yul\":4075:4494   */\n      swap2\n      swap1\n      pop\n      jump\t// out\n        /* \"#utility.yul\":4500:4661   */\n    tag_69:\n        /* \"#utility.yul\":4640:4653   */\n      0x6e6f742070617573656421000000000000000000000000000000000000000000\n        /* \"#utility.yul\":4636:4637   */\n      0x00\n        /* \"#utility.yul\":4628:4634   */\n      dup3\n        /* \"#utility.yul\":4624:4638   */\n      add\n        /* \"#utility.yul\":4617:4654   */\n      mstore\n        /* \"#utility.yul\":4500:4661   */\n      pop\n      jump\t// out\n        /* \"#utility.yul\":4667:5033   */\n    tag_70:\n        /* \"#utility.yul\":4809:4812   */\n      0x00\n        /* \"#utility.yul\":4830:4897   */\n      tag_118\n        /* \"#utility.yul\":4894:4896   */\n      0x0b\n        /* \"#utility.yul\":4889:4892   */\n      dup4\n        /* \"#utility.yul\":4830:4897   */\n      tag_64\n      jump\t// in\n    tag_118:\n        /* \"#utility.yul\":4823:4897   */\n      swap2\n      pop\n        /* \"#utility.yul\":4906:4999   */\n      tag_119\n        /* \"#utility.yul\":4995:4998   */\n      dup3\n        /* \"#utility.yul\":4906:4999   */\n      tag_69\n      jump\t// in\n    tag_119:\n        /* \"#utility.yul\":5024:5026   */\n      0x20\n        /* \"#utility.yul\":5019:5022   */\n      dup3\n        /* \"#utility.yul\":5015:5027   */\n      add\n        /* \"#utility.yul\":5008:5027   */\n      swap1\n      pop\n        /* \"#utility.yul\":4667:5033   */\n      swap2\n      swap1\n      pop\n      jump\t// out\n        /* \"#utility.yul\":5039:5458   */\n    tag_44:\n        /* \"#utility.yul\":5205:5209   */\n      0x00\n        /* \"#utility.yul\":5243:5245   */\n      0x20\n        /* \"#utility.yul\":5232:5241   */\n      dup3\n        /* \"#utility.yul\":5228:5246   */\n      add\n        /* \"#utility.yul\":5220:5246   */\n      swap1\n      pop\n        /* \"#utility.yul\":5292:5301   */\n      dup2\n        /* \"#utility.yul\":5286:5290   */\n      dup2\n        /* \"#utility.yul\":5282:5302   */\n      sub\n        /* \"#utility.yul\":5278:5279   */\n      0x00\n        /* \"#utility.yul\":5267:5276   */\n      dup4\n        /* \"#utility.yul\":5263:5280   */\n      add\n        /* \"#utility.yul\":5256:5303   */\n      mstore\n        /* \"#utility.yul\":5320:5451   */\n      tag_121\n        /* \"#utility.yul\":5446:5450   */\n      dup2\n        /* \"#utility.yul\":5320:5451   */\n      tag_70\n      jump\t// in\n    tag_121:\n        /* \"#utility.yul\":5312:5451   */\n      swap1\n      pop\n        /* \"#utility.yul\":5039:5458   */\n      swap2\n      swap1\n      pop\n      jump\t// out\n        /* \"#utility.yul\":5464:5625   */\n    tag_71:\n        /* \"#utility.yul\":5604:5617   */\n      0x4e6f742070617573656421000000000000000000000000000000000000000000\n        /* \"#utility.yul\":5600:5601   */\n      0x00\n        /* \"#utility.yul\":5592:5598   */\n      dup3\n        /* \"#utility.yul\":5588:5602   */\n      add\n        /* \"#utility.yul\":5581:5618   */\n      mstore\n        /* \"#utility.yul\":5464:5625   */\n      pop\n      jump\t// out\n        /* \"#utility.yul\":5631:5997   */\n    tag_72:\n        /* \"#utility.yul\":5773:5776   */\n      0x00\n        /* \"#utility.yul\":5794:5861   */\n      tag_124\n        /* \"#utility.yul\":5858:5860   */\n      0x0b\n        /* \"#utility.yul\":5853:5856   */\n      dup4\n        /* \"#utility.yul\":5794:5861   */\n      tag_64\n      jump\t// in\n    tag_124:\n        /* \"#utility.yul\":5787:5861   */\n      swap2\n      pop\n        /* \"#utility.yul\":5870:5963   */\n      tag_125\n        /* \"#utility.yul\":5959:5962   */\n      dup3\n        /* \"#utility.yul\":5870:5963   */\n      tag_71\n      jump\t// in\n    tag_125:\n        /* \"#utility.yul\":5988:5990   */\n      0x20\n        /* \"#utility.yul\":5983:5986   */\n      dup3\n        /* \"#utility.yul\":5979:5991   */\n      add\n        /* \"#utility.yul\":5972:5991   */\n      swap1\n      pop\n        /* \"#utility.yul\":5631:5997   */\n      swap2\n      swap1\n      pop\n      jump\t// out\n        /* \"#utility.yul\":6003:6422   */\n    tag_51:\n        /* \"#utility.yul\":6169:6173   */\n      0x00\n        /* \"#utility.yul\":6207:6209   */\n      0x20\n        /* \"#utility.yul\":6196:6205   */\n      dup3\n        /* \"#utility.yul\":6192:6210   */\n      add\n        /* \"#utility.yul\":6184:6210   */\n      swap1\n      pop\n        /* \"#utility.yul\":6256:6265   */\n      dup2\n        /* \"#utility.yul\":6250:6254   */\n      dup2\n        /* \"#utility.yul\":6246:6266   */\n      sub\n        /* \"#utility.yul\":6242:6243   */\n      0x00\n        /* \"#utility.yul\":6231:6240   */\n      dup4\n        /* \"#utility.yul\":6227:6244   */\n      add\n        /* \"#utility.yul\":6220:6267   */\n      mstore\n        /* \"#utility.yul\":6284:6415   */\n      tag_127\n        /* \"#utility.yul\":6410:6414   */\n      dup2\n        /* \"#utility.yul\":6284:6415   */\n      tag_72\n      jump\t// in\n    tag_127:\n        /* \"#utility.yul\":6276:6415   */\n      swap1\n      pop\n        /* \"#utility.yul\":6003:6422   */\n      swap2\n      swap1\n      pop\n      jump\t// out\n\n    auxdata: 0xa2646970667358221220cf12619fc9591a3f1c22391d7754edf8aded9a00f15c92438f6467921eb078b864736f6c63430008120033\n}\n",
				"bytecode": {
					"linkReferences": {},
					"object": "608060405234801561001057600080fd5b50336000806101000a81548173ffffffffffffffffffffffffffffffffffffffff021916908373ffffffffffffffffffffffffffffffffffffffff16021790555060008060146101000a81548160ff021916908315150217905550610fa0600160008060009054906101000a900473ffffffffffffffffffffffffffffffffffffffff1673ffffffffffffffffffffffffffffffffffffffff1673ffffffffffffffffffffffffffffffffffffffff1681526020019081526020016000208190555061076c806100e16000396000f3fe608060405234801561001057600080fd5b50600436106100625760003560e01c806327e235e3146100675780635c975abb146100975780638456cb59146100b55780638da5cb5b146100bf578063a0b9f0e1146100dd578063f7b188a5146100fb575b600080fd5b610081600480360381019061007c91906104b4565b610105565b60405161008e91906104fa565b60405180910390f35b61009f61011d565b6040516100ac9190610530565b60405180910390f35b6100bd610130565b005b6100c7610231565b6040516100d4919061055a565b60405180910390f35b6100e5610255565b6040516100f29190610530565b60405180910390f35b610103610351565b005b60016020528060005260406000206000915090505481565b600060149054906101000a900460ff1681565b60008054906101000a900473ffffffffffffffffffffffffffffffffffffffff1673ffffffffffffffffffffffffffffffffffffffff163373ffffffffffffffffffffffffffffffffffffffff16146101be576040517f08c379a00000000000000000000000000000000000000000000000000000000081526004016101b5906105d2565b60405180910390fd5b60011515600060149054906101000a900460ff16151503610214576040517f08c379a000000000000000000000000000000000000000000000000000000000815260040161020b9061063e565b60405180910390fd5b6001600060146101000a81548160ff021916908315150217905550565b60008054906101000a900473ffffffffffffffffffffffffffffffffffffffff1681565b60008060009054906101000a900473ffffffffffffffffffffffffffffffffffffffff1673ffffffffffffffffffffffffffffffffffffffff163373ffffffffffffffffffffffffffffffffffffffff16146102e6576040517f08c379a00000000000000000000000000000000000000000000000000000000081526004016102dd906105d2565b60405180910390fd5b60011515600060149054906101000a900460ff1615151461033c576040517f08c379a0000000000000000000000000000000000000000000000000000000008152600401610333906106aa565b60405180910390fd5b600060149054906101000a900460ff16905090565b60008054906101000a900473ffffffffffffffffffffffffffffffffffffffff1673ffffffffffffffffffffffffffffffffffffffff163373ffffffffffffffffffffffffffffffffffffffff16146103df576040517f08c379a00000000000000000000000000000000000000000000000000000000081526004016103d6906105d2565b60405180910390fd5b60011515600060149054906101000a900460ff16151514610435576040517f08c379a000000000000000000000000000000000000000000000000000000000815260040161042c90610716565b60405180910390fd5b60008060146101000a81548160ff021916908315150217905550565b600080fd5b600073ffffffffffffffffffffffffffffffffffffffff82169050919050565b600061048182610456565b9050919050565b61049181610476565b811461049c57600080fd5b50565b6000813590506104ae81610488565b92915050565b6000602082840312156104ca576104c9610451565b5b60006104d88482850161049f565b91505092915050565b6000819050919050565b6104f4816104e1565b82525050565b600060208201905061050f60008301846104eb565b92915050565b60008115159050919050565b61052a81610515565b82525050565b60006020820190506105456000830184610521565b92915050565b61055481610476565b82525050565b600060208201905061056f600083018461054b565b92915050565b600082825260208201905092915050565b7f6e6f7420746865206f776e657221000000000000000000000000000000000000600082015250565b60006105bc600e83610575565b91506105c782610586565b602082019050919050565b600060208201905081810360008301526105eb816105af565b9050919050565b7f416c726561647920706175736564210000000000000000000000000000000000600082015250565b6000610628600f83610575565b9150610633826105f2565b602082019050919050565b600060208201905081810360008301526106578161061b565b9050919050565b7f6e6f742070617573656421000000000000000000000000000000000000000000600082015250565b6000610694600b83610575565b915061069f8261065e565b602082019050919050565b600060208201905081810360008301526106c381610687565b9050919050565b7f4e6f742070617573656421000000000000000000000000000000000000000000600082015250565b6000610700600b83610575565b915061070b826106ca565b602082019050919050565b6000602082019050818103600083015261072f816106f3565b905091905056fea2646970667358221220cf12619fc9591a3f1c22391d7754edf8aded9a00f15c92438f6467921eb078b864736f6c63430008120033",
					"opcodes": "PUSH1 0x80 PUSH1 0x40 MSTORE CALLVALUE DUP1 ISZERO PUSH2 0x10 JUMPI PUSH1 0x0 DUP1 REVERT JUMPDEST POP CALLER PUSH1 0x0 DUP1 PUSH2 0x100 EXP DUP2 SLOAD DUP2 PUSH20 0xFFFFFFFFFFFFFFFFFFFFFFFFFFFFFFFFFFFFFFFF MUL NOT AND SWAP1 DUP4 PUSH20 0xFFFFFFFFFFFFFFFFFFFFFFFFFFFFFFFFFFFFFFFF AND MUL OR SWAP1 SSTORE POP PUSH1 0x0 DUP1 PUSH1 0x14 PUSH2 0x100 EXP DUP2 SLOAD DUP2 PUSH1 0xFF MUL NOT AND SWAP1 DUP4 ISZERO ISZERO MUL OR SWAP1 SSTORE POP PUSH2 0xFA0 PUSH1 0x1 PUSH1 0x0 DUP1 PUSH1 0x0 SWAP1 SLOAD SWAP1 PUSH2 0x100 EXP SWAP1 DIV PUSH20 0xFFFFFFFFFFFFFFFFFFFFFFFFFFFFFFFFFFFFFFFF AND PUSH20 0xFFFFFFFFFFFFFFFFFFFFFFFFFFFFFFFFFFFFFFFF AND PUSH20 0xFFFFFFFFFFFFFFFFFFFFFFFFFFFFFFFFFFFFFFFF AND DUP2 MSTORE PUSH1 0x20 ADD SWAP1 DUP2 MSTORE PUSH1 0x20 ADD PUSH1 0x0 KECCAK256 DUP2 SWAP1 SSTORE POP PUSH2 0x76C DUP1 PUSH2 0xE1 PUSH1 0x0 CODECOPY PUSH1 0x0 RETURN INVALID PUSH1 0x80 PUSH1 0x40 MSTORE CALLVALUE DUP1 ISZERO PUSH2 0x10 JUMPI PUSH1 0x0 DUP1 REVERT JUMPDEST POP PUSH1 0x4 CALLDATASIZE LT PUSH2 0x62 JUMPI PUSH1 0x0 CALLDATALOAD PUSH1 0xE0 SHR DUP1 PUSH4 0x27E235E3 EQ PUSH2 0x67 JUMPI DUP1 PUSH4 0x5C975ABB EQ PUSH2 0x97 JUMPI DUP1 PUSH4 0x8456CB59 EQ PUSH2 0xB5 JUMPI DUP1 PUSH4 0x8DA5CB5B EQ PUSH2 0xBF JUMPI DUP1 PUSH4 0xA0B9F0E1 EQ PUSH2 0xDD JUMPI DUP1 PUSH4 0xF7B188A5 EQ PUSH2 0xFB JUMPI JUMPDEST PUSH1 0x0 DUP1 REVERT JUMPDEST PUSH2 0x81 PUSH1 0x4 DUP1 CALLDATASIZE SUB DUP2 ADD SWAP1 PUSH2 0x7C SWAP2 SWAP1 PUSH2 0x4B4 JUMP JUMPDEST PUSH2 0x105 JUMP JUMPDEST PUSH1 0x40 MLOAD PUSH2 0x8E SWAP2 SWAP1 PUSH2 0x4FA JUMP JUMPDEST PUSH1 0x40 MLOAD DUP1 SWAP2 SUB SWAP1 RETURN JUMPDEST PUSH2 0x9F PUSH2 0x11D JUMP JUMPDEST PUSH1 0x40 MLOAD PUSH2 0xAC SWAP2 SWAP1 PUSH2 0x530 JUMP JUMPDEST PUSH1 0x40 MLOAD DUP1 SWAP2 SUB SWAP1 RETURN JUMPDEST PUSH2 0xBD PUSH2 0x130 JUMP JUMPDEST STOP JUMPDEST PUSH2 0xC7 PUSH2 0x231 JUMP JUMPDEST PUSH1 0x40 MLOAD PUSH2 0xD4 SWAP2 SWAP1 PUSH2 0x55A JUMP JUMPDEST PUSH1 0x40 MLOAD DUP1 SWAP2 SUB SWAP1 RETURN JUMPDEST PUSH2 0xE5 PUSH2 0x255 JUMP JUMPDEST PUSH1 0x40 MLOAD PUSH2 0xF2 SWAP2 SWAP1 PUSH2 0x530 JUMP JUMPDEST PUSH1 0x40 MLOAD DUP1 SWAP2 SUB SWAP1 RETURN JUMPDEST PUSH2 0x103 PUSH2 0x351 JUMP JUMPDEST STOP JUMPDEST PUSH1 0x1 PUSH1 0x20 MSTORE DUP1 PUSH1 0x0 MSTORE PUSH1 0x40 PUSH1 0x0 KECCAK256 PUSH1 0x0 SWAP2 POP SWAP1 POP SLOAD DUP2 JUMP JUMPDEST PUSH1 0x0 PUSH1 0x14 SWAP1 SLOAD SWAP1 PUSH2 0x100 EXP SWAP1 DIV PUSH1 0xFF AND DUP2 JUMP JUMPDEST PUSH1 0x0 DUP1 SLOAD SWAP1 PUSH2 0x100 EXP SWAP1 DIV PUSH20 0xFFFFFFFFFFFFFFFFFFFFFFFFFFFFFFFFFFFFFFFF AND PUSH20 0xFFFFFFFFFFFFFFFFFFFFFFFFFFFFFFFFFFFFFFFF AND CALLER PUSH20 0xFFFFFFFFFFFFFFFFFFFFFFFFFFFFFFFFFFFFFFFF AND EQ PUSH2 0x1BE JUMPI PUSH1 0x40 MLOAD PUSH32 0x8C379A000000000000000000000000000000000000000000000000000000000 DUP2 MSTORE PUSH1 0x4 ADD PUSH2 0x1B5 SWAP1 PUSH2 0x5D2 JUMP JUMPDEST PUSH1 0x40 MLOAD DUP1 SWAP2 SUB SWAP1 REVERT JUMPDEST PUSH1 0x1 ISZERO ISZERO PUSH1 0x0 PUSH1 0x14 SWAP1 SLOAD SWAP1 PUSH2 0x100 EXP SWAP1 DIV PUSH1 0xFF AND ISZERO ISZERO SUB PUSH2 0x214 JUMPI PUSH1 0x40 MLOAD PUSH32 0x8C379A000000000000000000000000000000000000000000000000000000000 DUP2 MSTORE PUSH1 0x4 ADD PUSH2 0x20B SWAP1 PUSH2 0x63E JUMP JUMPDEST PUSH1 0x40 MLOAD DUP1 SWAP2 SUB SWAP1 REVERT JUMPDEST PUSH1 0x1 PUSH1 0x0 PUSH1 0x14 PUSH2 0x100 EXP DUP2 SLOAD DUP2 PUSH1 0xFF MUL NOT AND SWAP1 DUP4 ISZERO ISZERO MUL OR SWAP1 SSTORE POP JUMP JUMPDEST PUSH1 0x0 DUP1 SLOAD SWAP1 PUSH2 0x100 EXP SWAP1 DIV PUSH20 0xFFFFFFFFFFFFFFFFFFFFFFFFFFFFFFFFFFFFFFFF AND DUP2 JUMP JUMPDEST PUSH1 0x0 DUP1 PUSH1 0x0 SWAP1 SLOAD SWAP1 PUSH2 0x100 EXP SWAP1 DIV PUSH20 0xFFFFFFFFFFFFFFFFFFFFFFFFFFFFFFFFFFFFFFFF AND PUSH20 0xFFFFFFFFFFFFFFFFFFFFFFFFFFFFFFFFFFFFFFFF AND CALLER PUSH20 0xFFFFFFFFFFFFFFFFFFFFFFFFFFFFFFFFFFFFFFFF AND EQ PUSH2 0x2E6 JUMPI PUSH1 0x40 MLOAD PUSH32 0x8C379A000000000000000000000000000000000000000000000000000000000 DUP2 MSTORE PUSH1 0x4 ADD PUSH2 0x2DD SWAP1 PUSH2 0x5D2 JUMP JUMPDEST PUSH1 0x40 MLOAD DUP1 SWAP2 SUB SWAP1 REVERT JUMPDEST PUSH1 0x1 ISZERO ISZERO PUSH1 0x0 PUSH1 0x14 SWAP1 SLOAD SWAP1 PUSH2 0x100 EXP SWAP1 DIV PUSH1 0xFF AND ISZERO ISZERO EQ PUSH2 0x33C JUMPI PUSH1 0x40 MLOAD PUSH32 0x8C379A000000000000000000000000000000000000000000000000000000000 DUP2 MSTORE PUSH1 0x4 ADD PUSH2 0x333 SWAP1 PUSH2 0x6AA JUMP JUMPDEST PUSH1 0x40 MLOAD DUP1 SWAP2 SUB SWAP1 REVERT JUMPDEST PUSH1 0x0 PUSH1 0x14 SWAP1 SLOAD SWAP1 PUSH2 0x100 EXP SWAP1 DIV PUSH1 0xFF AND SWAP1 POP SWAP1 JUMP JUMPDEST PUSH1 0x0 DUP1 SLOAD SWAP1 PUSH2 0x100 EXP SWAP1 DIV PUSH20 0xFFFFFFFFFFFFFFFFFFFFFFFFFFFFFFFFFFFFFFFF AND PUSH20 0xFFFFFFFFFFFFFFFFFFFFFFFFFFFFFFFFFFFFFFFF AND CALLER PUSH20 0xFFFFFFFFFFFFFFFFFFFFFFFFFFFFFFFFFFFFFFFF AND EQ PUSH2 0x3DF JUMPI PUSH1 0x40 MLOAD PUSH32 0x8C379A000000000000000000000000000000000000000000000000000000000 DUP2 MSTORE PUSH1 0x4 ADD PUSH2 0x3D6 SWAP1 PUSH2 0x5D2 JUMP JUMPDEST PUSH1 0x40 MLOAD DUP1 SWAP2 SUB SWAP1 REVERT JUMPDEST PUSH1 0x1 ISZERO ISZERO PUSH1 0x0 PUSH1 0x14 SWAP1 SLOAD SWAP1 PUSH2 0x100 EXP SWAP1 DIV PUSH1 0xFF AND ISZERO ISZERO EQ PUSH2 0x435 JUMPI PUSH1 0x40 MLOAD PUSH32 0x8C379A000000000000000000000000000000000000000000000000000000000 DUP2 MSTORE PUSH1 0x4 ADD PUSH2 0x42C SWAP1 PUSH2 0x716 JUMP JUMPDEST PUSH1 0x40 MLOAD DUP1 SWAP2 SUB SWAP1 REVERT JUMPDEST PUSH1 0x0 DUP1 PUSH1 0x14 PUSH2 0x100 EXP DUP2 SLOAD DUP2 PUSH1 0xFF MUL NOT AND SWAP1 DUP4 ISZERO ISZERO MUL OR SWAP1 SSTORE POP JUMP JUMPDEST PUSH1 0x0 DUP1 REVERT JUMPDEST PUSH1 0x0 PUSH20 0xFFFFFFFFFFFFFFFFFFFFFFFFFFFFFFFFFFFFFFFF DUP3 AND SWAP1 POP SWAP2 SWAP1 POP JUMP JUMPDEST PUSH1 0x0 PUSH2 0x481 DUP3 PUSH2 0x456 JUMP JUMPDEST SWAP1 POP SWAP2 SWAP1 POP JUMP JUMPDEST PUSH2 0x491 DUP2 PUSH2 0x476 JUMP JUMPDEST DUP2 EQ PUSH2 0x49C JUMPI PUSH1 0x0 DUP1 REVERT JUMPDEST POP JUMP JUMPDEST PUSH1 0x0 DUP2 CALLDATALOAD SWAP1 POP PUSH2 0x4AE DUP2 PUSH2 0x488 JUMP JUMPDEST SWAP3 SWAP2 POP POP JUMP JUMPDEST PUSH1 0x0 PUSH1 0x20 DUP3 DUP5 SUB SLT ISZERO PUSH2 0x4CA JUMPI PUSH2 0x4C9 PUSH2 0x451 JUMP JUMPDEST JUMPDEST PUSH1 0x0 PUSH2 0x4D8 DUP5 DUP3 DUP6 ADD PUSH2 0x49F JUMP JUMPDEST SWAP2 POP POP SWAP3 SWAP2 POP POP JUMP JUMPDEST PUSH1 0x0 DUP2 SWAP1 POP SWAP2 SWAP1 POP JUMP JUMPDEST PUSH2 0x4F4 DUP2 PUSH2 0x4E1 JUMP JUMPDEST DUP3 MSTORE POP POP JUMP JUMPDEST PUSH1 0x0 PUSH1 0x20 DUP3 ADD SWAP1 POP PUSH2 0x50F PUSH1 0x0 DUP4 ADD DUP5 PUSH2 0x4EB JUMP JUMPDEST SWAP3 SWAP2 POP POP JUMP JUMPDEST PUSH1 0x0 DUP2 ISZERO ISZERO SWAP1 POP SWAP2 SWAP1 POP JUMP JUMPDEST PUSH2 0x52A DUP2 PUSH2 0x515 JUMP JUMPDEST DUP3 MSTORE POP POP JUMP JUMPDEST PUSH1 0x0 PUSH1 0x20 DUP3 ADD SWAP1 POP PUSH2 0x545 PUSH1 0x0 DUP4 ADD DUP5 PUSH2 0x521 JUMP JUMPDEST SWAP3 SWAP2 POP POP JUMP JUMPDEST PUSH2 0x554 DUP2 PUSH2 0x476 JUMP JUMPDEST DUP3 MSTORE POP POP JUMP JUMPDEST PUSH1 0x0 PUSH1 0x20 DUP3 ADD SWAP1 POP PUSH2 0x56F PUSH1 0x0 DUP4 ADD DUP5 PUSH2 0x54B JUMP JUMPDEST SWAP3 SWAP2 POP POP JUMP JUMPDEST PUSH1 0x0 DUP3 DUP3 MSTORE PUSH1 0x20 DUP3 ADD SWAP1 POP SWAP3 SWAP2 POP POP JUMP JUMPDEST PUSH32 0x6E6F7420746865206F776E657221000000000000000000000000000000000000 PUSH1 0x0 DUP3 ADD MSTORE POP JUMP JUMPDEST PUSH1 0x0 PUSH2 0x5BC PUSH1 0xE DUP4 PUSH2 0x575 JUMP JUMPDEST SWAP2 POP PUSH2 0x5C7 DUP3 PUSH2 0x586 JUMP JUMPDEST PUSH1 0x20 DUP3 ADD SWAP1 POP SWAP2 SWAP1 POP JUMP JUMPDEST PUSH1 0x0 PUSH1 0x20 DUP3 ADD SWAP1 POP DUP2 DUP2 SUB PUSH1 0x0 DUP4 ADD MSTORE PUSH2 0x5EB DUP2 PUSH2 0x5AF JUMP JUMPDEST SWAP1 POP SWAP2 SWAP1 POP JUMP JUMPDEST PUSH32 0x416C726561647920706175736564210000000000000000000000000000000000 PUSH1 0x0 DUP3 ADD MSTORE POP JUMP JUMPDEST PUSH1 0x0 PUSH2 0x628 PUSH1 0xF DUP4 PUSH2 0x575 JUMP JUMPDEST SWAP2 POP PUSH2 0x633 DUP3 PUSH2 0x5F2 JUMP JUMPDEST PUSH1 0x20 DUP3 ADD SWAP1 POP SWAP2 SWAP1 POP JUMP JUMPDEST PUSH1 0x0 PUSH1 0x20 DUP3 ADD SWAP1 POP DUP2 DUP2 SUB PUSH1 0x0 DUP4 ADD MSTORE PUSH2 0x657 DUP2 PUSH2 0x61B JUMP JUMPDEST SWAP1 POP SWAP2 SWAP1 POP JUMP JUMPDEST PUSH32 0x6E6F742070617573656421000000000000000000000000000000000000000000 PUSH1 0x0 DUP3 ADD MSTORE POP JUMP JUMPDEST PUSH1 0x0 PUSH2 0x694 PUSH1 0xB DUP4 PUSH2 0x575 JUMP JUMPDEST SWAP2 POP PUSH2 0x69F DUP3 PUSH2 0x65E JUMP JUMPDEST PUSH1 0x20 DUP3 ADD SWAP1 POP SWAP2 SWAP1 POP JUMP JUMPDEST PUSH1 0x0 PUSH1 0x20 DUP3 ADD SWAP1 POP DUP2 DUP2 SUB PUSH1 0x0 DUP4 ADD MSTORE PUSH2 0x6C3 DUP2 PUSH2 0x687 JUMP JUMPDEST SWAP1 POP SWAP2 SWAP1 POP JUMP JUMPDEST PUSH32 0x4E6F742070617573656421000000000000000000000000000000000000000000 PUSH1 0x0 DUP3 ADD MSTORE POP JUMP JUMPDEST PUSH1 0x0 PUSH2 0x700 PUSH1 0xB DUP4 PUSH2 0x575 JUMP JUMPDEST SWAP2 POP PUSH2 0x70B DUP3 PUSH2 0x6CA JUMP JUMPDEST PUSH1 0x20 DUP3 ADD SWAP1 POP SWAP2 SWAP1 POP JUMP JUMPDEST PUSH1 0x0 PUSH1 0x20 DUP3 ADD SWAP1 POP DUP2 DUP2 SUB PUSH1 0x0 DUP4 ADD MSTORE PUSH2 0x72F DUP2 PUSH2 0x6F3 JUMP JUMPDEST SWAP1 POP SWAP2 SWAP1 POP JUMP INVALID LOG2 PUSH5 0x6970667358 0x22 SLT KECCAK256 0xCF SLT PUSH2 0x9FC9 MSIZE BYTE EXTCODEHASH SHR 0x22 CODECOPY SAR PUSH24 0x54EDF8ADED9A00F15C92438F6467921EB078B864736F6C63 NUMBER STOP ADDMOD SLT STOP CALLER "
				},
				"gasEstimates": {
					"creation": {
						"codeDepositCost": "380000",
						"executionCost": "73341",
						"totalCost": "453341"
					},
					"external": {
						"balances(address)": "2792",
						"checkPause()": "6986",
						"owner()": "2555",
						"pause()": "28871",
						"paused()": "2521",
						"unPause()": "28937"
					}
				},
				"methodIdentifiers": {
					"balances(address)": "27e235e3",
					"checkPause()": "a0b9f0e1",
					"owner()": "8da5cb5b",
					"pause()": "8456cb59",
					"paused()": "5c975abb",
					"unPause()": "f7b188a5"
				}
			},
			"storageLayout": {
				"storage": [
					{
						"astId": 3,
						"contract": "contract/twitter-modifier-task.sol:PausableToken",
						"label": "owner",
						"offset": 0,
						"slot": "0",
						"type": "t_address"
					},
					{
						"astId": 5,
						"contract": "contract/twitter-modifier-task.sol:PausableToken",
						"label": "paused",
						"offset": 20,
						"slot": "0",
						"type": "t_bool"
					},
					{
						"astId": 9,
						"contract": "contract/twitter-modifier-task.sol:PausableToken",
						"label": "balances",
						"offset": 0,
						"slot": "1",
						"type": "t_mapping(t_address,t_uint256)"
					}
				],
				"types": {
					"t_address": {
						"encoding": "inplace",
						"label": "address",
						"numberOfBytes": "20"
					},
					"t_bool": {
						"encoding": "inplace",
						"label": "bool",
						"numberOfBytes": "1"
					},
					"t_mapping(t_address,t_uint256)": {
						"encoding": "mapping",
						"key": "t_address",
						"label": "mapping(address => uint256)",
						"numberOfBytes": "32",
						"value": "t_uint256"
					},
					"t_uint256": {
						"encoding": "inplace",
						"label": "uint256",
						"numberOfBytes": "32"
					}
				}
			},
			"userdoc": {
				"kind": "user",
				"methods": {},
				"version": 1
			}
		}
	}
}